:020000021000EC
:10000000803F00203936010011C10200693601002D
:100010006936010069360100693601000000000000
:10002000000000000000000000000000A1330100FB
:1000300069360100000000004D330100D9AE020016
:10004000F935010019520200F9350100F9350100B6
:10005000F9350100F9350100F9350100F9350100E4
:10006000F9350100F9350100F9350100F9350100D4
:10007000F9350100F9350100F9350100F9350100C4
:10008000F9350100F9350100F9350100F9350100B4
:10009000F9350100F9350100F9350100F9350100A4
:1000A000F9350100F9350100F9350100F935010094
:1000B000F9350100F9350100F9350100F935010084
:1000C000F9350100F9350100F9350100F935010074
:1000D000F9350100F9350100F9350100F935010064
:1000E000F9350100F9350100F9350100F935010054
:1000F000F9350100F9350100F9350100F935010044
:1001000053B94AB9002908BF00281CBF4FF0FF317E
:100110004FF0FF3000F074B9ADF1080C6DE904CE7A
:1001200000F006F8DDF804E0DDE9022304B07047D2
:100130002DE9F047089E0D4604468846002B4DD118
:100140008A42944668D9B2FA82F252B101FA02F3B5
:10015000C2F1200120FA01F10CFA02FC41EA030885
:1001600094404FEA1C45210CB8FBF5FE1FFA8CF7B2
:1001700005FB1E8341EA03430EFB07F199420BD9AD
:100180001CEB03030EF1FF3080F01E81994240F218
:100190001B81AEF1020E63445B1AA4B2B3FBF5F00F
:1001A00005FB103344EA034400FB07F7A7420AD9D2
:1001B0001CEB040400F1FF3380F00881A74240F2F9
:1001C000058164440238E41B40EA0E4000211EB160
:1001D000D4400023C6E90043BDE8F0878B4208D92C
:1001E000002E00F0EE800021C6E900050846BDE8BB
:1001F000F087B3FA83F100294AD1AB4202D382429D
:1002000000F2F980841A65EB030301209846002E62
:10021000E2D0C6E90048DFE702B9FFDEB2FA82F2B7
:10022000002A40F09180A1EB0C054FEA1C471FFA11
:100230008CFE0121B5FBF7F307FB1350250C45EAB3
:1002400000450EFB03F0A84208D91CEB050503F19D
:10025000FF3802D2A84200F2CB8043462D1AA4B246
:10026000B5FBF7F007FB105544EA05440EFB00FE12
:10027000A64508D91CEB040400F1FF3502D2A645BF
:1002800000F2BB802846A4EB0E0440EA03409EE740
:10029000C1F120078B4022FA07FC4CEA030C20FA3C
:1002A00007F405FA01F31C43FD404FEA1C4900FA2C
:1002B00001F3B5FBF9F8200C1FFA8CFE09FB185569
:1002C00040EA054508FB0EF0A84202FA01F20BD9FC
:1002D0001CEB050508F1FF3A80F08880A84240F247
:1002E0008580A8F1020865442D1AA4B2B5FBF9F087
:1002F00009FB105544EA054500FB0EFEAE4508D942
:100300001CEB050500F1FF346CD2AE456AD902380A
:10031000654440EA0840A0FB0294A5EB0E05A54207
:10032000C846A64656D353D05EB1B3EB080265EB80
:100330000E0505FA07F722FA01F3CD401F43C6E97F
:1003400000750021BDE8F087C2F1200320FA03F117
:100350000CFA02FC25FA03F395400D434FEA1C47C3
:100360001FFA8CFEB3FBF7F107FB11302B0C43EAAD
:10037000004301FB0EF0984204FA02F408D91CEB8A
:10038000030301F1FF382FD298422DD9023963447B
:100390001B1AADB2B3FBF7F007FB103345EA034578
:1003A00000FB0EF3AB4208D91CEB050500F1FF384A
:1003B00016D2AB4214D902386544ED1A40EA014125
:1003C00038E73146304607E78646E5E61846FAE65E
:1003D0004B45A9D2B9EB020864EB0C0E0138A3E738
:1003E0004046EAE7204694E74146D1E7D0467BE71E
:1003F000023B654432E7084609E76444023842E7B5
:10040000704700BF0000000070B5434DD5F824319F
:10041000996811F0010188B021D103AA40F6034088
:1004200004F042FC0446002873D1039B9B681B78B0
:1004300093B9BFF35B8F2B4653F8982FBFF35B8FB5
:1004400002F00502BFF35B8F53E8001F43E8002072
:100450000028F9D1BFF35B8F039817F06FFD03AA53
:10046000002141F2030004F01FFC0446002850D193
:10047000039B2A489968082201311BF099FE0398D2
:1004800017F05CFD214603AA41F2010004F00CFCC8
:10049000044600283DD1039883685A7885F83420B3
:1004A000D9789A7842EA0122EA861A7985F83520C5
:1004B000197ADA7942EA01222A875A799B7942EA43
:1004C00003236B8717F03AFD214603AA41F202008D
:1004D00004F0EAFB0446E0B9039B11489968402206
:1004E00001311BF065FE0E481BF045FF039817F025
:1004F00025FD95F840305A061AD40A4B0A490B4894
:10050000C91AC908890141F001011AF03EFB6FF0D8
:100510001204204608B070BD000000203C000020FE
:100520004400002098F3020080F40200991B0300AD
:10053000214603AA42F2030004F0B6FB0446002859
:10054000E7D1039BA2489968082201311BF030FED5
:10055000039817F0F3FC214603AA42F2020004F0CC
:10056000A3FB04460028D4D1039B9B68B3F8012069
:10057000A5F8CC2091B221B1DA78964811461EF048
:10058000E8F9039817F0DAFC95F8406016F02006B9
:1005900000F0F98095F860301B0712D503AA0021FE
:1005A00042F21C0004F080FB04460028B1D10398FD
:1005B0008368D3F80120D3F80530C5E92A2317F062
:1005C000BDFC95F8A0309E0624D502A90DF10600C9
:1005D00004F0E4FB044600289BD1042142F22400ED
:1005E00004F002FA0646002800F0D4800421083006
:1005F0001DF0FBFEBDF806300380BDF808304380D7
:100600002246314642F2240004F04EFB0446002804
:100610007FF47FAF95F8A0305C0610D503AA0021C7
:1006200042F22A0004F040FB044600287FF471AF38
:10063000039883685B7885F8E83017F07FFC082121
:1006400042F2010004F0D0F90446002800F0A28034
:10065000082108441DF0C9FE95F8A01011F0400FC4
:10066000024640F2022308BF032388074CBF43F031
:100670002C0043F00C008B0695F8A13048BF40F0E9
:10068000400013F0090F95F8663018BF40F4006081
:1006900003F00603CE0748BF40F01000062B08BF4A
:1006A00040F4C07000211BF00AFF2146002242F2F4
:1006B000010004F0F9FA044600287FF42AAF95F807
:1006C000403098061ED4B5F8CC10D9B903AA41F22F
:1006D000050004F0E9FA044600287FF41AAFB5F8E3
:1006E000CC3063B9039B9B685A78997842EA01221F
:1006F000A5F8CC209A88374811461EF02AF90398AD
:1007000017F01CFC082140F6014004F06DF9044686
:1007100000283FD0082108441DF067FE95F8A0305E
:10072000D90702464BD528A1D1E900011BF0C7FE2D
:100730002146002240F6014004F0B6FA04460028A3
:100740007FF4E7AE014602AA4FF6014004F0ACFA8E
:10075000214C224BE41AE408A401002844D020488C
:1007600044F002011AF011FA05F092FB0446002849
:100770007FF4CFAE06F0EEFC044600287FF4C9AE4D
:1007800004F008FFC5E6022140F66D4004F02CF9A4
:10079000044610B96FF06804BBE6022108301DF072
:1007A00024FE0123037046702146324640F66D4018
:1007B00004F07AFA044600283FF4ECAEA9E60948B2
:1007C0004FF00051B2E700BF908800020080002087
:1007D000A0000020D000002080F4020098F3020066
:1007E000BD1B030010880002029B36489E68B6F8C5
:1007F0000120032A96BF3449344951F8221044F0AD
:1008000003031AF0E3F9B6F80110B6F80320022941
:1008100044F003032ED1032A2CD82D4951F822107D
:100820002C481AF0D3F972792B48032A96BF2B492A
:10083000264951F82210CDE90312B2790592B6F893
:1008400007200692D6F80920079244F003030522F8
:1008500003A91AF0F0F9029817F070FB02AA002120
:100860004FF6024004F020FA064628B11C4844F036
:10087000020177E71549D3E7029B1A4899680222DB
:1008800001311BF095FC029817F058FB95F8853064
:100890005B077FF569AF02AA31464FF6034004F0CB
:1008A00003FA18B1104844F002015BE7029B0F48BD
:1008B0009968012211441BF07BFC029817F03EFB63
:1008C00052E700BFE11B03000CFB0200A21603006D
:1008D000CCFA0200FA1B0300121C030044FB0200C6
:1008E0003F1C030085000020681C030084000020DA
:1008F0002DE9F041D0E90B35866A5C193034A64207
:100900008846174618D81C4DA3FB050118A3D3E948
:100910000023FFF7F5FBA41B20F07F40C8F8000080
:1009200013A3D3E90023A4FB0501FFF7E9FB20F0A3
:100930007F403860BDE8F0810F4C0DA3D3E9002360
:10094000A6FB0401FFF7DCFB05F1300120F07F403E
:10095000C8F8000006A3D3E90023A1FB0401FFF7B8
:10096000CFFB20F07F403860BDE8F081AFF300801E
:100970008D49FD1A0700000000CA9A3B00000000E4
:100980002DE9F04F8FB0002800F05C81BA4C94F84C
:100990004A6016F0010636D194F8292094F83530D3
:1009A00094F82500FF2104EB820204EB830384F812
:1009B000261000F00300D2F82C80D3F8389014F001
:1009C00047F894F84A00410700F12181B8F1000F7F
:1009D00011D0A94841460EF09BFC98F800305A0609
:1009E00005D5062109F0D8FF002800F0F581A248BE
:1009F00049460EF08DFC98F8003013F00E0F40F0D1
:100A0000DF80236A23B10C2630460FB0BDE8F08F9B
:100A10000DF044FD8246002800F0ED810DF04AFD06
:100A20008346002800F0EC810FF092FA054600287A
:100A300000F0E381406F4FF6FF732B8505F11C0337
:100A4000002800F0D48105F1680205F164010B93E0
:100A500009F0AEFFB5F86020884B22F4EF6222F077
:100A6000070242F4887242F00102A5F8602095F86E
:100A7000392002F03F0262F07F0285F8392095F8B4
:100A80007A2022F0070285F87A2095F83C2022F09F
:100A9000070285F83C2095F8D82022F0070285F857
:100AA000D8204FF01B120027C5E916230622A5F80F
:100AB000C020C5E912776F67A5F87870EF852F63BE
:100AC00085F83B702F65A5F8C470A5F8C870A5F827
:100AD000D070A5F8CC70A5F8E47085F8E670C5F87C
:100AE0000871A5F80C71A5F820710CF007FE95F8B7
:100AF0003A21A5F8387122F0030285F83A2195F8D9
:100B00007A20A5F8407122F0180285F87A2095F82D
:100B1000662185F8437122F0070285F8662195F871
:100B20008621C5F844A167F3041285F8862195F85B
:100B3000AE21A5F8647167F3C302C5E94A0100213B
:100B40000020C5E94C0185F8AE2185F8D970A5F8DB
:100B50008471C5F8E070A5F8AC71A5F8B8710FF014
:100B600039FDA5F8D2000FF03BFDD5F8BC11444A81
:100B7000A5F8D4000A40C5F8BC210FF037FD95F860
:100B8000C02160F3020285F8C0210FF035FD0B9BF8
:100B9000236295F8C031C5F8C47160F3C503C4E998
:100BA00010ABC5E97477C5E97277C5E905772F7091
:100BB000ED6185F8C03114F087FF002840F00E8108
:100BC00094F824300121C3F342030DF133008DF872
:100BD00033300AF067F870B398F8002002F00F0283
:100BE000022A4FD0012A00F0FD8099F8013010331D
:100BF000DB00002A00F0E580062A00F006814FF4B1
:100C0000DA714FF41B73013801FB003146E0C0F389
:100C1000C000324604F14B0114F084F8FF2884F838
:100C200026003FF4D3AE304613F02CFFB8F1000F8E
:100C30007FF4CFAEDFE6236A002B3FF4E4AE0EF084
:100C4000DDF8E0E60C4B93F84A20D4077FF5DBAEE5
:100C50001A6A5AB192F8201041F0020182F820106D
:100C60001B6A93F82030D8073FF5CDAE0FB0BDE832
:100C7000F04F0EF005B900BF3820002048014801B0
:100C80000000FFF698F801301033DB0000FB03F39F
:100C900003F5AA730138642101FB00316248E46165
:100CA00000253123A360C4E905555DA3D3E90023E2
:100CB000A1FB000125706560E560FFF721FA206166
:100CC000B4F848700BF004F9814647B998F8005021
:100CD00005F00F05A5F10105B5FA85F56D0994F844
:100CE000240065F3000010F0010584F824003ED0D4
:100CF00023694E4ADFF838810493002002250DAFA6
:100D0000019305920321CDE9020006944B46009021
:100D10000897CDF81C802A460D950BF00DF8394642
:100D20000DF04CFC002886D1424A05924AF2D83296
:100D30000092CDE90300CDE90100CDF81C800897B1
:100D400006944B46012203210D950AF0F5FF394622
:100D50000DF034FC00287FF46EAF94F84A30304632
:100D600043F0010384F84A300FB0BDE8F08F0694D9
:100D700002952369304A3148049303F24713136004
:100D8000A7FB0001912303FB0711294B0793274B76
:100D900005934FF6FF7309924FF0020803930DAFCE
:100DA0001FA3D3E90023CDF834800897FFF7A8F9F3
:100DB0004B46CDE900504246284603210AF066FF23
:100DC000C5E798F80110103103EBC103C90003F522
:100DD0004D7301F59A7116E7122615E60EF00EF81E
:100DE000032611E64FF4F2714FF47F730BE705F120
:100DF0006C00686727E6072606E658460DF060FB9C
:100E000050460DF051FB0726FEE598F80120103200
:100E100003EBC203D10003F54D7301F59A71F2E6BD
:100E20008D49FD1A0700000000CA9A3B85EB0100BE
:100E30009DD7010069EA01008C200020002AE78488
:100E40002DE9F04FC24D2B688BB004460F469046FB
:100E5000002B00F00C82E38D668E1E4494F80E3158
:100E60003E4413F00703B6B240F08E81B4F8E89028
:100E7000A6EB09021FFA82FB120400F1538294F9D7
:100E80003920002AC0F22B8194F8E43084F8E53050
:100E900094F8842194F8853194F80C1184F80D119C
:100EA000934206D094F8863103F00703052B00F037
:100EB00044822B68A34204BF00232B60D4F808515E
:100EC000002D00F030812868002800F02C81628D10
:100ED000B4F810314168C4F808119342B4F81221F3
:100EE00000F00581B4F81411B4F828C0EB83162380
:100EF0002B710023A5F806C02A8469842B77294624
:100F00000DF0E4FA0DF0ECFAA368002B0ADAE168C0
:100F1000626823F0004391422CBF88449044A36050
:100F2000A8EB0308608DB4F8105110FB0BF080B2F1
:100F3000B0FBF5F115FB01F39BB298421FFA81FA61
:100F400080F083811B1A834940F2E24003FB00F0EA
:100F5000A0FB01017CA3D3E90023FFF7D1F820F027
:100F60007F408044E18D94F93930A9EB0609D144E2
:100F70000F444F44E785002B40F2E24707FB05F69C
:100F8000C0F27781744A7549754840F6D52319F047
:100F9000BDF9404080F311884FF0030002DF0027C5
:100FA000B346704AB4F814316F48B4F81211A185F1
:100FB0003244B2FBF6F2A4F8C62042F2107202FBF1
:100FC00003633044013BB0FBF6F0B3FBF6F6B4F834
:100FD0001031638583B2881D8342A4F8C260A4F8EF
:100FE000CE3002DD5B1A063B9BB2A4F8CA3094F8FF
:100FF0000E311B0744BF0023A4F8C4300221012096
:1010000016F0E6FC002202218146012009F020FDB5
:1010100056494FF4F072204609F0AAFC00F1030A89
:101020005FFA8AFA524B00945246012100200AF0DE
:101030000DFF30F002030CD0474A4E49484840F6B5
:10104000043319F063F9404080F311884FF0030036
:1010500002DF404EABFB066B3BA3D3E900233046D7
:101060005946FFF74DF8089420F07F450694424812
:1010700023690493A5FB0001072303FB05113F4BE4
:1010800007933F4B0593301A4FF6FE736BEB01014C
:1010900003934FF47A720023FFF732F84346CDE909
:1010A000015000975246012100200AF045FE30F021
:1010B00002030CD0284A2F49294840F61E3319F064
:1010C00025F9404080F311884FF0030002DFB9F1A9
:1010D000000F40F02C8100200BB0BDE8F08F94F899
:1010E000D920002A3FF4D0AE84F8D930D0E6A18DC3
:1010F0009142B4F814117FF4F7AE40F2E24C0CFBCD
:1011000003FE42F2107C0CFB01EC0CF1FF3CBCFB3B
:10111000FEFCB4F8C2E01FFA8CFCE6457FF4E4AEB6
:1011200001232B71EBE60C4A16490D4840F6592372
:1011300019F0ECF8404080F311884FF0030002DF13
:101140002868C4E6AFF300808D49FD1A070000004F
:10115000AC20002000CA9A3B90030300D0FE02009E
:1011600038FE0200FF5962027FC3C90160110020EE
:1011700001F80100700403008D49FD1AA9F7010070
:10118000313F02005C04030001200DF0AFF9074677
:10119000002800F0D8807E4809F0B4FB05460028FE
:1011A00000F0D1800DF0C0F92B793A68D4F808111D
:1011B000516043F00303C4F8087100212B710C2324
:1011C0006B71E97194F81C312B72A38DD4F818213E
:1011D0001E44704BA3FB0232B4F81031A5F80B305B
:1011E000920AB4F81231A5F80920A5F80D3094F848
:1011F0000E21B4F81431A5F80F300636D4F8C431F6
:10120000B6B261F30202A4F8E86084F80E21A5F8F2
:101210001160002B78D094F86621900774D494F86C
:10122000BF21D10770D4D4F8D0219342D4F8C8217B
:1012300000F09480002A6AD11A7902F00302032A8E
:1012400000F09880C4F8C83163E005FB110140F25A
:10125000E243514889B203FB01F1A1FB00014AA31B
:10126000D3E90023FEF74CFFA8EB00087AE62860DC
:10127000F1E5226CA36C02FB1B33A36414F076FC33
:10128000054694F8D800C0F3C20014F071FC054480
:1012900006FB05F5414B94F81C2105F5742505F274
:1012A0003F25A3FB0535AD0C07FB02F2A36C2265BD
:1012B00005FB0AF072080344963A934228BF13468E
:1012C0002564A6EB050B344DC4E911230023C4F8B3
:1012D000E030A0FB05012CA3D3E90023FEF710FFAB
:1012E0002C49A8EB0008D4F81801A1FB0030800AB3
:1012F00007FB00F024A3D3E90023A0FB0501FEF7C0
:10130000FFFE20F07F474CE6D4F8C82102B3D4F8A2
:10131000CC311A682A601D602B68C4F8CC510BB917
:10132000C4F8D4516FF076000BB0BDE8F08F012205
:101330000221104609F08CFBCDE6002384F88521BC
:10134000A4F8C830B5E56FF068000BB0BDE8F08FC9
:101350002B60C4E97155C4F8CC51E0E71968C4F8B2
:10136000D011002AD3D11A682A601D602B68C4E905
:101370007255D4E7DA79032AF5D00A2A7FF462AFEE
:10138000F1E700BFAFF300808D49FD1A07000000B0
:10139000402100205917B7D100CA9A3B83DE1B4376
:1013A0002DE9F04F0B68D2F800A01B6897B00C46EF
:1013B0000B93037F00F11E01C3F38013054617460C
:1013C00014A806228DF847301AF0F2FE94F8129015
:1013D000B9F1FF0F12AE59D032460DF14701484620
:1013E00013F0CAF89DF8473002338DF8473029468C
:1013F000032251F82E3B0A9307F1080007F1040B72
:101400001AF0D6FE07F11808042205F12A01584601
:101410001AF0CEFE052205F13A0140461AF0C8FE48
:101420004046052109F03EFC7B7F95F83F1000F017
:101430003F0060F305037B77C1F30403BB77B5F886
:101440003480A7F80E8001281FFA88F201F01F03EC
:1014500005D91B3303F01F030B2B00D8E2B997F813
:1014600020300A986FF30003012687F820302E7190
:10147000646829460DF02AF82068267121460DF08F
:1014800025F80DF02DF817B0BDE8F08F062214A94D
:1014900030461AF08DFEAAE723680020586095F8C0
:1014A000363095F8370043EA00233B829AF8D8306B
:1014B000490961F3C503698E8AF8D83040F2E243E6
:1014C00003FB02F80D9114F051FB0C909AF8D80030
:1014D000C0F3C20014F04CFB0C9AB749024408FB5D
:1014E00002F202F5742202F23F22A1FB0232920CB8
:1014F0007A6295F83120398A40F2E24302FB03F325
:10150000BB634FEA5803963BBB622B8FAB4AADF8E7
:101510003A3018464244AA4BB2FBF8F2AAF8C62069
:1015200082B242F2107000FB02824344013A881DED
:10153000B2FBF8F2B3FBF8F3AAF8C2209AB28242E7
:10154000AAF8CE2002DD521A063A92B2AAF8CA20B0
:10155000594604220AF1DC001AF02AFE4FF4807288
:101560002B7FAA830B9A92F82600C3F340120F92A6
:101570000C9213F069FD002800F0E580062205F1C9
:10158000240105F12B001AF013FEB9F1FF0F00F052
:10159000E18014A9062205F125001AF009FE9DF844
:1015A0004730AB773146062205F11F001AF000FEE6
:1015B0009AF8D830FA896A863A8AAA86C3F3C203AF
:1015C000BDF83A2085F83830EA8650460EF0CCFC5B
:1015D0002946B881E88065680A980CF077FFBB89D6
:1015E000EB8019232B710C9B2E68002B40F0C180DF
:1015F0009DF83C302B77294630460CF067FF0CF005
:101600006FFF97F84500012100F0070014F0C0F8C3
:1016100081466C480026312309F25241CAF808304D
:10162000A1FB000162A3D3E90023CAF80460CAF851
:101630000C60FEF765FD7B6A0D9AE56820F07F403F
:10164000A8EB030840F2E24303FB025502213246B5
:10165000CAF81000012009F0FBF90B9F38460DF085
:10166000DDFD821C584B0097D2B2304601210AF0B2
:10167000EDFB05F2B2450128A5EB090500F08480D9
:101680000B9B93F82430DB076BD450460EF06CFCB8
:10169000DFF83091A8FB098645A3D3E900238346F0
:1016A00031464046FEF72CFDA368CDF818A00BF19B
:1016B0000304A3F13A0B454B0793454B05934FF4B5
:1016C000D5730893DAF81030049320F07F4741482F
:1016D0000023A7FB000103930723B8EB000003FBE3
:1016E000071166EB01014FF47A720023FEF708FD43
:1016F0002FA3D3E90023CDE90170A5FB0901FEF773
:10170000FFFCE4B220F07F4000905B4622460121BE
:1017100000200AF011FB30F002030CD02E4A2F49B2
:101720002F4840F2AB1318F0F1FD404080F31188D0
:101730004FF0030002DF01220221104609F088F970
:1017400017B0BDE8F08F0146062205F12B001AF014
:101750005AFD1AE70622002105F125001AF053FD73
:101760001DE7002301220093184611460AF06EFB84
:101770008BE77B7F43F040037B77584612F0F4FC05
:101780000123F8832B7736E70CF056FF0B9B83423F
:101790003FF476AF104A1349114840F2472318F03E
:1017A000B5FD404080F311884FF0030002DF67E78A
:1017B0008D49FD1A0700000083DE1B43FF596202BA
:1017C0007FC3C90100CA9A3BF53E0200C53E020034
:1017D000313F02008D49FD1AB80503007004030073
:1017E00038FE02001006030008B50C4817F076FA20
:1017F0000B4A106078B102698168136823F04003D6
:1018000013600B684FF42062062198470028ACBF94
:1018100000200B2008BD0120FCE700BF6C0D030079
:1018200020150020084A0346106802691268520613
:1018300058BF83F001031BB18368DB684021184760
:1018400083681B69FAE700BF2015002008B504482B
:1018500018F05CFDBDE808400020FFF7E3BF00BFC3
:10186000730D030008B521B1BDE80840054818F024
:101870004DBD054818F04AFDBDE808400120FFF7BE
:10188000D1BF00BF910D0300B10D030070B5037807
:101890008AB004460E4607AD032B20D8DFE803F0DC
:1018A00002191B1D114928461AF039FC637804936C
:1018B000A3780393E37802932379019363790093E8
:1018C0000B4AA37905951E21304618F02CFD0AB06D
:1018D00070BD0849E7E70849E5E70849E3E7084A32
:1018E0000A21284618F01FFDE0E700BFBC0D0300E9
:1018F000DE0D0300C30D0300CA0D0300D40D030069
:10190000D928030000B589B01BF0A9F96946FFF793
:10191000BDFF0348694618F0F9FC09B05DF804FB07
:10192000010E030010B588B00C461BF098F969460B
:10193000FFF7ACFF03482246694618F0E7FC08B001
:1019400010BD00BF180E030070B588B0FFF74CFF44
:10195000014628B1164808B0BDE8704018F0D6BC62
:1019600003F090FE064610B101461248F3E7124D0F
:10197000124818F0CBFC0FCD03AC0FC42B682360CA
:101980000F4900963346032203A804F0EBFC0146FE
:1019900048B10C4818F0BAFC0B4804F0CBFF0B48D8
:1019A00005F0B0FBFEE70A4818F0B0FCF4E700BF12
:1019B0002E0E03004A0E030030F502006A0E0300EB
:1019C00008F60200810E0300A80100208401002017
:1019D000A70E03000B6801330B60014B1B6818470F
:1019E000C401002007B50B460021024601910348BF
:1019F00001A900F0F9F803B05DF804FBD519010066
:101A000030B585B0CDE901010446002501A905489E
:101A1000039500F0E9F8DDE902309842B8BF25549B
:101A200005B030BDE7A202002DE9F84FB0F81890DC
:101A300019F00808044693460DD001290CBF49F05F
:101A4000100949F02009A0F818908BF31188BFF312
:101A50006F8FBDE8F88F09F00709022907D12046EA
:101A600018F06EFC0028F0D00128238B4ED1676956
:101A7000218B002F15DA256821F00701C4E90088C1
:101A800041F0010121830026218B01F0070ACA459C
:101A900002D0A368002B5AD10DB9002E71D00023BB
:101AA00056E001F007035A1F012A1ED821F0070152
:101AB000062B256889B2C4E900880AD13DB1638B41
:101AC0002A46126801339BB2002AFAD1638341F09F
:101AD00002012183204618F033FC06460028D3D0AB
:101AE000238B43F020032383CDE7042B0CD121F07B
:101AF000070189B22183204618F022FC0546002800
:101B0000C1D041F0200121830025BCE7032809D181
:101B1000226923F00703166843F006032383002598
:101B20002F46B1E7042806D1226923F0070356683F
:101B300043F00403F2E7052806D1226923F00703E6
:101B4000966843F00503E9E700252E46E8E7012300
:101B500041F0080121838BF31188BFF36F8FFBB92C
:101B600085BB16B11F492046B0474FF02003EFF365
:101B7000118B83F31188BFF36F8F238B23F008033E
:101B80002383238BDA0625D523F010032383012139
:101B9000B4F8189009F0070900297FF45EAF54E704
:101BA000A1680029DCD0D1F80090D1F804B03B4600
:101BB00052462046D847B9F1000FD1D04946D9F84E
:101BC0000090F2E729463B46524620462D6818F021
:101BD000D3FBC5E713F020011EBF23F020032383AE
:101BE0000221D5E7A5A302002DE9F04F91B08B4665
:101BF000029092461C4600259AF8000008B9284633
:101C00005FE325280AF1010707D0029B5946984750
:101C10000028C0F25683013512E2182200210AA8DA
:101C20001AF0F1FA9AF80130252B78D000221046EC
:101C3000964694461646394617F8013B2B2B00F082
:101C40009D8000F29480202B00F09B80232B00F0DD
:101C50009B802EB19DF8306046F004068DF8306010
:101C6000BCF1000F05D09DF8306046F008068DF8F5
:101C70003060BEF1000F05D09DF8306046F01006D0
:101C80008DF8306028B19DF8300040F020008DF8CC
:101C900030002AB19DF8302042F040028DF830200B
:101CA0009DF8302002F04400442803D16FF38612DF
:101CB0008DF830209DF830202A2B42F080028DF8DC
:101CC00030207BD19DF8312042F001024B1C8DF871
:101CD00031201A782E2A9DF831200CBF01210021D5
:101CE00061F341028DF8312074D15A782A2A6AD0E2
:101CF000013300210A26184610F8012BA2F1300703
:101D0000092F40F28E809DF830200E91C2F34000E2
:101D100040EAD17161F341028DF830205AE00AF1B6
:101D200002078DF833309DF83130D90740F14981F1
:101D300054F8049BB9F1000F07DA9DF8302042F007
:101D400004028DF83020C9F100095A0740F14281A0
:101D500054F8048BB8F1000F80F241819DF83130C6
:101D60006FF341038DF831304FF0FF3837E12D2B01
:101D70000CD0302B7FF46DAF01225CE74FF0010CEB
:101D800059E74FF0010E56E7012054E7012652E7CC
:101D90000CFB0202303A33461E4616F8010BA0F146
:101DA0003007092FF4D9994293D09DF830100D9245
:101DB000D20F62F341018DF830108AE70B46002202
:101DC0004FF00A0CE8E79DF8312042F004028DF84C
:101DD000312002331F4617F8012B6C2A41D025D839
:101DE000682A2BD06A2A46D04C2A4CD01F4617F8B6
:101DF000012B9DF831308DF83320782A00F2D980FC
:101E0000572A4DD8412A03D0453A022A00F2D18000
:101E10009DF83230042262F302038DF83230012340
:101E20009EE006FB01213039034664E7742A26D080
:101E30007A2ADBD19DF8313006220DE05A78682AE3
:101E40009DF8312006D1012161F3C6028DF83120C1
:101E50009F1CCCE71346022262F3C6038DF8313093
:101E6000C5E75A786C2A9DF8312001D10421EBE7AF
:101E700013460322F0E79DF831300522ECE79DF888
:101E800031300722E8E7BDF8303023F4F04323F087
:101E9000020343F4804343F00203ADF83030A6E779
:101EA000A2F15801202900F2848001A050F821F00D
:101EB000751F0100B31F0100B31F0100B31F010014
:101EC000B31F0100B31F0100B31F0100B31F0100C6
:101ED000B31F0100111E0100B31F0100751F010097
:101EE000351F0100111E0100111E0100111E01000D
:101EF000B31F0100351F0100B31F0100B31F010014
:101F0000B31F0100B31F01007D1F0100751F0100F9
:101F1000991F0100B31F0100B31F0100991F0100A9
:101F2000B31F0100751F0100B31F0100B31F0100A3
:101F3000751F01009DF83210012003F0780360F353
:101F40000201402B8DF8321002BF9DF8301041F095
:101F500001018DF83010632A31D1003B18BF0123F5
:101F60009DF83020C2F340010B4363F341028DF82A
:101F70003020D8E69DF832100220DEE79DF83220AE
:101F800003F07803A3F14000032161F3020243420E
:101F90008DF832204341E3E79DF83220032113F00E
:101FA000780F61F302028DF8322014BF0123002361
:101FB000D6E79DF8303043F001038DF83030002330
:101FC000CEE79DF93020002AB4BFDDF834904FF001
:101FD000FF39BAE69B077FF5C7AEDDF838809DF87C
:101FE00031100023CDE90D339DF8323003F00703A3
:101FF000012BC1F3C30138D1CB1E042B22D8DFE85B
:1020000003F003090921210054F8043BDA17CDE954
:102010000A3206E0073424F00704F4E80223CDE98D
:102020000A239DF8303013F0030656D002983B4641
:102030005246594618F04FFD0028C0F2428105442F
:10204000BA46D9E554F8043B01294FEAE372CDE9D9
:102050000A3205D19DF828300A9300230B93E0E75C
:102060000229DED1BDF92830D0E7022B23D1CB1EC7
:10207000042B13D8DFE803F0030A0A1212002268C7
:102080000A920023201D0B930446CAE7E01D20F0AE
:102090000700F0E80223CDE90A23F5E754F8043BF2
:1020A0000A9301294FF000030B93D3D00229B8D132
:1020B000BDF82830D0E7042B09D1E31D23F0070336
:1020C00003F10804D3E90023CDE90A23A9E7032B90
:1020D00004BF54F8043B0A93A3E79DF83300782823
:1020E000AED8622822D825283FF48FAD5828A7D132
:1020F0000DF126030093DDE90A0104AB0CAA18F0E8
:10210000A4FC8246B8F1000F0DF126000CDB9DF80F
:102110003020A0EB0A036FF3861298458DF830202B
:1021200002D9A8EB03030D9380463DE063381528E0
:1021300086D801A252F820F0B92101001D22010029
:102140004120010041200100412001004120010007
:102150001D22010041200100412001004120010019
:10216000412001007722010045220100492201009F
:102170004120010041200100912101004120010086
:1021800045220100412001004120010045220100BB
:10219000B8F1000FDDF828A00ADB4146504619F0DF
:1021A000E1FF0AEB00080026BAF1000F0CD147E767
:1021B000504619F0D0FFF4E70A9B8DF81030002646
:1021C0000DF1100A0DF11108A8EB0A0306B1013355
:1021D0009DF83220D00668D5023352060D9948BFCB
:1021E0000E9A0B4448BF9B18B9F1000F76DD9DF89D
:1021F0003020A9EB0309C2F38003039353076DD486
:10220000500661D546B1029B594630469847002892
:1022100057DB039B01351E46302356E01E070FD4C3
:1022200013F0100618BF2026DDE90A23002BBFF6A5
:102230005FAF524263EB4303CDE90A232D2657E7F4
:102240002B26F1E7002653E70A9840B30DF1260349
:1022500000930CAA04AB002118F0F7FBBDF8323054
:1022600003F0EF0343F4F04343F010038246ADF86C
:102270003230002646E70A9B07293FF6E1AEDFE849
:1022800001F00C04060C08080C0C1D70D8E61D802B
:10229000D6E6EA17C3E90052D2E61D60D0E6DFF8C1
:1022A000C8A006460AF105088EE7110748BF0133AA
:1022B00093E7184603935946029B98470028039BCF
:1022C00004DA11B0BDE8F08F20234D444A46002ABD
:1022D000A5EB090109F1FF39EBDC0D4636B1029B94
:1022E0005946304698470028EBDB01359DF83230DF
:1022F000D90601D41A0706D5029B594630209847C3
:102300000028DEDB01359DF83230DB0607D59DF86D
:102310003300029B594698470028D2DB01350D9EB9
:102320002E44731B002B16DC029843465246594636
:1023300018F0D1FB0028C4DB0544A944A9EB050330
:10234000002B7FF77DAE029B59462020984700283E
:10235000B7DB0135F2E7029B594630209847002849
:10236000AFDB0135DDE700BFFC0E030030B51049DF
:10237000104889B000221CF068FD0F4D0F49002263
:102380000023CDE9062300240E23CDE90334CDE953
:1023900001440B4B00944FF44072284616F080FE27
:1023A000084928461CF0FAF9204609B030BD00BFA4
:1023B000C9230100300A0020680A0020202B0020D9
:1023C00031270100020F0300014816F03BBF00BF98
:1023D000C408002010B50B4B00221A700A4B0B4AA0
:1023E0001A604FF4004000F0DBFA00F065FA08488C
:1023F00018F088FBBDE8104006490748082348222A
:102400001CF082B9C5290020C801002043AB02009E
:1024100034150020884E00203C15002010B54FF0E8
:102420002003EFF3118483F31188BFF36F8F044807
:1024300018F078FB84F31188BFF36F8F10BD00BFD5
:1024400034150020064BBFF35B8F53E8002F013299
:1024500043E800210029F8D1BFF35B8F704700BF2C
:102460002C1500200020064BBFF35B8F024653E87B
:10247000000F43E800210029F9D1BFF35B8F7047BB
:102480002C150020F8B5FFF7EDFF0A4C0A4D2D1B67
:1024900007462D110026AE4200DBF8BD63685B796C
:1024A0002BB123681B6913B1394620469847013682
:1024B0001034F0E7F8F40200F8F40200094A436827
:1024C000801A10B50011084C1960013001221871F2
:1024D0005A71237813B9054816F0B4FE012323700E
:1024E00010BD00BFF8F40200C4290020C408002079
:1024F00070B5124BBFF35B8F53E8005F6A1C43E873
:1025000000210029F8D1BFF35B8F2DB90C4C0D4E83
:10251000361B3611B54200DB70BD237B53B12368F7
:102520009B690BB1204698476368042219682046CE
:10253000FFF7C4FF01351034ECE700BF3015002071
:10254000F8F40200F8F40200164B984237B504463E
:1025500002D3154B984220D314480022002301A92E
:1025600016F03EFD0546D8B90122019BBFF35B8FF3
:1025700053E8001F43E800200028F9D1BFF35B8F28
:10258000019821464122043019F0D3FD019C7E239D
:1025900084F8453084F846500434204603B030BDFA
:1025A000034CFAE754F102002C2B03003C150020E9
:1025B0000A0F030050B1064B984206D303F510737F
:1025C00098422CBF0020012070470020704700BFB8
:1025D000884E00202DE9F04F474B1B7885B004460C
:1025E00003B900B3FFF71AFF054678B1BFF35B8F5D
:1025F000424B53E8002F013A43E800210029F8D16B
:10260000BFF35B8F9CB1284618F042FB2CB93C4BC2
:102610001B68002B01DDFFF735FF3A4818F080FA00
:10262000041E18BF0124204605B0BDE8F08F364BCC
:102630001B78E3B92B7ADB0719D418F03CFB07466B
:10264000284618F003FB0146384618F07EFADFF8FA
:10265000BC802F4BDFF8BCB0A3EB0803DB0803936F
:102660002D4BA3EB080306464FEAD30A36B92B4E8F
:102670002B4FBF1B3F114FF000083AE0B6FA86F12E
:10268000C1F11F094946284618F0E3FA254B984244
:10269000014602D3244A90421AD30846FFF78AFF24
:1026A0000246A8B9214B994212D06B890399C3F312
:1026B00089138B4238BF58F833204FEA8A1343F00E
:1026C0000103ADF8003049463B46584618F097FAEA
:1026D000012303FA09F126EA0106C7E773685B796B
:1026E00023B1336829465B683046984708F10108F2
:1026F0001036B845F2DB86E7C429002028150020F3
:102700002C15002034150020C529002098F3020064
:10271000F8F40200240F0300C8F40200F8F40200E9
:10272000F8F4020054F102002C2B03000A0F0300FE
:1027300010B5FFF7DDFE17F02FFA0C4B186030B123
:102740000B4B1B68092B02DD0A4816F07BFD094C78
:102750000020FFF73FFF0028FAD14FF0FF324FF083
:10276000FF33204616F094FDF2E700BF5815002015
:1027700028150020C4080020294B37B51B6841816B
:1027800004469847E0604FF02003EFF3118583F390
:102790001188BFF36F8F2348214618F0B7F985F3EE
:1027A0001188BFF36F8FBFF35B8F1F4B53E8002F70
:1027B000013243E800210029F8D1BFF35B8F1B4AA7
:1027C000127882B14FF02003EFF3118483F3118864
:1027D000BFF36F8F0020FFF7FDFE84F31188BFF376
:1027E0006F8F03B030BD124A1B681268002AF8D000
:1027F000012B0AD100220023CDE900230D484FF41C
:102800000042002317F0C0FBEBE70A2BE9D109488F
:102810001CF027FB084803B0BDE8304016F012BD9D
:10282000C80100203415002028150020C5290020EB
:1028300058150020300A0020C4080020F8B50E4FBB
:102840003D7875B90D4C0E4EFFF752FE361B361112
:10285000B54207DB0020FFF7BDFE0028FAD10123B7
:102860003B70F8BD63685B791BB1236820465B69E8
:10287000984701351034EBE7C5290020F8F4020031
:10288000F8F4020007B504380190BFF35B8F50E8FD
:10289000003F5A1E40E800210029F8D1BFF35B8FAA
:1028A000012B03D1034801A91BF049FF03B05DF8D8
:1028B00004FB00BF3C1500202023024902481A46B1
:1028C0001BF022BFC85000205C15002037B5002344
:1028D000094D01930120FFF77DFE0446FFF7B2FD8D
:1028E0000022002301A9284616F07AFB08B1002C2B
:1028F000F0D1019803B030BD5C15002007B500236E
:10290000019307480022002301A916F069FB10B1CA
:10291000FFF7DCFF0190019803B05DF804FB00BFF6
:102920005C150020F0B5037A85B0DC0701901ED459
:10293000457A2D091BD0002426460198314618F00F
:1029400088F90746FFF736FE70B134B9019B294676
:10295000186918F0FAF8044648B124FA06F3D907C2
:1029600002D53846FFF78EFF0136AE42E5D3019B14
:102970001A7A920704D55B69084C0393039B2BB921
:10298000064801A91BF0DBFE05B0F0BD1D6803A9D8
:1029900020461BF0D4FE0395F0E700BF5C15002035
:1029A000084A10B50123084C13600021A04204D846
:1029B00001B11360054B186010BD40085B00012198
:1029C000F4E700BF7C15002040420F00781500207E
:1029D000074B084A0848D21AD208084B920101292D
:1029E00014BF0146194642F00302054818F0DAB850
:1029F00098F3020098F30200910F0300890F03007F
:102A00009A0F030010B5084C86B024788DF8174053
:102A1000012402940DF117040194BDF820400094A4
:102A20001AF0ACFF06B010BDC4070020024B012213
:102A30001A700020704700BFC62900201FB501246E
:102A40000294044C0194BDF8184000941AF096FFCB
:102A500004B010BDC6290020074B084A0848D21A06
:102A6000D208084B9201012914BF0146194642F0D1
:102A70000302054818F096B898F30200C0F402006B
:102A8000910F0300890F0300B30F0300F8B505464B
:102A90004FF02003EFF3118683F31188BFF36F8F9C
:102AA000094B1C685CB1094FD4E90132002D08BF05
:102AB00013460BB1387898472468002CF4D186F37C
:102AC0001188BFF36F8FF8BD801500208815002096
:102AD000084B10B51C685CB901221A60064B93E8DC
:102AE000070019F0C8FB2046BDE81040FFF7CEBF35
:102AF00010BD00BF4402002088150020F0B585B04D
:102B00006E4601460546304618F04FF996E8070034
:102B1000144C84E807002078274600B3124B0021AC
:102B200019606B1C0DD0114816464FF4004C104A2A
:102B30000023E6FB0C01FDF7E3FA0121281A1CF043
:102B400035F916F0E5FD0120FFF7A0FF97E8070033
:102B500019F07EFBFFF7BCFF16F092FE207805B05F
:102B6000F0BD00BF88150020440200203F420F0046
:102B700040420F00084B70B5C31A0D4607499B1021
:102B8000044659430648402218F030F92B460146C6
:102B90002046BDE870401847A8150020B76DDBB689
:102BA000C807002073B50C4C0C4A4023041B00934B
:102BB0000D460B460A49A41061430646094818F021
:102BC00042F9011E05DA30462B4602B0BDE87040DE
:102BD000184702B070BD00BFA8150020B5AE0200B6
:102BE000B76DDBB6C8070020002270B5012104468E
:102BF000104600F017FC002000F0E2FB0F4815F033
:102C000075FF0F4B984215D11BF0CEFC26690D497C
:102C1000304617F0E4FB00280BDB24690949012545
:102C2000356404F11C0017F0DAFB002801DBE564D1
:102C3000002070BD6FF00400FBE700BF7D2C010099
:102C40000000AD0BA4F8020001460C2309484B43D9
:102C500070B5C418D4E90E5600224033A26318445C
:102C600018F0B1F82DB132462B460348BDE870404C
:102C7000184770BDA8150020C807002010B1012812
:102C800004D07047034B1B6C5B0701D1FFF7DCBF1F
:102C9000704700BFA815002008B54FF02003EFF3E0
:102CA000118183F31188BFF36F8F124A136843F0C9
:102CB000020013F0010310600CD04FF08042D2F8F4
:102CC0000C34D2F80C2413F0010303D00A4818F096
:102CD0007AF8012381F31188BFF36F8F23B1BDE828
:102CE00008400020FFF7B0BFBDE8084001201BF0FE
:102CF00065BC00BFF8150020E81500207FB5002254
:102D00000123CDE9022304ABCDE90433094ACDF810
:102D100000D06B46CDF804D018F0C5F8002805DBCC
:102D20004FF480420023684616F0B2FA07B05DF80F
:102D300004FB00BFD3AE0200094BBFF35B8F53E827
:102D4000002F22F0020143E800100028F7D1BFF362
:102D50005B8FD30702D4012015F0D8BE704700BFA7
:102D6000F8150020024AC3B21C2003FB0020704764
:102D7000A8150020094BBFF35B8F53E8002F42F0EA
:102D8000010143E800100028F7D1BFF35B8F9307E0
:102D900002D401201BF012BC704700BFF8150020C0
:102DA000094BBFF35B8F53E8002F22F0010143E88A
:102DB00000100028F7D1BFF35B8F930702D40120E6
:102DC00015F0A4BE704700BFF81500202DE9F041B2
:102DD0003949BFF35B8F0746012251E8003F41E8C4
:102DE00000200028F9D1BFF35B8F33B93349344851
:102DF0004B60CB608A6017F005FB7B1E012B2FD840
:102E0000012F07D14FF08043D3F81C3403F00303A4
:102E1000012B25D01BF0BCFC044618B9294B1B78AC
:102E2000002B41D14FF02003EFF3118683F311887B
:102E3000BFF36F8F0124DFF890804FF08045D5F805
:102E40001834D5F81824D2030CD503F00303012B52
:102E500001D0012F06D10CB386F31188BFF36F8F19
:102E6000BDE8F081ACB1304600F05EFBD5F8183516
:102E7000002BE4D1D5F80421002AE0D0C5F80431B4
:102E8000D5F804310123C5F81835C8F88031AB6096
:102E9000D5E70021212016F065FEE7E74FF08043DB
:102EA0000222C3F80423DBE74FF080430222C3F879
:102EB00008230646BFE700BFFC1500209815002038
:102EC000C4150020162B002000E100E0044A13681E
:102ED000C81A20F07F400344136016F0B7BF00BF4C
:102EE000101600202DE9F843860006F1804600F117
:102EF000500406F58836A400A4B204F180444FF4CF
:102F00008037D6F84035DFF86C8021F07F4504F536
:102F100088348740D8F80495A3EB090323F07F4356
:102F200029F07F42012BC6F8402502D113201BF067
:102F30005DFF09F10202AB1A23F07F43B3F5000FE6
:102F400088BF1546002323602368C8F8447325F022
:102F50007F43C6F84035D8F80435994506D0EB1ABA
:102F6000023B23F07F43B3F5000F01D8BDE8F8839F
:102F70002B46CFE700100140F8B50025104C2F4636
:102F8000104B1E6805B1F8BDD4F80423D203FAD55E
:102F9000D4F84021002AF6D0C4F84051D4F840219A
:102FA0004FF48032C4F84823D4F84015012526B1E7
:102FB0005A681F600020B047E2E71E60E3E700BFE9
:102FC000001001400416002038B50F4C00254FF4C6
:102FD0008033C4F80855C4F804330C4B4FF4003266
:102FE000C3F8802101212A46112000F01BFA11208C
:102FF00000F0E6F90123064AA36002202360136073
:10300000FFF7E4FE284638BD0010014000E100E073
:103010000C160020134AB0F1FF3F14BF03461346BD
:10302000013B002B1CDD9342A8BF13460E4AD2F889
:1030300004050E4A1168401A10F4000F20F07F4278
:1030400018BF002301321344094A0A4810600020C7
:103050005060044A934294BFC9188918FFF742BFD1
:103060000023E3E7FFFF7F0000100140101600205F
:1030700004160020CD2E0100044BD3F80405044BA8
:103080001B68C01A20F07F40704700BF001001404D
:10309000101600204FF02003EFF3118283F3118804
:1030A000BFF36F8F0649074B0868D3F8043582F3E6
:1030B0001188BFF36F8F1B1A23F07F4318447047AA
:1030C0001016002000100140014B1868704700BF27
:1030D00048020020F0B5082289B018F0B6F8CB6A93
:1030E00003930B6B04934B6B05938B6B0693CB6B2A
:1030F000079313466A460C460646002711461046BB
:10310000CDE90177009717F0ADFF3146054630460F
:1031100017F0A8FF216B0391616B0491A16B0591DE
:10312000E16B0544CDE906171046114617F09AFFEA
:1031300031460544304617F095FF0544206A00905B
:10314000606A0190A06A0290A06B0690E06B079005
:103150003046CDE90477039717F084FF0544606A91
:103160000090A06AD4F838C00190E06A0290CDF8CF
:1031700010C0606BD4F83CC00390CDE905C0206A54
:103180000790304617F06EFF0544E06A0090206B10
:103190000190606B0290206A0690A06A079030460A
:1031A000CDE90477039718F086F8236B0093636BDF
:1031B0000193A36B0293E36B0393636A0693E36A41
:1031C00007932D1A08233046CDE9047718F073F8D9
:1031D000636B0093A36B0193E36B0293236A0393E6
:1031E000636A0493A36ACDE90537236B07932D1A0D
:1031F0000823304618F05FF8A36B0093E36BCDE92A
:103200000137636A0393A36A0493E36ACDE9053740
:10321000636B07932D1A0823304618F04CF82D1ACB
:1032200010D40D4C35B908223146204618F019F853
:1032300001280FD0082322463146304618F03BF8CB
:103240002D1AEFE7044A08233146304617F00AFFEB
:103250002D18F8D409B0F0BDB4F802000449431E9B
:103260000F3013F8012F8A5C1A708342F9D170472E
:10327000FC0F0300F0B5264E07460C460FCE8DB06E
:1032800001AD0FC50FCE0FC596E8070085E8070012
:103290003846002F38D0002C38D0381F214602463F
:1032A00010344B780D781B0443EA0563CD782B432B
:1032B0008D78043143EA05238C4242F8043FF0D173
:1032C000144C04218A07036916D1C3F30742A55C95
:1032D0001A0EA25C42EA0562C3F30725DBB2655D04
:1032E000E35C42EA054242EA03220CAD21F003030B
:1032F0002B4453F82C3C534050F8042F01315340D9
:103300002C290361DED101200DB0F0BD2046FBE782
:1033100044F50200FC0F0300094A0A499368096852
:10332000D967094998674B6843F080534B60002385
:1033300083F31188BFF36F8F9368D86F704700BF16
:1033400058290020540D030000ED00E012498A685E
:103350004FF030001044EFF3098C80E8F01F20207C
:1033600080F31188BFF36F8F0C4F4FF000664A6AED
:103370008A603E60906F0023936780F3118804B5E4
:10338000104600F0D1FBBDE8044002F1300090E8A7
:10339000F01F8CF3098870475829002004ED00E0E5
:1033A0001EF0040F0CBFEFF30880EFF30980816972
:1033B00011F8021C0229FFD001B518F0A5FE01BDCD
:1033C00043B2002B08DB012200F01F0002FA00F0DC
:1033D0005B09024A42F82300704700BF00E100E0A9
:1033E00043B2002B0DDB01225B0900F01F0002FA43
:1033F00000F02033034A42F82300BFF34F8FBFF39E
:103400006F8F704700E100E0054B420900F01F009C
:1034100053F82220012303FA00F01040704700BF48
:1034200000E100E043B2002BA8BF03F1604301F1CB
:103430000101B8BF064B4FEA4111ACBF03F5614330
:1034400000F00F00C9B2B4BF195483F800137047DD
:1034500014ED00E008B572B6044B186A18B10022EA
:103460001A621BF0A2F962B608BD00BF58290020FD
:1034700042F8203C009B42F81C3C0A49019B42F860
:10348000183C029B42F8143C21F001014FF080737C
:1034900042F8043C42F8081C0023203A0265836786
:1034A000704700BFE1A40200094A0346906870B16A
:1034B00013F1160F806E05D0A0F120029A4205D8B4
:1034C000834203D2814228BF00207047002070470A
:1034D0005829002008B5094B98600D46144600F0A5
:1034E00023FB204685F30988002163B681F3118808
:1034F000BFF36F8F0022002316F0F2FF582900203F
:10350000014910220A60704710ED00E072B6404099
:1035100080F31188BFF36F8FBFF34F8F30BF62B658
:10352000BFF36F8F704700BF72B6494081F31188B7
:1035300020BF80F3118862B6704700BF73B506469E
:103540000C4601B3134B144D1448ED1AED08AD01B0
:1035500045F00105ADF80050D1E90123096817F0E5
:103560004EFBADF80050D4E90423E1680C4817F095
:1035700046FBE1690B482A4617F014FBA1690A488B
:103580002A4617F00FFB2146304602B0BDE87040D6
:1035900015F0E6BB98F30200E0F40200FC10030013
:1035A0002B1103005A1103006911030030BFFFF70C
:1035B000FDBF00BF0E4A08B50E4B22F07F029A6095
:1035C000BFF34F8FBFF36F8FD3F8882022F47002C0
:1035D000C3F88820EFF3148323F0040383F31488E3
:1035E00015F01CFC16F052FB00F074FA15F03AFCD2
:1035F0000000010000ED00E001B572B60B4A106A50
:1036000000281EBF002111621BF0CFF862B6EFF355
:103610000580A0F110004FEAC0000549014409C926
:103620009847BDE801400349084700005829002099
:10363000C4F10200B93A010018F008FE202080F31E
:10364000118808484FF40261401880F30988EFF3AD
:1036500014800221084380F31488BFF36F8FFFF7B3
:10366000A9FF000000410020EFF30880EFF309817B
:1036700001B5724600F04EF901BD00BF2DE9F047DB
:10368000354B364C364DE41AE408A40144F00109E8
:103690000746884633484946164617F076FAAB6A1D
:1036A000DB0603D53048494617F06FFAAB6A1807B6
:1036B00004D52E4844F0010117F067FA284DAB6A93
:1036C000990723D46FF01509254DAB6ADB0704D5A4
:1036D000274844F0010117F058FAAB6A980604D560
:1036E000244844F0010117F050FA1D4B9A6AD106A4
:1036F00024D49A6A920721D40020194A936A43F08D
:10370000FF03936200233370BDE8F08744F0010AA1
:103710001948514617F039FAD5F83490AB6A1A06B1
:10372000D0D516485246494617F03CFAB8F1000F7A
:10373000CAD0AB6A23F08003AB62C5E75B681B05A8
:10374000DAD539464846FFF7AFFE0028D4D080F3DB
:1037500009880220D1E700BF98F30200E0F40200DC
:1037600000ED00E097110300AD110300E01103002C
:103770002112030040120300F31103000B12030097
:1037800070B5234B234C244D2448E41AE408A401CB
:1037900044F00106314617F0F8F9AB6A9B0103D5F6
:1037A0001F48314617F0F1F9AB6ADD0104D51D4819
:1037B00044F0010117F0E9F9174DAB6A180304D57D
:1037C000194844F0010117F0E0F9AB6A590304D538
:1037D000164844F0010117F0D8F90F4DAB6A9A036F
:1037E00004D5134844F0010117F0CFF9AB6ADB03AD
:1037F00004D5104844F0010117F0C7F9064A936A4E
:103800006FEA03436FEA13439362002070BD00BF69
:1038100098F30200E0F4020000ED00E06F120300F4
:10382000871203009A120300B4120300D21203009D
:10383000F7120300111303002DE9F0412A4B2B4C22
:103840002B4DE41AE408A40144F0010807460E4693
:103850002848414617F099F9AB6AD90403D52648A0
:10386000414617F092F9AB6A1A0504D5234844F093
:10387000010117F08AF91E4DAB6A9B0512D544F081
:1038800001081F48414617F080F9A96BAB6A18047C
:1038900008D51C48424617F085F91FB1AB6A23F4DE
:1038A0000043AB62124DAB6A590504D5164844F08B
:1038B000010117F06AF9AB6ADA050DD5134844F037
:1038C000010117F062F90A4A936A002043F47F432A
:1038D00093623070BDE8F081AB6A9B04F3D50C486D
:1038E00044F00101EDE700BF98F30200E0F40200AC
:1038F00000ED00E03C13030052130300E01103004D
:10390000631303007C13030091130300AC13030043
:10391000401203002DE9F043584B5E688BB00F4610
:10392000C6F30804002585F31188BFF36F8F02F0FA
:103930007F43B3F17F4F0DD102F00C03082B0BD165
:103940004F49504B5048C91AC908890141F001013B
:1039500017F01BF92F4603E0120701D40746012593
:1039600000238DF80730E31E092B6ED8DFE803F043
:10397000055C60406D6D6D6D6D64424B404EDFF8CF
:10398000FC804248F61AF608B60146F001063146B8
:1039900017F0FBF8D8F82C404FF0000914F002049F
:1039A0008DF8079005D03A48314617F0EEF800241C
:1039B00021E0D8F82C305B001DD53648314617F091
:1039C000E4F898F8283033B10DF1070201213846A8
:1039D000FFF754FE0EE098F829302BB10DF10701E6
:1039E0000120FFF729FF05E0B8F82A309BB213B198
:1039F000FFF7C6FE04469DF8073093B920223946EA
:103A000002A818F0D5FB099B9DB3C3F3080222B9A5
:103A10006FEA53236FEA4323099302A92046FFF775
:103A20008DFD0BB0BDE8F0830DF107020021CEE75C
:103A30000DF107010020D4E71149124B1648C91AAD
:103A4000C908890141F00101AFE70E4A0C4B134848
:103A500013499B1ADB0816F4F87F4FEA831318BF4B
:103A6000014643F001030F48A4F1100217F0AEF82D
:103A70009DE723F4FF7323F00103CDE700ED00E0A1
:103A8000E0F4020098F30200C4130300EF130300F4
:103A90000614030027140300461403007F140300D8
:103AA0006A14030098140300024A536943F0100398
:103AB0005361704700ED00E0044B9968586A8842F2
:103AC00003D003494FF080520A6070475829002004
:103AD00004ED00E0044800232021C2180133302BFC
:103AE00082F80013F9D1704700E100E0064B9B68B3
:103AF000834207D1EFF3058323B1044A536843F0AF
:103B00008053536016F05EB85829002000ED00E0A5
:103B1000024B034A0348012100F08CB80000042046
:103B20000000002060F90200826E054B203A1A6006
:103B3000044A2021C3E901121846012100F084B88B
:103B40001416002000000B15F8B52A4F0E46002170
:103B5000B14214DA4468002C48D0C3B104F1FF3CF0
:103B600014EA0C0F0DD0244A244B2548D21AD2084F
:103B7000920142F0010217F015F86FF0150210469D
:103B8000F8BD1F2CEFD905681CEA050FEBD1202CDE
:103B9000D5B2D0F808C0026816D9B4F1004F15D8D4
:103BA000013CB4FA84F4C4F11F046400072D4CEA0C
:103BB00004040DD9104A114B1248D21AD2089201AE
:103BC00042F001022946D6E70824EFE73E24EDE75C
:103BD00022F01F022A4342F0100244F00104C7F809
:103BE0009850C7F89C20C7F8A0406A1C01310C30DF
:103BF000AEE700BF00ED00E0D0F4020098F3020051
:103C0000AF140300D2140300044B0522C3F8942020
:103C1000BFF34F8FBFF36F8F704700BF00ED00E021
:103C2000BFF35F8F024B0022C3F89420704700BFA0
:103C300000ED00E010B5034C01232278FFF784FF6C
:103C4000207010BDC729002008B5094A002312784A
:103C5000FFF77AFF10F1160F03D0064B002207285A
:103C600000DD08BDC3F89800C3F8A0200130F6E7D6
:103C7000C729002000ED00E014490868082810B5A5
:103C800021D8FFF7CDFF124C49680022904201F184
:103C90000C0105D10F4B1870FFF7B6FF002010BDC7
:103CA000C4F8982051F80C3C23F01F03134343F051
:103CB0001003C4F89C3051F8043C43F00103C4F8ED
:103CC000A0300132E2E74FF0FF30E8E76CF9020084
:103CD00000ED00E0C72900204FF02002EFF3118330
:103CE00082F31188BFF36F8F044A0121C2F8401597
:103CF00083F31188BFF36F8F0020704700E001400D
:103D000020B1034B800143F001031847704700BF07
:103D100000F602000E4B402970B528BF40210D4C23
:103D200046181D46B04203F1020304D1002305F8F2
:103D30001130074870BD02781209A25C03F8022C0A
:103D400010F8012B02F00F02A25C03F8012CE9E746
:103D5000E62900200B15030030B503788BB004462C
:103D600007AD032B21D8DFE803F0021A1C1E12490D
:103D7000284618F0D4F963780493A3780393E37882
:103D8000029323790193637900930C4AA3790595F3
:103D90001E210B4816F0C7FA09480BB030BD09497F
:103DA000E6E70949E4E70949E2E7094A0A21284622
:103DB00016F0B9FADFE700BFBC0D0300DE0D03000B
:103DC000C8290020C30D0300CA0D0300D40D030051
:103DD000D928030070B5214CBFF35B8F2368BFF374
:103DE0005B8FDA0706460D4601D50C2070BD012910
:103DF00031D8BFF35B8F54E8003F43F0020244E840
:103E000000210029F7D1BFF35B8F9B07EDD4144845
:103E1000314618F0A6FA134806F1200118F0A1FA6D
:103E2000BFF35B8F75B154E8003F43F0040344E8EF
:103E30000032002AF7D1BFF35B8F0B4815F002FA6E
:103E40000020D3E754E8003F23F0040344E80032A5
:103E5000002AF0D0F6E71220C8E700BF20160020A5
:103E6000872A0020A72A0020AC0800202DE9F0476F
:103E70006A4B6B4DDFF8AC81DFF8AC91ED1AED08C1
:103E800047464FF0FF324FF0FF33484615F000FA37
:103E9000BFF35B8FD8F80040BFF35B8F14F00104D1
:103EA0005AD0DFF888A1624C624E634852462146E0
:103EB00017F02CF8E8BBA901604841F0010116F0A9
:103EC00064FE4FF01F0A4FF0FF324FF0FF33012026
:103ED00000F080F900F108060221044630461AF08D
:103EE00084FA3E23037042234370012130461AF0C6
:103EF0007CFA08230370412130461AF076FA064610
:103F000000F801ABBAF1000F1DD04022002118F0DB
:103F10007AF9BFF35B8F57E8003F23F0010347E8CE
:103F20000032002AF7D1BFF35B8F204601F05CFA24
:103F3000A7E720223146204618F029F90028B4D0FE
:103F40004FF0000ABFE73C4918F00BFA203106F1A8
:103F5000210018F006FADCE7BFF35B8FD8F80030D9
:103F6000BFF35B8F9B078CD53049334817F093FE26
:103F7000011E38DAAA01324842F0010216F012FEA0
:103F80004FF0FF324FF0FF33012000F023F900F132
:103F9000080A0221064650461AF027FA3E2303700B
:103FA00022234370012150461AF01FFA092303709F
:103FB000212150461AF019FA034601303CBB1F225A
:103FC0001A70FF21202218F01EF9BFF35B8F57E80B
:103FD000003F23F0020347E80032002AF7D1BFF385
:103FE0005B8F3046A2E71249BFF35B8FD8F80030F1
:103FF0001048BFF35B8F13F0040F01F120020B4B4D
:1040000018BF0146104616F0D0FF0446B8E700225C
:1040100009491A7018F0A5F9D7E700BF98F3020014
:1040200088F4020020160020AC0800208CF9020061
:10403000672A00207F150300872A0020231503002C
:104040004C15030070B5067D044676B983681D885B
:1040500042F22602954245D00FD842F20102954223
:104060004FD042F225039D4213D02A4BD3F824317E
:1040700020461B69BDE87040184742F25E039D422E
:10408000F3D1032108301AF0CFF9A06890F840105E
:104090002EE0032108301AF0C7F9204613F04EFF36
:1040A000BFF35B8F1C4B1A68BFF35B8F920707D57A
:1040B0000C26314642F2250018F02FF9002070BD81
:1040C000BFF35B8F53E8002F42F0010143E800107B
:1040D0000028F7D1BFF35B8FD307E9D40F4815F061
:1040E000B1F8E6E7032108301AF09EF9A0683146DE
:1040F000FFF770FE0646204613F020FF31462846A3
:10410000DAE7DA7802F07F02DA701A7922F0010237
:104110001A71AAE70000002020160020AC08002039
:1041200010B588B00C4C0D4900220023CDE90623C0
:1041300000230A22CDE90323CDE9013300934FF494
:104140008F62074B204614F0ABFF0649204608B0AB
:10415000BDE810401AF022BBE80A0020402E0020E3
:104160006D3E01006D15030030B4034608461A7811
:10417000012A13D0022A26D072B9154A02F110047E
:1041800052F8045B41F8045BA242F9D15B881278D3
:104190000A7043731B0A837330BC70470C4A02F1E8
:1041A000100452F8045B41F8045BA242F9D15B6849
:1041B00012780A70C3F3072243731B0CC3731B0AE4
:1041C00082730374E8E730BC1122194617F0F0BF80
:1041D0009F15030038B5054605481AF0A4F80446B3
:1041E00020B1002108301AF0BDF82575204638BDF1
:1041F000DC09002070B502460B464FF02001EFF3BA
:10420000118581F31188BFF36F8F0C480021D0F81E
:104210000841C0F8081185F31188BFF36F8F24B9E6
:10422000BDE870400120FFF7D5BF012304F108006D
:104230002375A1811AF096F8204670BD0000002079
:1042400070B504460F2C0D461046194605D80D2CA6
:1042500012D9BDE87040FFF7CDBF132C0CD10B482D
:104260001AF061F8044628B1002108301AF07AF8F3
:1042700001232375204670BD02460B460DB104484C
:10428000EEE7BDE870400120FFF7A4BF040A00205C
:104290006409002070B50B4D06460FCD8CB06C46FE
:1042A0000FC40FCD0FC495E80F0084E80F000B2E4C
:1042B0009BBF0CAB03EB8606034856F8300C0CB0E2
:1042C00070BD00BF70F50200A21603000549064A42
:1042D00083680648521AD2089201197842F0020205
:1042E00016F060BC98F3020080F40200AA160300E6
:1042F00038B583681A7872B9B3F80140204602F0E5
:104300006BFC054640B9084B1A8822B96FEA045085
:104310006FEA1050188038BD012102F065FC284674
:10432000BDE8384018F062BCA0290020F8B58668C6
:104330003578F5B9B6F80170384602F04DFC044600
:1043400060B90C4B0C4A0D48D21AD208920139467A
:1043500042F00102BDE8F84016F024BCF378037384
:10436000294602F041FC25802046BDE8F84018F0BF
:104370003DBCF8BD98F3020080F40200D2160300A1
:10438000836810B51C88204602F026FC60B9084AF4
:10439000084B0948D21AD2089201214642F0010284
:1043A000BDE8104016F0FEBBBDE8104018F01EBC82
:1043B00080F4020098F30200F816030008B501210A
:1043C00008301AF039F8064B064A01780648D21A26
:1043D000D2089201BDE8084042F0010216F0E2BBAB
:1043E00098F3020080F402001C17030010B50A4A7B
:1043F0000A4C81898068A41AFFF78CFCFEF7A4F8A8
:10440000E408A40144F00204014622460448BDE841
:10441000104016F0C7BB00BF98F3020080F4020002
:104420003E17030073B58568B5F80160304602F0A9
:10443000D3FB044668B9254B254A2648D21AD20830
:10444000920142F00102314602B0BDE8704016F020
:10445000A9BB2B78CBB92A79EB7843EA0223A0F8E1
:104460009E30AA796B7943EA0223A0F8A430EB7955
:104470002A7A43EA0223A0F8A63002F0DBF92046AC
:1044800002B0BDE8704018F0B1BB1A2BF7D1C37869
:10449000012BF4D14FF48061043018F001F843058A
:1044A000EDD4B4F8A030ADF80030B4F8A230ADF8D7
:1044B0000230B4F8A830ADF804306946B4F8AA3038
:1044C000ADF80630204602F0D9FFD8E798F3020095
:1044D00080F40200F816030013B50D4C01460522C6
:1044E00094F8330002F0A8FC78B90A4B186B9A8E46
:1044F000009093F83630ADF8042094F833008DF82E
:1045000006300422694602F097FC02B010BD00BFDD
:104510000000002070F5020073B502EBC3030546EE
:1045200008461178A9421AD008329A42F9D18689F0
:10453000164B174C80683146E41AFFF7EBFBFEF789
:1045400003F8E408A40144F002040346ADF8004077
:1045500010483246294616F052FB02B070BD8189E0
:1045600053788B420DD9094A094B0B489B1ADB083B
:104570009B0143F001032A4602B0BDE8704016F0EB
:1045800025BB536802B0BDE87040184798F302009D
:1045900080F40200841703006217030010B50121A4
:1045A0000446083019F048FF2146034A0078BDE868
:1045B00010400A23FFF7B0BF6CFA02002DE9F04368
:1045C000074685B09079414E8846144613F0F8FBB3
:1045D000864216D03E4B3F4DA0790097ED1AED086C
:1045E000019013F0EDFBAD0145F00205CDE90206A7
:1045F0002B4639480422694616F01DFB05B0BDE87C
:10460000F083204613F0E4FB344D4FF00C0909FB16
:1046100000504388BB4211D02D4B2E4E2046F61A37
:1046200013F0D6FBF60809FB0050B60146F002066F
:1046300042882B483346394616F0C8FA204613F014
:10464000C7FB0C2606FB00504368ABB1B8F1000F66
:1046500012D1204613F0BCFB06FB0050012142683A
:10466000D2E90030127A00F01F06B1404009EAB1E9
:1046700003EB800017F014FF204613F0A9FB0C2673
:1046800006FB00508368002BB8D0204613F0A0FB37
:10469000704305F80080204613F09AFB06FB005596
:1046A000A86805B0BDE8F04314F0CCBDC94303EBE6
:1046B0008003BFF35B8F53E8002F0A4043E80020DC
:1046C0000028F8D1BFF35B8FD6E700BFB409002004
:1046D00098F3020080F40200A617030024160020BD
:1046E000DB17030038B504210446083019F0A4FE96
:1046F0004578017840882246FFF760FF25B10348DE
:10470000BDE8384014F09EBD38BD00BFF000002069
:1047100038B503210446083019F08EFEA3680578E9
:104720001978B0F801002246FFF748FF25B1034889
:10473000BDE8384014F086BD38BD00BFF000002051
:104740002DE9F84F514D524BDFF84891DFF848A161
:10475000ED1AED08D9F80C3050486FF35233C9F810
:104760000C3002F0D9F9471C4A484FF0FF324FF0A5
:10477000FF33394615F058FC60B14949494840F6C5
:104780007413524615F0C2FD404080F311884FF07B
:10479000030002DF444EDFF8FC8006F1F00B17B98E
:1047A00015F064F9D6E7D8F80C10C1F345310129AA
:1047B00059D9042963D198F80C30002B57D13B48C4
:1047C0000022002319F0B4FD044660B93849354889
:1047D00040F61113524615F099FD404080F31188C0
:1047E0004FF0030002DF4FF0FF334FF0FF32584627
:1047F00014F04EFDD6F8083163B1A9012D4841F0FF
:10480000010116F0C2F9D6F8080113F097FB002356
:10481000C6F80831204619F0B6FDC6F80801204652
:10482000FFF710FC0146F0B1AA01234842F0010253
:1048300016F0B8F9214814F005FD204613F0C8FA27
:104840001F4B0C2202FB00301F2140882246FFF73D
:10485000B5FED6F8080113F071FB00232046C6F818
:10486000083113F06BFB08F11408013F97E7012BA7
:10487000F9D1D8F81000383802F0E4FBF3E7AA01C8
:10488000104842F0020216F08DF9ECE780F40200C5
:1048900098F302004C0200200E1803006002002072
:1048A000421803004B180300000000200C010020F8
:1048B000B31503006818030083180300F0000020FC
:1048C00024160020A51803002DE9F84F394D3A4B66
:1048D000D0F80880DFF8E4A0ED1A0026ED08B14614
:1048E00098F800309E4201DBBDE8F88F08EB8603A4
:1048F000B3F801B0B3F80370584602F06DF90446FE
:10490000D8B100F1280B002F33D04FF02003EFF384
:10491000118283F31188BFF36F8FE369B3B1013B59
:10492000E36182F31188BFF36F8F204601F07EFFB1
:10493000013F14F087FCBFB2E5E7AA01204842F02E
:104940000102594616F02EF90136C9E763692BB109
:10495000A169186860618B4208BFA06182F3118869
:10496000BFF36F8F4BB9A90141F00101504616F01A
:104970000CF9204618F03AF9E6E74FF02002EFF381
:10498000118182F31188BFF36F8FDA68E261626A86
:10499000C3F80C90C3F800904AB9C4E9083381F316
:1049A0001188BFF36F8F584614F0B8FDBDE7136050
:1049B0006362F4E780F4020098F30200E218030057
:1049C000C618030010B5C1E900239DF808300B722A
:1049D0000C4613F0FDF9034B0C2202FB00335C6024
:1049E00010BD00BF241600202DE9F0474FF0FF3224
:1049F0004FF0FF3306461748174D0F4619F093FC4A
:104A0000044600F1080A00214FF00008504619F052
:104A1000A9FC84F81480204613F0DAF94FF00C0951
:104A200009FB00504680204613F0D2F909FB0050E4
:104A3000C0F80880204613F0CBF909FB005503218C
:104A4000C5F80480504619F0D0FC877006802046D7
:104A5000BDE8F087B40900202416002038B50546CB
:104A60000C4619B9FFF7C0FF0446F0B140F63543D4
:104A70009D4214D12046FFF7E5FA054668B10C4B7C
:104A80000C4AD21AD2089201014642F001020A48A9
:104A900016F088F8204613F051FA284638BD07482A
:104AA000214619F063FC0025F7E76FF06805F4E78D
:104AB00098F3020080F40200831803000C01002028
:104AC000F0B585682E88B7B287B0384602F084F812
:104AD000044668B9274B284A2848D21AD2089201BE
:104AE00042F00102394607B0BDE8F04016F05AB86E
:104AF00002AFD5F80220D5F80630019769890091F8
:104B000019F08BFA28B3122142F21A00FFF76CFF5A
:104B1000054670B91849174B1948C91AC9088901BF
:104B200041F0010116F031F8204618F05FF807B0A7
:104B3000F0BD1221083019F058FC394620F8026BFC
:104B4000102217F035FB294642F21A00FFF786FFC4
:104B5000EAE7022142F21B00FFF746FF0546002864
:104B6000D8D00221083019F040FC2946068042F2D4
:104B70001B00EBE798F3020080F40200F816030034
:104B8000F918030070B506460D4642F221000321D4
:104B9000FFF72AFF044658B90C490D4B0D48C91AB6
:104BA000C9088901BDE8704041F0010115F0EDBF71
:104BB0000321083019F019FC85700680214642F265
:104BC0002100BDE87040FFF749BF00BF80F402003C
:104BD00098F3020010190300F7B58368D9789A7822
:104BE0001F8842EA0122ADF8002059791A7942EA79
:104BF0000122ADF802209A79D97942EA0122ADF872
:104C000004201A7A5B7ABCB242EA03232046ADF84C
:104C1000063001F0E1FF064680B9204B204A2148CA
:104C2000D21AD2089201214642F0010215F0BAFFD1
:104C300002212046FFF7A6FF03B0F0BD694601F050
:104C400029FE38B91E212046FFF79CFF304617F099
:104C5000CDFFF1E70E2142F22000FFF7C5FE054629
:104C60000028F3D00E21083019F0BFFB0E220446B5
:104C7000002117F0C8FABDF800306380BDF802309B
:104C8000A380BDF80430E380BDF80630278023817F
:104C9000294642F22000FFF7E1FED7E798F3020031
:104CA00080F40200F81603002DE9F041074686B0B3
:104CB00015460C4621B9FFF797FE0446002857D049
:104CC00001220021684619F044FE204613F080F8C6
:104CD000DFF8A4800C2303FB0080C0F808D0204636
:104CE00019F051FB2548214619F040FB4FF4A02252
:104CF0000023684614F0CCFA064680B1204A2149C8
:104D000021484FF49C7315F001FB2048314615F003
:104D1000FDFA404080F311884FF0030002DF204687
:104D200013F056F80C23584318F80060BEB1184A27
:104D3000184B19489B1ADB089B0143F002033246CB
:104D4000394615F043FF204613F0F8F8092E0CBF42
:104D50006FF06E006FF0040006B0BDE8F08115B191
:104D60002C603046F8E7204613F0E8F82846F3E7D1
:104D70006FF06800F0E700BF241600200C0100204F
:104D80000E180300421803004B1803002A190300F1
:104D900098F3020080F402004A19030073B5064636
:104DA0000D4601AA002142F22F00FFF77DFF0446C5
:104DB00060B10C490C4B0D48C91AC908890141F072
:104DC000010115F0E2FE204602B070BD0198836833
:104DD000B3F801203280B3F803302B8013F0AEF823
:104DE000F1E700BF80F4020098F3020066190300A7
:104DF0007FB5437B072B04466ED1BFF35B8F4368BF
:104E0000BFF35B8F9B0400F104061BD4C37823B16E
:104E1000324B93F8A0301D0714D5022142F2160040
:104E2000FFF7E2FD054668B10221083019F0DDFA0E
:104E300023880380294642F2160004B0BDE8704082
:104E4000FFF70CBEBFF35B8F6368244DBFF35B8F2E
:104E500013F4805FC3F300311CD195F8A130D8075B
:104E600018D5022300911A46204617F070FB014620
:104E700030B98021304604B0BDE8704017F010BB57
:104E8000174A184B1848D21AD208920142F0010270
:104E900015F088FE95F8A0309A061DD5D5F8243176
:104EA0009B689B0718D50DF10E0103A8FFF776FF4D
:104EB00090B9BDF80C10BDF80E20204617F02AFB63
:104EC000014648B1064A074B0848D21AD208920157
:104ED00042F0010215F066FE04B070BD0000002033
:104EE00080F4020098F3020086190300A019030061
:104EF00038B58368B3F80150284601F06DFE0446CA
:104F000060B9144B144A1548D21AD20892012946A6
:104F100042F00102BDE8384015F044BE0430BFF352
:104F20005B8F50E8003F23F0800240E80021002919
:104F3000F7D1BFF35B8F1B0606D54FF4805117F0F6
:104F4000AFFA2046FFF754FF2046BDE8384017F07F
:104F50004DBE00BF98F3020080F40200F816030073
:104F600070B58568B5F80160304601F035FE04463D
:104F700060B9104A104B1148D21AD208920131463A
:104F800042F00102BDE8704015F00CBE2B7823B949
:104F90000822E91CAC3017F00BF94FF40051201D2A
:104FA00017F07EFA2046FFF723FF2046BDE8704049
:104FB00017F01CBE80F4020098F30200F8160300FC
:104FC0002DE9F043B0F80190804A6FEA0953118847
:104FD0006FEA13539BB2994205464FF0000808BF91
:104FE000A2F8008085B008BF4FF0010800F02EFC49
:104FF0002C781FFA89F7002C3AD03C2C2AD101F0EA
:105000007BF8BFF35B8F103050E8003F23F0400384
:1050100040E80032002AF7D1BFF35B8F0020FFF792
:105020005BFA054660B96A4B6A496B48C91AC908F8
:10503000890141F0010105B0BDE8F04315F0A5BDBF
:105040000473002101F0D0FD284605B0BDE8F0430F
:1050500017F0CCBD5E4B5F4A6048D21AD20892016D
:1050600042F00202214605B0BDE8F04315F09ABDBA
:105070002B79023B012B05F1040645D80722314666
:1050800002A817F095F89DF808300622023B05F1BA
:1050900011010DF101008DF8083017F089F8012396
:1050A0008DF80030EB78012B16D102A8FFF714FA27
:1050B000EB78012B04460ED101F01EF8BFF35B8F95
:1050C000103050E8003F23F0400340E80032002A4F
:1050D000F7D1BFF35B8F64BB3D4A3E4C3046A41A08
:1050E000FEF73AFEFDF730FAE408A40144F00104AB
:1050F000014622463A4815F055FD1F21384617F063
:10510000EEF905B0BDE8F083EB78012B04BF354B19
:1051100093F833403146204617F061FB07220146E1
:1051200002A817F045F807223146684617F040F804
:10513000B8E72046072220F8889B02A917F038F824
:105140002A7EEB7D43EA0223A4F89E30AA7E6B7E82
:1051500043EA0223A4F8A4302A7FEB7E43EA022329
:10516000A4F8A630EB78E3700022012B227317D14C
:105170000722694604F18F0017F01AF800F0BCFF0F
:10518000217A184DC1EBC1010722294404F1960090
:1051900017F00EF8D5F8AC305B0601D501F0F0F849
:1051A0000721204601F020FDB8F1000F03D00121B6
:1051B000204601F019FD204617F0D4FC2046FFF7E9
:1051C00017FE204617F012FD9BE700BFA029002024
:1051D00098F3020080F40200BC190300D819030000
:1051E000F11903000000002029289ABF014B185C28
:1051F00008207047E41C030070B58368B3F80160B1
:105200001D78304601F0E8FC044660B91F4A204B87
:105210002048D21AD2089201314642F00102BDE87C
:10522000704015F0BFBC65B12846FFF7DDFF294689
:105230000246204601F068FB2046BDE8704017F0AA
:10524000D5BC8378012B07D105F0F6F9204617F07D
:105250000FF9002808BF05252846FFF7C5FF294696
:105260000246204601F050FB002DE5D0084B0749CF
:105270000948C91AC908890141F0010115F085FCE6
:105280002946204617F0EDFCD6E700BF80F4020067
:1052900098F30200D21603000D1A0300F8B58668D1
:1052A000B6F801703578384601F096FC044660B9CE
:1052B000204B214A2148D21AD2089201394642F0A5
:1052C0000102BDE8F84015F06DBC65B12846FFF756
:1052D0008BFF29460246204601F016FB2046BDE81A
:1052E000F84017F083BC8278F378C372012A08D1A2
:1052F0000BB105F0A1F9204617F0BAF8002808BF55
:1053000005252846FFF770FF29460246204601F092
:10531000FBFA002DE2D0074B07490948C91AC90812
:10532000890141F0010115F030FC2946204617F0B3
:1053300098FCD3E798F3020080F40200D216030031
:105340000D1A03002DE9F041044600F1080630462D
:1053500019F082F8B4F80C80B8F1010F05460CD8AA
:105360001C4A1D491D4840F6E14314F0CFFF404060
:1053700080F311884FF0030002DF3046022119F05C
:105380005BF80746007817F061F8C20706460CD4B0
:10539000104A1349114840F6E54314F0B7FF404066
:1053A00080F311884FF0030002DF05230D4A38789F
:1053B0002146FFF7B1F8B30707D52069A4F80C80A0
:1053C00010FA85F5A560BDE8F0812046BDE8F04102
:1053D00012F0B4BD0E180300331A03004B1803007B
:1053E0004C1A03001CFB020070B5017D0129044624
:1053F0004BD0032978D18389032B0CD8424A4349E7
:1054000043484FF4BF7314F081FF404080F311888C
:105410004FF0030002DF042104F1080019F00CF83A
:10542000A18942880688FF23C6F30B008A42E082E6
:1054300063750DD03748384B1B1ADB089B01374882
:1054400043F0010315F0C2FB204612F077FD1AE08D
:1054500001F0C2FB054658B92E4B2F4AE18A30486D
:10546000D21AD208920142F0010215F09BFBEBE741
:1054700001F064FE320B60752146284601F062FAA5
:10548000284617F0B3FB002070BD8389012B0CD890
:105490001D4A1E491E4840F6FE0314F037FF4040E7
:1054A00080F311884FF0030002DF022104F10800AD
:1054B00018F0C2FF0546007816F0C8FF83070CD429
:1054C000114A1849124840F6021314F01FFF4040D9
:1054D00080F311884FF0030002DF134A2878062377
:1054E0002146FFF719F8AFE70A4B0B4A0F48D21ACB
:1054F000D208920142F0010215F054FB204612F04E
:105500001DFD6FF01500BFE70E180300331A0300EE
:105510004B18030098F3020080F40200651A0300A0
:10552000891A0300AB1A0300DCFA0200D91A03003F
:1055300010B5037D012B04460CD0094A09490A48DD
:1055400040F6285314F0E2FE404080F311884FF0FB
:10555000030002DF2046FFF7F5FE002010BD00BF6C
:105560000E180300ED1A03004B180300084A034607
:10557000D2F8240130B9D96839B1196929B1C2F812
:10558000243170476FF0770070476FF01500704757
:10559000000000202DE9F0432B4D2C4C2C4EDFF861
:1055A000B49087B0022105F1980016F079FF2A4BDC
:1055B0002A49E41AEB792846012B88BF0E46FEF7EC
:1055C000CBFBFCF7C1FFE408A40144F0030802464A
:1055D00031462348434615F0F9FA2F460126EB7968
:1055E0009E4207F1070722DB95F834603046FEF74C
:1055F00051FEEB8E049344F003046B8F0593CDE9C9
:105600000206234602A90422164815F014FB95F859
:1056100035603046FEF73EFE2B8FADF80040014668
:105620003246114815F0EBFA07B0BDE8F083384672
:10563000FEF792FBFCF788FF314602464346484698
:1056400015F0C4FA0136CAE70000002080F4020019
:10565000490E0300231B030098F30200101B0300F4
:10566000141B0300341B0300721B030010B5FAF770
:10567000CBFE034B1B6813B1BDE81040184710BDAB
:105680003C16002070B52B4DD5F8243188B0064665
:1056900073B9294B29492A48C91AC908890141F017
:1056A000010115F072FA6FF01204204608B070BDC7
:1056B000012105F1980016F0F3FE10EA010336D13E
:1056C000204A1660002000216FF00802CDE9060193
:1056D000CDE90232CDE9003304931B491B4B1C4832
:1056E0004FF4207213F0DCFC1A49194819F056F8EF
:1056F000FEF716FDD5F82431DB689847044658B10B
:105700000D4B0E4AD21AD2089201014642F0010214
:10571000114815F047FAC8E726B908B0BDE870404F
:10572000FAF772BE05F1880013F0F8FEBDE76FF0DE
:105730007704BAE70000002098F3020080F402002A
:10574000911C03003C160020E0320020414701007C
:10575000680B0020AA1C0300B01C0300004870471F
:10576000CC1C0300F8B50B4F06460025FB79ECB2C4
:10577000A34202D86FF0010409E0C4EBC401072280
:105780003944304616F003FD01350028EED120469D
:10579000F8BD00BF0000002038B5144906220546B8
:1057A00016F0F5FC0446E0B1062142F20500FFF7D1
:1057B0001BF90446B8B106222946083018F01BFE32
:1057C0002146002242F20500FFF76EFA044640B976
:1057D00006220648294616F0EBFC054B012283F809
:1057E0002C20204638BD6FF06804FAE72D00002019
:1057F0000000002030B5144CC0EBC00085B004445C
:105800000D4679B100230722694628460093CDF85A
:10581000033016F0BCFC28B12946204616F05CFF88
:1058200005B030BD02A816F003FE02A8FFF79AFFEC
:105830000028F7DA02A9204616F04EFF002DEFD01F
:1058400021462846EAE700BF000000200A4BBFF3CC
:105850005B8F53E8002F22F4005143E8001000282A
:10586000F7D1BFF35B8F930404D5044900220220D3
:1058700004F0ACBF704700BF9800002017C80200BA
:10588000F7B55F4C94F8E82094F8E93005460AB182
:105890009A4208D2013384F8E9302B7A43F00403AA
:1058A0002B7203B0F0BD00210622084601F0C4FAB5
:1058B0000646A8B1BFF35B8F983454E8003F43F429
:1058C000005344E80032002AF7D1BFF35B8F2B7AF4
:1058D00043F001032B7203B0BDE8F04017F086B926
:1058E0000146484800F002FC94F8E93073B13046B4
:1058F00016F041FF50B14449444B4548C91AC90804
:10590000890141F0020115F040F923E094F8E92003
:1059100094F8E8309A4227D13C4B3B4E3D48F61A6A
:10592000F608B60146F0020115F02FF900221146E3
:1059300042F22900FFF7B8F918B1374846F00101E3
:10594000E1E794F8E930013384F8E9302B7A43F049
:1059500004032B72012016F00EFF3048002103B023
:10596000BDE8F04000F0C2BB6F1C05F12A013846CB
:1059700016F0BBFE064640B12349244B2848C91AFD
:10598000C908890141F00101BDE794F8E93001330C
:1059900084F8E9302B7A43F004032B7294F86B30CF
:1059A0005B0708D41849194B1E48C91AC908890150
:1059B00041F00201A7E73946684616F08DFE012343
:1059C000082142F24E008DF80730FFF70DF804462B
:1059D00040B90D490D4B1448C91AC908890141F055
:1059E000010190E708226946104418F004FD324690
:1059F000214642F24E00FFF757F90028AAD0E8E707
:105A000000000020A7C7020090F4020098F30200F3
:105A10000E1D0300331D0300641D03004DC702006B
:105A2000841D0300A41D0300CE1D03002DE9F041D9
:105A3000474C94F8E82094F8E930054612B1013259
:105A4000934208DD013B84F8E9302B7A23F004030C
:105A50002B72BDE8F08100210622084601F0ECF926
:105A60000646A0B1BFF35B8F983454E8003F43F47F
:105A7000005344E80032002AF7D1BFF35B8F2B7A42
:105A800043F002032B72BDE8F04117F0AFB80146B6
:105A9000304800F02BFB304616F06DFE0646B0B1E4
:105AA0002D4A2E4BD21AD2089201014642F0010231
:105AB0002B4815F077F894F8E93013B1012016F06F
:105AC0005AFEBDE8F0412748002100F00FBB94F8D2
:105AD000E93094F8E8209A420CD2013B84F8E9308E
