:1000000000430020D94100006DD90100AD4100003E
:10001000AD410000AD410000AD4100000000000016
:10002000000000000000000000000000293C00006B
:10003000AD41000000000000D53B000035C70100C5
:10004000D93C0000D5610100D93C0000D93C00003A
:10005000D93C0000D93C0000D93C0000D93C00004C
:10006000D93C0000D93C0000D93C0000D93C00003C
:10007000D93C0000D93C0000D93C0000D93C00002C
:10008000D93C0000D93C0000D93C0000D93C00001C
:10009000D93C0000D93C0000D93C0000D93C00000C
:1000A000D93C0000D93C0000D93C0000D93C0000FC
:1000B000D93C0000D93C0000D93C0000D93C0000EC
:1000C000D93C0000D93C0000D93C0000D93C0000DC
:1000D000D93C0000D93C0000D93C0000D93C0000CC
:1000E000D93C0000D93C0000D93C0000D93C0000BC
:1000F000D93C0000D93C0000D93C0000D93C0000AC
:1001000053B94AB9002908BF00281CBF4FF0FF317E
:100110004FF0FF3000F074B9ADF1080C6DE904CE7A
:1001200000F006F8DDF804E0DDE9022304B07047D2
:100130002DE9F047089E0D4604468846002B4DD118
:100140008A42944668D9B2FA82F252B101FA02F3B5
:10015000C2F1200120FA01F10CFA02FC41EA030885
:1001600094404FEA1C45210CB8FBF5FE1FFA8CF7B2
:1001700005FB1E8341EA03430EFB07F199420BD9AD
:100180001CEB03030EF1FF3080F01E81994240F218
:100190001B81AEF1020E63445B1AA4B2B3FBF5F00F
:1001A00005FB103344EA034400FB07F7A7420AD9D2
:1001B0001CEB040400F1FF3380F00881A74240F2F9
:1001C000058164440238E41B40EA0E4000211EB160
:1001D000D4400023C6E90043BDE8F0878B4208D92C
:1001E000002E00F0EE800021C6E900050846BDE8BB
:1001F000F087B3FA83F100294AD1AB4202D382429D
:1002000000F2F980841A65EB030301209846002E62
:10021000E2D0C6E90048DFE702B9FFDEB2FA82F2B7
:10022000002A40F09180A1EB0C054FEA1C471FFA11
:100230008CFE0121B5FBF7F307FB1350250C45EAB3
:1002400000450EFB03F0A84208D91CEB050503F19D
:10025000FF3802D2A84200F2CB8043462D1AA4B246
:10026000B5FBF7F007FB105544EA05440EFB00FE12
:10027000A64508D91CEB040400F1FF3502D2A645BF
:1002800000F2BB802846A4EB0E0440EA03409EE740
:10029000C1F120078B4022FA07FC4CEA030C20FA3C
:1002A00007F405FA01F31C43FD404FEA1C4900FA2C
:1002B00001F3B5FBF9F8200C1FFA8CFE09FB185569
:1002C00040EA054508FB0EF0A84202FA01F20BD9FC
:1002D0001CEB050508F1FF3A80F08880A84240F247
:1002E0008580A8F1020865442D1AA4B2B5FBF9F087
:1002F00009FB105544EA054500FB0EFEAE4508D942
:100300001CEB050500F1FF346CD2AE456AD902380A
:10031000654440EA0840A0FB0294A5EB0E05A54207
:10032000C846A64656D353D05EB1B3EB080265EB80
:100330000E0505FA07F722FA01F3CD401F43C6E97F
:1003400000750021BDE8F087C2F1200320FA03F117
:100350000CFA02FC25FA03F395400D434FEA1C47C3
:100360001FFA8CFEB3FBF7F107FB11302B0C43EAAD
:10037000004301FB0EF0984204FA02F408D91CEB8A
:10038000030301F1FF382FD298422DD9023963447B
:100390001B1AADB2B3FBF7F007FB103345EA034578
:1003A00000FB0EF3AB4208D91CEB050500F1FF384A
:1003B00016D2AB4214D902386544ED1A40EA014125
:1003C00038E73146304607E78646E5E61846FAE65E
:1003D0004B45A9D2B9EB020864EB0C0E0138A3E738
:1003E0004046EAE7204694E74146D1E7D0467BE71E
:1003F000023B654432E7084609E76444023842E7B5
:10040000704700BF0000000070B5434DD5F824319F
:10041000996811F0010186B021D101AA40F603408C
:1004200005F05EF80446002873D1019B9B681B7899
:1004300093B9BFF35B8F2B4653F8982FBFF35B8FB5
:1004400002F00502BFF35B8F53E8001F43E8002072
:100450000028F9D1BFF35B8F019818F04DFD01AA78
:10046000002141F2030005F03BF80446002850D17A
:10047000019B2A489968082201311DF0C7FA0198AA
:1004800018F03AFD214601AA41F2010005F028F8D2
:10049000044600283DD1019883685A7885F83420B5
:1004A000D9789A7842EA0122EA861A7985F83520C5
:1004B000197ADA7942EA01222A875A799B7942EA43
:1004C00003236B8718F018FD214601AA41F20200B0
:1004D00005F006F80446E0B9019B114899684022EE
:1004E00001311DF093FA0E481DF03AFB019818F007
:1004F00003FD95F840305B061AD40A4B0A490B48B5
:10050000C91AC908890141F001011BF072FD6FF0A1
:100510001204204606B070BD000000203C00002000
:1005200044000020000E0200E00E020042370200EC
:10053000214601AA42F2030004F0D2FF044600283B
:10054000E7D1019BBE489968082201311DF05EFA8F
:10055000019818F0D1FC214601AA42F2020004F0F1
:10056000BFFF04460028D4D1019B9B68B3F801204B
:10057000A5F8CC2091B221B1DA78B24811461FF02B
:10058000CBFE019818F0B8FC95F8406016F02006F4
:1005900000F0CE8095F860301E0712D501AA002128
:1005A00042F21C0004F09CFF04460028B1D10198DF
:1005B0008368D3F80120D3F80530C5E92A2318F061
:1005C0009BFC95F8A0305C060FD501AA002142F2F1
:1005D0002A0004F085FF044600289AD10198836818
:1005E0005B7885F8E83018F087FC082142F20100BA
:1005F00004F0B4FD0446002800F0A180082108445E
:100600001FF063FB95F8A01011F0400F024640F276
:10061000022308BF032388074CBF43F02C0043F09C
:100620000C008B0695F8A13048BF40F0400013F055
:10063000090F95F8663018BF40F4006003F0060318
:10064000CE0748BF40F01000062B08BF40F4C07032
:1006500000211DF01AFB2146002242F2010004F0A5
:100660003FFF044600287FF454AF95F840309806C9
:100670001ED4B5F8CC10D9B901AA41F2050004F096
:100680002FFF044600287FF444AFB5F8CC3063B99F
:10069000019B9B685A78997842EA0122A5F8CC2000
:1006A0009A88684811461FF037FE019818F024FC1C
:1006B000082140F6014004F051FD044600283ED0D8
:1006C000082108441FF001FB95F8A030D907024625
:1006D0004AD559A1D1E900011DF0D7FA21460022DF
:1006E00040F6014004F0FCFE044600287FF411AF00
:1006F00001466A464FF6014004F0F2FE524C534B5D
:10070000E41AE408A40198B3514844F002011BF034
:1007100070FC05F043FF044600287FF4FAAE07F0B2
:10072000D3F8044600287FF4F4AE05F081FAF0E631
:10073000022140F66D4004F011FD044610B96FF03F
:100740006804E6E6022108301FF0BFFA01230370B7
:1007500046702146324640F66D4004F0C1FE044624
:1007600000283FF417AFD4E63A484FF00051B3E702
:10077000009B39489E68B6F80120032A96BF374986
:10078000374951F8221044F003031BF053FCB6F82C
:100790000110B6F80320022944F003032ED1032AE6
:1007A0002CD8304951F822102F481BF043FC7279A5
:1007B0002E48032A96BF2E49294951F82210CDE927
:1007C0000112B2790392B6F807200492D6F80920F4
:1007D000059244F00303052201A91BF060FC009878
:1007E00018F08AFB6A4600214FF6024004F078FEBA
:1007F000064628B11F4844F0020188E71849D3E7AC
:10080000009B1D489968022201311DF0FFF80098F5
:1008100018F072FB95F885305B077FF57AAF6A4672
:1008200031464FF6034004F05BFE48B3134844F0F2
:1008300002016CE7AFF30080908800020080002086
:10084000A0000020D0000020E00E0200000E0200F8
:1008500066370200108800028A370200C8140200BE
:10086000A132020088140200A3370200BB37020045
:1008700000150200E8370200850000201138020050
:10088000009B05489968012211441DF0BFF80098AB
:1008900018F032FB3DE700BF84000020000000009C
:1008A0002DE9F041D0E90B35866A5C193034A64257
:1008B0008846174618D81C4DA3FB050118A3D3E999
:1008C0000023FFF71DFCA41B20F07F40C8F80000A8
:1008D00013A3D3E90023A4FB0501FFF711FC20F0CB
:1008E0007F403860BDE8F0810F4C0DA3D3E90023B1
:1008F000A6FB0401FFF704FC05F1300120F07F4066
:10090000C8F8000006A3D3E90023A1FB0401FFF708
:10091000F7FB20F07F403860BDE8F081AFF3008046
:100920008D49FD1A0700000000CA9A3B0000000034
:100930002DE9F04F8FB0002800F04281AD4C94F8C3
:100940006A6016F0010636D194F8292094F8353003
:1009500094F82500FF2104EB820204EB830384F862
:10096000261000F00300D2F82C80D3F8389015F050
:100970004DF894F86A00410700F10E81B8F1000FBC
:1009800011D09C4841460FF0C9FB98F800305A0638
:1009900005D506210AF00EFF002800F0CF8195480A
:1009A00049460FF0BBFB98F8003013F00E0F40F0F3
:1009B000DF80236A23B10C2630460FB0BDE8F08FEC
:1009C0000EF064FC8246002800F0C2810EF06AFC42
:1009D0008346002800F0C18110F092FA05460028F5
:1009E00000F0B881406F4FF6FF732B8505F11C03B3
:1009F000002800F0A98105F1680205F164010B935C
:100A00000AF0E4FEB5F860207B4B22F4EF6222F09E
:100A1000070242F4887242F00102A5F8602095F8BE
:100A2000392002F03F0262F07F0285F8392095F804
:100A30007A2022F0070285F87A2095F83C2022F0EF
:100A4000070285F83C2095F8D82022F0070285F8A7
:100A5000D8204FF01B120027C5E916230622A5F85F
:100A6000C020C5E912776F67A5F87870EF852F630E
:100A700085F83B702F65A5F8C470A5F8C870A5F877
:100A8000D070A5F8CC70A5F8E47085F8E670C5F8CC
:100A90000871A5F80C71A5F820710DF033FD95F8DB
:100AA0003A21A5F8387122F0030285F83A2195F829
:100AB0007A20A5F8407122F0180285F87A2095F87E
:100AC000662185F8437122F0070285F8662195F8C2
:100AD0008621C5F844A167F3041285F8862195F8AC
:100AE000AE21A5F8647167F3C302C5E94A0100218C
:100AF0000020C5E94C0185F8AE2185F8D970A5F82C
:100B00008471C5F8E070A5F8AC71A5F8B87110F063
:100B100039FDA5F8D20010F03BFDD5F8BC11374ADD
:100B2000A5F8D4000A40C5F8BC2110F037FD95F8AF
:100B3000C02160F3020285F8C02110F035FD0B9B47
:100B4000236295F8C031C5F8C47160F3C503C4E9E8
:100B500018ABC5E97477C5E97277C5E905772F70D9
:100B6000ED6185F8C03115F08DFF002840F0E88078
:100B700094F824300121C3F342030DF133008DF8C2
:100B800033300AF09DFF00283AD1236A002B3FF44E
:100B900012AF0FF02BF80EE7C0F3C000324604F19D
:100BA0006B0115F09DF8FF2884F826003FF4E6AEAF
:100BB000304614F045FFB8F1000F7FF4E2AEF2E6E4
:100BC0000C4B93F86A20D4077FF5F5AE1A6A5AB138
:100BD00092F8201041F0020182F820101B6A93F86D
:100BE0002030D8073FF5E7AE0FB0BDE8F04F0FF06B
:100BF0003FB800BFBC1E0020480148010000FFF6BE
:100C000099F80110024640460FF0D6F85849E461C1
:100C100000253123A360C4E9055553A3D3E900237C
:100C2000A0FB010125706560E560FFF769FA2061AE
:100C3000B4F868900CF052F80746B9F1000F08D1EB
:100C400098F8005005F00F05A5F10105B5FA85F5F6
:100C50006D0994F8240065F3000010F0010584F894
:100C6000240033D02369434ADFF80C910493002019
:100C700002250DF13408019305920321CDE902000C
:100C800006943B460090CDF82080CDF81C902A4673
:100C90000D950BF057FF41460EF088FB00287FF4BE
:100CA00074AF364A05924AF2D8320092CDE9030079
:100CB000CDE90100CDF81C90CDF8208006943B468C
:100CC000012203210D950BF03DFF2AE006940295C9
:100CD00023692B4A2B48049303F247131360A9FBA3
:100CE0000001912303FB0911234B0793214B05932B
:100CF0004FF6FF7309924FF0020903930DF1340888
:100D000019A3D3E90023CDF83490CDF82080FFF764
:100D1000F7F93B46CDE900504A46284603210BF03F
:100D2000BBFE41460EF042FB00287FF42EAF94F844
:100D30006A3043F0010384F86A303DE612263BE650
:100D40000EF054FF032637E605F16C00686752E6A3
:100D5000072631E658460EF0ABFA50460EF09CFAE4
:100D6000072629E6AFF300808D49FD1A0700000031
:100D700000CA9A3B75F90000A5E5000059F800008B
:100D8000301F0020002AE78470B590F824308AB024
:100D9000C3F342030D46044601210DF1230016461C
:100DA0008DF823300AF08CFE7178024628460FF049
:100DB00003F81D491AA3D3E90023A0FB0101FFF7A3
:100DC0009FF923699842054620D21B1A00220192FE
:100DD000164A0293164BA21AA3FB02320221920971
:100DE00000230A4409AE099112490591CDE9033364
:100DF0000321D2B20696009318460BF015FF314638
:100E00000EF0D4FA48B925610AB070BD02D9C21AF1
:100E10000023DCE700200AB070BD0C200AB070BDD2
:100E20008D49FD1A0700000000CA9A3BBC1E002035
:100E300009CB3D8DA5E500002DE9F04FC38D468E11
:100E40001E4490F80E310E4413F007038BB0044695
:100E5000B6B240F09181B0F8E8909046A6EB090256
:100E60001FFA82FB120400F1FA8190F93920002A5E
:100E70000F46C0F22C8194F8E43084F8E53094F801
:100E8000842194F8853194F80C1184F80D11934263
:100E900006D094F8863103F00703052B00F0478253
:100EA000A74BD4F808511A68944204BF00221A6074
:100EB000002D00F030812868002800F02C81628D20
:100EC000B4F810314168C4F808119342B4F8122103
:100ED00000F00581B4F81411B4F828C0EB83162390
:100EE0002B710023A5F806C02A8469842B77294634
:100EF0000EF0E4F90EF0ECF9A368002B0ADAE168D1
:100F0000626823F0004391422CBF88449044A36060
:100F1000A8EB0308608DB4F8105110FB0BF080B201
:100F2000B0FBF5F115FB01F39BB298421FFA81FA71
:100F300080F09A811B1A834940F2E24003FB00F0E3
:100F4000A0FB01017CA3D3E90023FFF7D9F820F02F
:100F50007F408044E18D94F93930A9EB0609D144F2
:100F60000F444F44E785002B40F2E24707FB05F6AC
:100F7000C0F28C81744A7549754840F60E331AF0F8
:100F8000F9FB404080F311884FF0030002DF002797
:100F9000B346704AB4F814316F48B4F81211A18501
:100FA0003244B2FBF6F2A4F8C62042F2107202FB01
:100FB00003633044013BB0FBF6F0B3FBF6F6B4F844
:100FC0001031638583B2881D8342A4F8C260A4F8FF
:100FD000CE3002DD5B1A063B9BB2A4F8CA3094F80F
:100FE0000E311B0744BF0023A4F8C43002210120A6
:100FF00017F0CCFC00220221814601200AF036FCC9
:1010000056494FF4F07220460AF0C0FB00F1030A83
:101010005FFA8AFA524B00945246012100200BF0ED
:101020001BFE30F002030CD0474A4E49484840F6B8
:101030003D331AF09FFB404080F311884FF00300CE
:1010400002DF404EABFB066B3BA3D3E900233046E7
:101050005946FFF755F8089420F07F45069442481A
:1010600023690493A5FB0001072303FB05113F4BF4
:1010700007933F4B0593301A4FF6FE736BEB01015C
:1010800003934FF47A720023FFF73AF84346CDE911
:10109000015000975246012100200BF053FD30F023
:1010A00002030CD0284A2F49294840F657331AF03A
:1010B00061FB404080F311884FF0030002DFB9F17B
:1010C000000F40F02E8100200BB0BDE8F08F90F8AB
:1010D000D920002A3FF4CFAE80F8D930CFE6A18DD9
:1010E0009142B4F814117FF4F7AE40F2E24C0CFBDD
:1010F00003FE42F2107C0CFB01EC0CF1FF3CBCFB4C
:10110000FEFCB4F8C2E01FFA8CFCE6457FF4E4AEC6
:1011100001232B71EBE60C4A16490D4840F6922349
:101120001AF028FB404080F311884FF0030002DFE3
:101130002868C4E6AFF300808D49FD1A070000005F
:10114000501F002000CA9A3BA41D0200A4180200F0
:101150000C180200FF5962027FC3C9012010002051
:1011600069070100841E02008D49FD1A1107010064
:10117000ED4E0100701E020001200EF0AFF8074690
:10118000002800F0E2807E480AF0CAFA05460028EE
:1011900000F0DB807B4B1A68002A00F0CE800EF056
:1011A000BBF82B793A68D4F80811516043F0030377
:1011B000C4F8087100212B710C236B71E97194F84C
:1011C0001C312B72A38DD4F818211E446E4BA3FB47
:1011D0000232B4F81031A5F80B30920AB4F812318B
:1011E000A5F80920A5F80D3094F80E21B4F81431B3
:1011F000A5F80F300636D4F8C431B6B261F3020256
:10120000A4F8E86084F80E21A5F81160C3B194F841
:101210006621900714D494F8BF21D10710D4D4F8D4
:10122000D0219342D4F8C82100F0928062B91A7993
:1012300002F00302032A00F09880C4F8C83105E0E8
:10124000D4F8C821002A7AD0D4F8CC311A682A60A0
:101250001D602B68C4F8CC510BB9C4F8D4516FF0A1
:1012600076000BB0BDE8F08F05FB110140F2E243C0
:10127000464889B203FB01F1A1FB00013EA3D3E97B
:101280000023FEF73DFFA8EB000863E6226CA36C89
:1012900002FB1B33A36415F047FC054694F8D80005
:1012A000C0F3C20015F042FC054406FB05F5384BBF
:1012B00094F81C2105F5742505F23F25A3FB05359F
:1012C000AD0C07FB02F2A36C226505FB0AF0720865
:1012D0000344963A934228BF13462564A6EB050BB8
:1012E0002A4DC4E911230023C4F8E030A0FB050116
:1012F00021A3D3E90023FEF703FF2349A8EB00084D
:10130000D4F81801A1FB0030800A07FB00F01AA3F3
:10131000D3E90023A0FB0501FEF7F2FE20F07F4792
:1013200037E60122022110460AF0A0FACBE600239C
:1013300084F88521A4F8C830B2E51C602FE72B6043
:10134000C4E97155C4F8CC5186E76FF06800BBE67C
:101350001968C4F8D011002A7FF476AF1A682A60A1
:101360001D602B68C4E9725576E7DA79032AF5D057
:101370000A2A7FF462AFF1E78D49FD1A07000000E9
:10138000DC1F0020501F00205917B7D100CA9A3B1C
:1013900083DE1B43000000002DE9F04F0B68D2F8FC
:1013A00000A01B6897B00C460B93037F00F11E0151
:1013B000C3F380130546174614A806228DF847305C
:1013C0001CF024FB94F81290B9F1FF0F12AE59D023
:1013D00032460DF14701484614F0ACF89DF847300D
:1013E00002338DF847302946032251F82E3B0A93E9
:1013F00007F1080007F1040B1CF008FB07F11808BF
:10140000042205F12A0158461CF000FB052205F1D3
:101410003A0140461CF0FAFA404605210AF050FB1A
:101420007B7F95F83F1000F03F0060F305037B776A
:10143000C1F30403BB77B5F83480A7F80E80012808
:101440001FFA88F201F01F0305D91B3303F01F03B5
:101450000B2B00D8E2B997F820300A986FF30003FD
:10146000012687F820302E71646829460DF026FF8A
:101470002068267121460DF021FF0DF029FF17B0DD
:10148000BDE8F08F062214A930461CF0BFFAAAE787
:1014900023680020586095F8363095F8370043EA05
:1014A00000233B829AF8D830490961F3C503698E5D
:1014B0008AF8D83040F2E24303FB02F80D9115F0B0
:1014C00033FB0C909AF8D800C0F3C20015F02EFB45
:1014D0000C9ABB49024408FB02F202F5742202F2A4
:1014E0003F22A1FB0232920C7A6295F83120398AB0
:1014F00040F2E24302FB03F3BB634FEA5803963B1F
:10150000BB622B8FAF4AADF83A3018464244AE4B1F
:10151000B2FBF8F2AAF8C62082B242F2107000FBC9
:1015200002824344013A881DB2FBF8F2B3FBF8F3A0
:10153000AAF8C2209AB28242AAF8CE2002DD521A3C
:10154000063A92B2AAF8CA20594604220AF1DC00EF
:101550001CF05CFA4FF480722B7FAA830B9A92F8EE
:101560002600C3F340120F920C9214F04BFD00289A
:1015700000F0EB80062205F1240105F12B001CF0A0
:1015800045FAB9F1FF0F00F0E78014A9062205F132
:1015900025001CF03BFA9DF84730AB773146062218
:1015A00005F11F001CF032FA9AF8D830FA896A86E1
:1015B0003A8AAA86C3F3C203BDF83A2085F83830C8
:1015C000EA8650460FF0A8FC2946B881E880656895
:1015D0000A980DF073FEBB89EB8019232B710C9BCD
:1015E0002E68002B40F0C7809DF83C302B772946B1
:1015F00030460DF063FE0DF06BFE97F84500B7F82E
:101600004050B7F84260012100F0070015F09EF845
:101610002E4406F5E176311881466C4800263123C8
:10162000CAF80830A1FB000163A3D3E90023CAF87C
:101630000460CAF80C60FEF763FD7B6A0D9AE568EA
:1016400020F07F40A8EB030840F2E24303FB025581
:1016500002213246CAF8100001200AF007F90B9F58
:1016600038460EF017FD821C594B0097D2B2304617
:1016700001210BF0F1FA05F2B2450128A5EB0905AD
:1016800000F084800B9B93F82430DB076BD450462A
:101690000FF042FCDFF83491A8FB098646A3D3E99A
:1016A0000023834631464046FEF72AFDA368CDF865
:1016B00018A00BF10304A3F13A0B464B0793464BDA
:1016C00005934FF4E1730893DAF81030049320F097
:1016D0007F4742480023A7FB000103930723B8EB91
:1016E000000003FB071166EB01014FF47A7200233F
:1016F000FEF706FD30A3D3E90023CDE90170A5FB79
:101700000901FEF7FDFCE4B220F07F4000905B464B
:101710002246012100200BF015FA30F002030CD014
:101720002F4A3049304840F2C3131AF023F84040A2
:1017300080F311884FF0030002DF012202211046DE
:101740000AF094F817B0BDE8F08F0146062205F1C3
:101750002B001CF066F914E70622002105F1250094
:101760001CF05FF917E70023012200931846114689
:101770000BF072FA8BE77B7F43F040037B77584690
:1017800013F0D0FC0123F8832B7730E70DF04CFEEB
:101790000B9B83423FF476AF114A1449124840F242
:1017A0005F2319F0E7FF404080F311884FF00300FA
:1017B00002DF67E7AFF300808D49FD1A07000000E4
:1017C00083DE1B43FF5962027FC3C90100CA9A3BF3
:1017D000B14E0100814E0100ED4E01008D49FD1A10
:1017E000AC1F0200841E02000C180200042002003C
:1017F00070B51448144E18F0F5FB30601148134CC6
:1018000018F0F0FB20600F48114D18F0EBFB034679
:101810002860306898B122688AB183B10D2119F02F
:1018200049FF0E21206819F045FF28680F2119F0A3
:1018300041FF0028ACBF00206FF0010070BD4FF0E9
:10184000FF30FBE774270200E0130020E4130020C0
:10185000E81300200129024607D0022908D051B917
:10186000054B0D21186819F033BF044B0E21F9E721
:10187000034B0F21F6E77047E0130020E41300202C
:10188000E813002010B505480C4619F073FF631EDD
:101890005C425C41024B1C7010BD00BF7B27020004
:1018A0000C290020014819F065BF00BF8E270200F7
:1018B00010B50C460848098819F05CFF6188074894
:1018C00019F058FFA188064819F054FFE18805482F
:1018D000BDE8104019F04EBFB0270200C827020033
:1018E000E1270200F927020010B50C4604480978E8
:1018F00019F040FF61780348BDE8104019F03ABF85
:10190000122802002628020038B5074815461C4652
:1019100019F030FF2946054819F02CFF21460448EC
:10192000BDE8384019F026BF3A28020054280200CA
:101930006928020010B50C460848098819F01AFFFA
:101940006188074819F016FFA188064819F012FFB0
:10195000E188054819F00EFF012010BD7D28020026
:101960009A280200B7280200CF2802002DE9F04192
:101970000E46BDF818800C481C46154619F0FAFEB4
:10198000F76808EB0406142E0ADC2246294607EB0A
:1019900008001CF03BF80023BB552046BDE8F08151
:1019A0006FF00604F9E700BFE62802002DE9FF41C9
:1019B000D1F80C8005460A481F460C46164619F019
:1019C000D9FE1423CDE90183BDF8283000933246B7
:1019D0003B46214628461DF055FC04B0BDE8F08189
:1019E000F428020008B5044819F0C4FE0021BDE83F
:1019F00008400846FFF72EBF0129020037B504460C
:101A000029B1134803B0BDE8304019F0B3BE114D01
:101A1000114819F0AFFE28680090694620461CF076
:101A20000CFD011E02DA0D4819F0A4FE6868019051
:101A300001A920461CF0F1FC011E02DA084819F049
:101A400099FE00210120FFF705FF03B030BD00BF64
:101A50001F290200C00F02003F2902004A2902008C
:101A60005F29020070B58AB0FFF7C2FE002004F0C3
:101A70007FF9064630B101462D480AB0BDE87040F6
:101A800019F078BE2B4D2C4819F074FE0FCD04AC24
:101A90000FC42B682360294900963346022204A80C
:101AA00004F0E6FF0446002836D00146244819F029
:101AB00061FE2448244D254C07F040FB244805F0E6
:101AC00035FD4FF40040002119F0E2FA2B78002B8D
:101AD000F7D023781F480133DBB2632B08BF002304
:101AE000237021788DF80F1019F044FE1822002180
:101AF00004A81BF096FF184B05930DF10F030693F6
:101B000004A901230020ADF81C3007F06FFD014649
:101B1000124819F02FFED4E7114819F02BFE0121CD
:101B20000846FFF797FE21462046FFF793FEC0E7E1
:101B300073290200C80F020093290200C810020096
:101B4000AA290200D00100200C290020222900200F
:101B5000AC010020F2290200EC100200FE29020074
:101B6000D02902000B6801330B60014B1B6818473A
:101B7000D8010020014B1860704700BFD801002039
:101B800007B50B46002102460191034801A900F068
:101B9000F9F803B05DF804FB651B000030B585B0B3
:101BA000CDE901010446002501A90548039500F08F
:101BB000E9F8DDE902309842B8BF255405B030BDE0
:101BC0004FB701002DE9F84FB0F8189019F0080848
:101BD000044693460DD001290CBF49F0100949F085
:101BE0002009A0F818908BF31188BFF36F8FBDE820
:101BF000F88F09F00709022907D1204619F0D4FD12
:101C00000028F0D00128238B4ED16769218B002F4B
:101C100015DA256821F00701C4E9008841F00101C7
:101C200021830026218B01F0070ACA4502D0A36850
:101C3000002B5AD10DB9002E71D0002356E001F0CF
:101C400007035A1F012A1ED821F00701062B256819
:101C500089B2C4E900880AD13DB1638B2A46126873
:101C600001339BB2002AFAD1638341F00201218340
:101C7000204619F099FD06460028D3D0238B43F067
:101C800020032383CDE7042B0CD121F0070189B277
:101C90002183204619F088FD05460028C1D041F077
:101CA000200121830025BCE7032809D1226923F004
:101CB0000703166843F00603238300252F46B1E788
:101CC000042806D1226923F00703566843F0040371
:101CD000F2E7052806D1226923F00703966843F04E
:101CE0000503E9E700252E46E8E7012341F0080156
:101CF00021838BF31188BFF36F8FFBB985BB16B1BE
:101D00001F492046B0474FF02003EFF3118B83F3B8
:101D10001288BFF36F8F238B23F008032383238B59
:101D2000DA0625D523F0100323830121B4F8189097
:101D300009F0070900297FF45EAF54E7A168002984
:101D4000DCD0D1F80090D1F804B03B465246204692
:101D5000D847B9F1000FD1D04946D9F80090F2E741
:101D600029463B46524620462D6819F039FDC5E705
:101D700013F020011EBF23F0200323830221D5E7A7
:101D80000DB801002DE9F04F91B08B4602909246BC
:101D90001C4600259AF8000008B928465FE325286C
:101DA0000AF1010707D0029B594698470028C0F264
:101DB0005683013512E2182200210AA81BF031FED9
:101DC0009AF80130252B78D000221046964694468A
:101DD0001646394617F8013B2B2B00F09D8000F288
:101DE0009480202B00F09B80232B00F09B802EB151
:101DF0009DF8306046F004068DF83060BCF1000FAD
:101E000005D09DF8306046F008068DF83060BEF1D0
:101E1000000F05D09DF8306046F010068DF8306058
:101E200028B19DF8300040F020008DF830002AB134
:101E30009DF8302042F040028DF830209DF830208F
:101E400002F04400442803D16FF386128DF830204D
:101E50009DF830202A2B42F080028DF830207BD173
:101E60009DF8312042F001024B1C8DF831201A7888
:101E70002E2A9DF831200CBF0121002161F341027F
:101E80008DF8312074D15A782A2A6AD00133002182
:101E90000A26184610F8012BA2F13007092F40F24C
:101EA0008E809DF830200E91C2F3400040EAD1713F
:101EB00061F341028DF830205AE00AF102078DF8F3
:101EC00033309DF83130D90740F1498154F8049BF3
:101ED000B9F1000F07DA9DF8302042F004028DF8C6
:101EE0003020C9F100095A0740F1428154F8048BAF
:101EF000B8F1000F80F241819DF831306FF341035A
:101F00008DF831304FF0FF3837E12D2B0CD0302BCE
:101F10007FF46DAF01225CE74FF0010C59E74FF001
:101F2000010E56E7012054E7012652E70CFB02029E
:101F3000303A33461E4616F8010BA0F13007092F40
:101F4000F4D9994293D09DF830100D92D20F62F3DC
:101F500041018DF830108AE70B4600224FF00A0C41
:101F6000E8E79DF8312042F004028DF83120023379
:101F70001F4617F8012B6C2A41D025D8682A2BD090
:101F80006A2A46D04C2A4CD01F4617F8012B9DF8E0
:101F900031308DF83320782A00F2D980572A4DD875
:101FA000412A03D0453A022A00F2D1809DF832300E
:101FB000042262F302038DF8323001239EE006FB17
:101FC00001213039034664E7742A26D07A2ADBD10E
:101FD0009DF8313006220DE05A78682A9DF83120AC
:101FE00006D1012161F3C6028DF831209F1CCCE798
:101FF0001346022262F3C6038DF83130C5E75A78E2
:102000006C2A9DF8312001D10421EBE7134603220D
:10201000F0E79DF831300522ECE79DF831300722DA
:10202000E8E7BDF8303023F4F04323F0020343F433
:10203000804343F00203ADF83030A6E7A2F1580127
:10204000202900F2848001A050F821F01121000025
:102050004F2100004F2100004F2100004F210000C0
:102060004F2100004F2100004F2100004F210000B0
:10207000AD1F00004F21000011210000D120000001
:10208000AD1F0000AD1F0000AD1F00004F2100007C
:10209000D12000004F2100004F2100004F210000FF
:1020A0004F210000192100001121000035210000FE
:1020B0004F2100004F210000352100004F2100007A
:1020C000112100004F2100004F21000011210000CC
:1020D0009DF83210012003F0780360F30201402BD9
:1020E0008DF8321002BF9DF8301041F001018DF8DB
:1020F0003010632A31D1003B18BF01239DF83020F6
:10210000C2F340010B4363F341028DF83020D8E65F
:102110009DF832100220DEE79DF8322003F07803AC
:10212000A3F14000032161F3020243428DF8322003
:102130004341E3E79DF83220032113F0780F61F368
:1021400002028DF8322014BF01230023D6E79DF848
:10215000303043F001038DF830300023CEE79DF995
:102160003020002AB4BFDDF834904FF0FF39BAE6D2
:102170009B077FF5C7AEDDF838809DF8311000234E
:10218000CDE90D339DF8323003F00703012BC1F385
:10219000C30138D1CB1E042B22D8DFE803F003099A
:1021A0000921210054F8043BDA17CDE90A3206E090
:1021B000073424F00704F4E80223CDE90A239DF84C
:1021C000303013F0030656D002983B46524659462B
:1021D00019F0B5FE0028C0F242810544BA46D9E59F
:1021E00054F8043B01294FEAE372CDE90A3205D1E4
:1021F0009DF828300A9300230B93E0E70229DED1F3
:10220000BDF92830D0E7022B23D1CB1E042B13D8E5
:10221000DFE803F0030A0A12120022680A92002380
:10222000201D0B930446CAE7E01D20F00700F0E8EC
:102230000223CDE90A23F5E754F8043B0A93012968
:102240004FF000030B93D3D00229B8D1BDF828304A
:10225000D0E7042B09D1E31D23F0070303F10804A1
:10226000D3E90023CDE90A23A9E7032B04BF54F8DF
:10227000043B0A93A3E79DF833007828AED8622880
:1022800022D825283FF48FAD5828A7D10DF1260379
:102290000093DDE90A0104AB0CAA19F00AFE82469C
:1022A000B8F1000F0DF126000CDB9DF83020A0EBFB
:1022B0000A036FF3861298458DF8302002D9A8EBF7
:1022C00003030D9380463DE06338152886D801A2AC
:1022D00052F820F055230000B9230000DD21000052
:1022E000DD210000DD210000DD210000B923000018
:1022F000DD210000DD210000DD210000DD210000E6
:1023000013240000E1230000E5230000DD2100008C
:10231000DD2100002D230000DD210000E12300006D
:10232000DD210000DD210000E1230000B8F1000FF5
:10233000DDF828A00ADB414650461BF041FB0AEBC2
:1023400000080026BAF1000F0CD147E750461BF0F9
:1023500030FBF4E70A9B8DF8103000260DF1100ACF
:102360000DF11108A8EB0A0306B101339DF83220E4
:10237000D00668D5023352060D9948BF0E9A0B4419
:1023800048BF9B18B9F1000F76DD9DF83020A9EB0E
:102390000309C2F38003039353076DD4500661D53C
:1023A00046B1029B594630469847002857DB039BAD
:1023B00001351E46302356E01E070FD413F01006D9
:1023C00018BF2026DDE90A23002BBFF65FAF52427B
:1023D00063EB4303CDE90A232D2657E72B26F1E7CC
:1023E000002653E70A9840B30DF1260300930CAA88
:1023F00004AB002119F05DFDBDF8323003F0EF03AE
:1024000043F4F04343F010038246ADF83230002627
:1024100046E70A9B07293FF6E1AEDFE801F00C042E
:10242000060C08080C0C1D70D8E61D80D6E6EA17CD
:10243000C3E90052D2E61D60D0E6DFF8C8A0064628
:102440000AF105088EE7110748BF013393E71846E4
:1024500003935946029B98470028039B04DA11B066
:10246000BDE8F08F20234D444A46002AA5EB090120
:1024700009F1FF39EBDC0D4636B1029B5946304677
:1024800098470028EBDB01359DF83230D90601D49E
:102490001A0706D5029B5946302098470028DEDBF4
:1024A00001359DF83230DB0607D59DF83300029BDD
:1024B000594698470028D2DB01350D9E2E44731BE8
:1024C000002B16DC029843465246594619F037FD58
:1024D0000028C4DB0544A944A9EB0503002B7FF7C2
:1024E0007DAE029B5946202098470028B7DB013576
:1024F000F2E7029B5946302098470028AFDB0135B0
:10250000DDE700BF0F2A020030B51049104889B03E
:1025100000221EF07DF90F4D0F4900220023CDE966
:10252000062300240E23CDE90334CDE901440B4BEF
:1025300000944FF44072284617F03AFF08492846A5
:102540001DF007FE204609B030BD00BF6525000024
:10255000E808002020090020A02E0020E928000023
:10256000152A0200014818F0AFB800BF5407002038
:1025700010B50B4B00221A700A4B0B4A1A604FF42D
:10258000004000F0C1FC00F073FA084819F0EEFCBE
:10259000BDE8104006490748082348221DF08FBDBA
:1025A00024290020DC010020ABBF0100F81300202B
:1025B000085600200014002010B54FF02003EFF360
:1025C000118483F31288BFF36F8F044819F0DEFC87
:1025D00084F31188BFF36F8F10BD00BFF813002084
:1025E000064BBFF35B8F53E8002F013243E8002115
:1025F0000029F8D1BFF35B8F704700BFF0130020B4
:102600000020064BBFF35B8F024653E8000F43E800
:1026100000210029F9D1BFF35B8F7047F013002030
:10262000F8B5FFF7EDFF0A4C0A4D2D1B07462D119B
:102630000026AE4200DBF8BD63685B792BB12368EE
:102640001B6913B139462046984701361034F0E72C
:10265000580F0200780F0200044A054B9B1AB1EB99
:10266000D30F34BF52F8310000207047000E020033
:10267000580F0200094A4368801A10B50011084C2F
:1026800019600130012218715A71237813B9054875
:1026900018F01AF80123237010BD00BF580F020074
:1026A000232900205407002070B5124BBFF35B8F25
:1026B00053E8005F6A1C43E800210029F8D1BFF30A
:1026C0005B8F2DB90C4C0D4E361B3611B54200DB1D
:1026D00070BD237B53B123689B690BB1204698479B
:1026E0006368042219682046FFF7C4FF01351034DF
:1026F000ECE700BFF4130020580F0200780F02002F
:10270000164B984237B5044602D3154B984220D356
:1027100014480022002301A917F0EAFD0546D8B9A4
:102720000122019BBFF35B8F53E8001F43E80020A9
:102730000028F9D1BFF35B8F019821464122043074
:102740001BF025F9019C7E2384F8453084F846501F
:102750000434204603B030BD034CFAE71C0B0200E2
:1027600058480200001400201D2A020050B1064BF8
:10277000984206D303F5107398422CBF0020012025
:1027800070470020704700BF085600202DE9F04F29
:10279000474B1B7885B0044603B900B3FFF70CFF25
:1027A000054678B1BFF35B8F424B53E8002F013AE7
:1027B00043E800210029F8D1BFF35B8F9CB1284684
:1027C00019F0FDFC2CB93C4B1B68002B01DDFFF719
:1027D00027FF3A4819F0D8FB041E18BF01242046F1
:1027E00005B0BDE8F08F364B1B78E3B92B7ADB07D9
:1027F00019D419F0F7FC0746284619F0BEFC01462B
:10280000384619F0D6FBDFF8BC802F4BDFF8BCB0A0
:10281000A3EB0803DB0803932D4BA3EB0803064649
:102820004FEAD30A36B92B4E2B4FBF1B3F114FF047
:1028300000083AE0B6FA86F1C1F11F094946284678
:1028400019F09EFC254B9842014602D3244A90423F
:102850001AD30846FFF78AFF0246A8B9214B9942CE
:1028600012D06B890399C3F389138B4238BF58F890
:1028700033204FEA8A1343F00103ADF80030494694
:102880003B46584619F0EFFB012303FA09F126EA0B
:102890000106C7E773685B7923B1336829465B6833
:1028A0003046984708F101081036B845F2DB86E754
:1028B00023290020EC130020F0130020F81300203F
:1028C00024290020000E0200580F0200372A0200BF
:1028D000200F0200580F0200780F02001C0B0200AC
:1028E000584802001D2A020010B5FFF7DDFE18F05F
:1028F000E9FB0C4B186030B10B4B1B68092B02DD58
:102900000A4817F0E1FE094C0020FFF73FFF0028BE
:10291000FAD14FF0FF324FF0FF33204617F0FAFEA6
:10292000F2E700BF1C140020EC1300205407002025
:10293000294B37B51B68418104469847E0604FF04A
:102940002003EFF3118583F31288BFF36F8F2348C1
:10295000214619F00FFB85F31188BFF36F8FBFF38A
:102960005B8F1F4B53E8002F013243E80021002901
:10297000F8D1BFF35B8F1B4A127882B14FF020036E
:10298000EFF3118483F31288BFF36F8F0020FFF7FA
:10299000FDFE84F31188BFF36F8F03B030BD124A80
:1029A0001B681268002AF8D0012B0AD100220023EC
:1029B000CDE900230D484FF40042002318F07AFDC2
:1029C000EBE70A2BE9D109481DF02EFF084803B0B8
:1029D000BDE8304017F078BEDC010020F81300207D
:1029E000EC130020242900201C140020E8080020FB
:1029F00054070020F8B50E4F3D7875B90D4C0E4EBA
:102A0000FFF752FE361B3611B54207DB0020FFF7F9
:102A1000BDFE0028FAD101233B70F8BD63685B79E5
:102A20001BB1236820465B69984701351034EBE7FA
:102A300024290020580F0200780F020007B504383F
:102A40000190BFF35B8F50E8003F5A1E40E8002121
:102A50000029F8D1BFF35B8F012B03D1034801A9F3
:102A60001DF048FB03B05DF804FB00BF001400201C
:102A70002023024902481A461DF021BB4858002075
:102A80002014002037B50023094D01930120FFF7E2
:102A90007DFE0446FFF7A4FD0022002301A928467D
:102AA00017F026FC08B1002CF0D1019803B030BD1E
:102AB0002014002007B500230193074800220023BB
:102AC00001A917F015FC10B1FFF7DCFF0190019888
:102AD00003B05DF804FB00BF20140020F0B5037ABA
:102AE00085B0DC0701901ED4457A2D091BD0002447
:102AF00026460198314619F043FB0746FFF736FE9C
:102B000070B134B9019B2946186919F052FA04468C
:102B100048B124FA06F3D90702D53846FFF78EFFED
:102B20000136AE42E5D3019B1A7A920704D55B6960
:102B3000084C0393039B2BB9064801A91DF0DAFA50
:102B400005B0F0BD1D6803A920461DF0D3FA03951A
:102B5000F0E700BF201400200EB403B503AB01461C
:102B600053F8042B04480193FFF70CF902B05DF809
:102B700004EB03B0704700BF9DC501002DE9F0478D
:102B80001D46089B1746DA0604460E4605D49906EC
:102B90004CBF2A492A49FFF7DFFFDFF8A8904FF022
:102BA0000008A8452ADBDFF8A080DFF8A090DFF856
:102BB00094A00025BD422FD2725D49462046FFF702
:102BC000CBFF0135102D20D12149DFF87880DFF8C7
:102BD00084902046FFF7C0FF0025AF4228D9725DE0
:102BE000A2F120035F2B28BF2E2249462046FFF783
:102BF000B3FF0135102D14D1BDE8F08749462046BA
:102C0000FFF7AAFF08F10108CBE76A07D2D15146C6
:102C10002046FFF7A1FFCDE741462046FFF79CFF86
:102C2000CFE76B07D9D141462046FFF795FFD4E7A0
:102C300041462046FFF790FFDBE700BF7B2A0200FA
:102C40007A2A0200852A0200832A02007D2A0200D5
:102C5000872A0200892A02002DE9F04F87B011F07F
:102C6000020605929DF84080BDF9489007461A4635
:102C700001F0010A01F0080506D011F0440F38D127
:102C80003349FFF769FF0646BAF1000F0AD0314B0E
:102C9000314953F82820314B3846002A08BF1A46DC
:102CA000FFF75AFF3DB12E4B2E4953F828203846E6
:102CB000FFF752FF0546B9F1000F16DB059B002B0D
:102CC00043D0012303FA08F8274B284C18F0100FC3
:102CD00018BF1C4649469DF84400FFF7BDFC21463D
:102CE00002463846FFF738FF0544A81907B0BDE88B
:102CF000F08F1F4B196831B31E4B4FF461661B6890
:102D0000B2FBF3F34FF47A7BB3FBF1F4B4FBF6F2CE
:102D100006FB124601FB14340BFB04F44FF03C0C91
:102D2000B4FBF1FEB6FBFCF301FB1E440CFB136687
:102D30000BFB04F40096B4FBF1F1CDE901E10E497F
:102D4000FFF70AFF9FE708469DE7084CC2E700BF70
:102D50009A2A020028110200DA3602008C2A0200A8
:102D60003C110200BF2A0200962A0200912A0200AA
:102D70003C14002040140020A32A020038B50C4661
:102D8000E107054603D5084A0849FFF7E5FEE206D4
:102D900008D4A30628464CBF05490649BDE838407B
:102DA000FFF7DABE38BD00BF8C2A0200DA36020017
:102DB0007B2A02007A2A02002DE9F0478B7A13F071
:102DC00007088AB005460E46174622D00A7A498976
:102DD000C3F3C203C1F38911D243CDE90083029149
:102DE000F36802F001023946FFF736FF8146347A74
:102DF000E44314F001040ED02946304619F064FA79
:102E0000B8F1000F2BD0424639462846FFF7B6FFEF
:102E100025E0C146EBE7B8F1000F26D12746EB6865
:102E2000069306AA3B46A968304619F039FA069A75
:102E30006B681A603AB1AB68134413F8014CA4F103
:102E40000A035C425C41284619F09BFB069B1F4429
:102E5000002BE4D11CB114492846FFF77DFE28461B
:102E60000AB0BDE8F04719F08CBB304619F0BAF94A
:102E70000E4902462846FFF76FFE4FF0100A05AADA
:102E8000234606A93046CDF814A019F009FA059A90
:102E9000002AB8D04B46009706A92846FFF76EFED9
:102EA000059B1C44EBE700BFC52A0200DA3602008E
:102EB00073B542F20F738B4228BF0B4605680F4A69
:102EC00004460521684618F062FC63680C495B689B
:102ED00006460B22284619F0EAF96368324669462D
:102EE00028465B6819F0E3F9636806495B681B22B2
:102EF000284619F0DCF902B070BD00BF163302009D
:102F0000032B0200E72A0200084A10B50123084CEF
:102F100013600021A04204D801B11360054B186072
:102F200010BD40085B000121F4E700BF4014002001
:102F300040420F003C140020F8B5074F0D460446F0
:102F40004618B44201D12846F8BD386814F8011B70
:102F500083685B689847F4E758140020014819F02B
:102F600010BB00BF6C1102000148FFF7A1BF00BFFA
:102F70006C11020008B5034817F034F8024B1860D2
:102F800008BD00BF0F2B02005814002010B50846E2
:102F90000C4619F0E5F8054821460F22FFF70CFF13
:102FA0002046BDE8104019F00AB900BF6C110200BC
:102FB000014B01221A70704736290020024B03484A
:102FC00001221A7019F0DDBA372900209811020089
:102FD0000148FFF76DBF00BF9811020010B5084609
:102FE0000C4619F0BDF8054821460F22FFF7E4FE14
:102FF0002046BDE8104019F0E2B800BF9811020069
:10300000054B1B781BB141F288301DF0D2BBA420C8
:10301000002118F03DB800BF372900202DE9F04706
:10302000DFF88C90DFF88CA080460F46042499F8D6
:103030000050CDB94FF0FF334FF0FF32504617F03C
:1030400055FA3A464146284616F056FF064650467F
:1030500017F0C4FA184DFEB101232B7099F8003017
:103060006BB93846BDE8F0873A464146002016F075
:1030700043FF0646EEE75CB92C704FF0FF340020AA
:1030800016F086FF0028ECD02B78002BF3D1E8E770
:10309000013CFFF7B5FFF2E72B7813B1013C04D1F7
:1030A0002C702B78002BC2D1DBE7FFF7A9FFF8E7E4
:1030B0003729002028070020362900201FB50724C3
:1030C0000294044C0194BDF8184000941CF0DAF806
:1030D00004B010BDCB060020F8B505464FF0200324
:1030E000EFF3118683F31288BFF36F8F094B1C68CF
:1030F0005CB1094FD4E90132002D08BF13460BB172
:10310000387898472468002CF4D186F31188BFF3EF
:103110006F8FF8BD70140020781400201FB50F4B7E
:103120001A68BAB901221A600D4A07CA01AB83E8CE
:1031300007000C4A4AB193E807001AF091FC0020FE
:1031400005B05DF804EBFFF7C7BF82F31188BFF34A
:103150006F8FF4E705B05DF804FB00BFF8010020B5
:103160007814002061DA0100F0B589B06E4601469E
:103170000546304619F047FA96E80700174C84E8F0
:1031800007002078274638B3154B002119606B1CC7
:103190000DD0144816464FF4004C134A0023E6FBAA
:1031A0000C01FCF7ADFF0121281A1DF0E2FA17F01F
:1031B000F1FC0120FFF790FF97E8070005AB83E8DB
:1031C00007000A4A1AB193E807001AF036FCFFF725
:1031D000A5FF17F097FD207809B0F0BD7814002006
:1031E000F80100203F420F0040420F003BDA01008F
:1031F00010B50748074C16F0F5FE074B186020463F
:1032000001F0F8F82046FEF7B5FC002010BD00BF25
:103210000F2B02001D320000841400200A2838B54C
:10322000074D044604D1286883680D215B689847E0
:1032300028688368E1B25B689847204638BD00BFC4
:1032400084140020084B70B5C31A0D4607499B1023
:10325000044659430648402219F0F6F92B46014628
:103260002046BDE8704018479C140020B76DDBB6BF
:10327000940B020073B50C4C0C4A4023041B0093C2
:103280000D460B460A49A41061430646094819F049
:1032900008FA011E05DA30462B4602B0BDE8704040
:1032A000184702B070BD00BF9C14002011C7010078
:1032B000B76DDBB6940B0200002270B50121044605
:1032C000104600F021FC002000F0ECFB0F4816F047
:1032D000D1FC0F4B984215D11CF03AFE26690D49DE
:1032E000304618F0B0FA00280BDB246909490125A3
:1032F000356404F11C0018F0A6FA002801DBE5642F
:10330000002070BD6FF00400FBE700BF4D330000EC
:103310000000AD0B6012020001460C2309484B432C
:1033200070B5C418D4E90E5600224033A263184485
:1033300019F077F92DB132462B460348BDE87040AD
:10334000184770BD9C140020940B020010B1012896
:1033500004D07047034B1B6C5B0701D1FFF7DCBF48
:10336000704700BF9C14002008B54FF02003EFF316
:10337000118183F31288BFF36F8F124A136843F0F1
:10338000020013F0010310600CD04FF08042D2F81D
:103390000C34D2F80C2413F0010303D00A4819F0BE
:1033A00040F9012381F31188BFF36F8F23B1BDE88A
:1033B00008400020FFF7B0BFBDE8084001201CF026
:1033C000D1BD00BFEC140020DC1400207FB500222A
:1033D0000123CDE9022304ABCDE90433094ACDF83A
:1033E00000D06B46CDF804D019F08BF9002805DB2E
:1033F0004FF480420023684617F08CF907B05DF85F
:1034000004FB00BF2FC70100094BBFF35B8F53E8DC
:10341000002F22F0020143E800100028F7D1BFF38B
:103420005B8FD30702D4012016F034BC704700BF75
:10343000EC140020024AC3B21C2003FB002070479A
:103440009C140020094BBFF35B8F53E8002F42F020
:10345000010143E800100028F7D1BFF35B8F930709
:1034600002D401201CF07EBD704700BFEC14002088
:10347000094BBFF35B8F53E8002F22F0010143E8B3
:1034800000100028F7D1BFF35B8F930702D401200F
:1034900016F000BC704700BFEC1400202DE9F0418D
:1034A0003949BFF35B8F0746012251E8003F41E8ED
:1034B00000200028F9D1BFF35B8F33B9334934487A
:1034C0004B60CB608A6018F0D1F97B1E012B2FD89E
:1034D000012F07D14FF08043D3F81C3403F00303CE
:1034E000012B25D01CF02FFE044618B9294B1B7860
:1034F000002B41D14FF02003EFF3118683F31288A4
:10350000BFF36F8F0124DFF890804FF08045D5F82E
:103510001834D5F81824D2030CD503F00303012B7B
:1035200001D0012F06D10CB386F31188BFF36F8F42
:10353000BDE8F081ACB1304600F072FAD5F818352C
:10354000002BE4D1D5F80421002AE0D0C5F80431DD
:10355000D5F804310123C5F81835C8F88031AB60BF
:10356000D5E70021212017F093FDE7E74FF08043D6
:103570000222C3F80423DBE74FF080430222C3F8A2
:1035800008230646BFE700BFF01400208C1400207B
:10359000B8140020972E002000E100E0044A1368D0
:1035A000C81A20F07F400344136017F0E5BE00BF47
:1035B000041500202DE9F843860006F1804600F14D
:1035C000500406F58836A400A4B204F180444FF4F8
:1035D0008037D6F84035DFF86C8021F07F4504F560
:1035E00088348740D8F80495A3EB090323F07F4380
:1035F00029F07F42012BC6F8402502D113201DF08F
:10360000D8F809F10202AB1A23F07F43B3F5000F9B
:1036100088BF1546002323602368C8F8447325F04B
:103620007F43C6F84035D8F80435994506D0EB1AE3
:10363000023B23F07F43B3F5000F01D8BDE8F883C8
:103640002B46CFE70010014070B5154D154C0026F4
:103650002B68002006B170BDD4F80423D203FAD53C
:10366000D4F84021002AF6D0C4F84061D4F84021B3
:103670004FF48032C4F84823D4F84015D4F80465D8
:10368000721A22F07F42B2F5000F88BF3146012640
:103690001BB16A6828609847DAE72B60DBE700BF58
:1036A000F81400200010014038B50F4C00254FF4ED
:1036B0008033C4F80855C4F804330C4B4FF400327F
:1036C000C3F8802101212A46112000F01DFA1120A3
:1036D00000F0E8F90123064AA3600220236013608A
:1036E000FFF7DCFE284638BD0010014000E100E095
:1036F00000150020134AB0F1FF3F14BF03461346E4
:10370000013B002B1CDD9342A8BF13460E4AD2F8A2
:1037100004050E4A1168401A10F4000F20F07F4291
:1037200018BF002301321344094A0A4810600020E0
:103730005060044A934294BFC9188918FFF73ABFF2
:103740000023E3E7FFFF7F00001001400415002085
:10375000F81400209D350000044BD3F80405044BF9
:103760001B68C01A20F07F40704700BF0010014066
:10377000041500204FF02003EFF3118283F3128829
:10378000BFF36F8F0649074B0868D3F8043582F3FF
:103790001188BFF36F8F1B1A23F07F4318447047C3
:1037A0000415002000100140014B1868704700BF4D
:1037B000FC010020F0B5082289B019F074F9CB6A39
:1037C00003930B6B04934B6B05938B6B0693CB6B43
:1037D000079313466A460C460646002711461046D4
:1037E000CDE90177009719F06BF831460546304670
:1037F00019F066F8216B0391616B0491A16B05913F
:10380000E16B0544CDE906171046114619F058F84A
:1038100031460544304619F053F80544206A0090BB
:10382000606A0190A06A0290A06B0690E06B07901E
:103830003046CDE90477039719F042F80544606AF1
:103840000090A06AD4F838C00190E06A0290CDF8E8
:1038500010C0606BD4F83CC00390CDE905C0206A6D
:103860000790304619F02CF80544E06A0090206B70
:103870000190606B0290206A0690A06A0790304623
:10388000CDE90477039719F044F9236B0093636B38
:103890000193A36B0293E36B0393636A0693E36A5A
:1038A00007932D1A08233046CDE9047719F031F932
:1038B000636B0093A36B0193E36B0293236A0393FF
:1038C000636A0493A36ACDE90537236B07932D1A26
:1038D0000823304619F01DF9A36B0093E36BCDE983
:1038E0000137636A0393A36A0493E36ACDE905375A
:1038F000636B07932D1A0823304619F00AF92D1A25
:1039000010D40D4C35B908223146204619F0D7F8AD
:1039100001280FD0082322463146304619F0F9F825
:103920002D1AEFE7044A08233146304618F0C8FF45
:103930002D18F8D409B0F0BD701202000449431EDE
:103940000F3013F8012F8A5C1A708342F9D1704747
:10395000882B0200F0B5264E07460C460FCE8DB0E0
:1039600001AD0FC50FCE0FC596E8070085E807002B
:103970003846002F38D0002C38D0381F2146024658
:1039800010344B780D781B0443EA0563CD782B4344
:103990008D78043143EA05238C4242F8043FF0D18C
:1039A000144C04218A07036916D1C3F30742A55CAE
:1039B0001A0EA25C42EA0562C3F30725DBB2655D1D
:1039C000E35C42EA054242EA03220CAD21F0030324
:1039D0002B4453F82C3C534050F8042F01315340F2
:1039E0002C290361DED101200DB0F0BD2046FBE79C
:1039F000DC0F0200882B0200014910220A60704788
:103A000010ED00E072B6404080F31188BFF36F8F75
:103A1000BFF34F8F30BF62B6BFF36F8F704700BFE9
:103A200072B6494081F3118820BF80F3118862B6D5
:103A3000704700BF73B506460C4601B3134B144DD7
:103A40001448ED1AED08AD0145F00105ADF8005040
:103A5000D1E90123096818F006FBADF80050D4E95C
:103A60000423E1680C4818F0FEFAE1690B482A4685
:103A700018F0CCFAA1690A482A4618F0C7FA21467C
:103A8000304602B0BDE8704016F0EEBA000E0200FB
:103A9000380F0200882C0200B72C0200E62C02002E
:103AA000F52C020043B2002B08DB012200F01F00BE
:103AB00002FA00F05B09024A42F82300704700BF97
:103AC00000E100E043B2002B0DDB01225B0900F0B6
:103AD0001F0002FA00F02033034A42F82300BFF32C
:103AE0004F8FBFF36F8F704700E100E0054B420935
:103AF00000F01F0053F82220012303FA00F01040C9
:103B0000704700BF00E100E043B2002BA8BF03F103
:103B1000604301F10101B8BF064B4FEA4111ACBF50
:103B200003F5614300F00F00C9B2B4BF195483F824
:103B30000013704714ED00E008B572B6044B186A24
:103B400018B100221A621CF00BFB62B608BD00BF60
:103B5000A028002030BFFFF7FDBF00BF0E4A08B508
:103B60000E4B22F07F029A60BFF34F8FBFF36F8F2F
:103B7000D3F8882022F47002C3F88820EFF314836E
:103B800023F0040383F3148816F0CCFA17F014FB27
:103B900000F016FB16F0EAFA0000000000ED00E06D
:103BA000094A0A4993680968D967094998674B68BF
:103BB00043F080534B60002383F31188BFF36F8F72
:103BC0009368D86F704700BFA02800205C270200D0
:103BD00000ED00E012498A684FF030001044EFF326
:103BE000098C80E8F01F202080F31288BFF36F8FCC
:103BF0000C4F4FF000664A6A8A603E60906F002367
:103C0000936780F3118804B5104600F01BFBBDE8F4
:103C1000044002F1300090E8F01F8CF309887047EF
:103C2000A028002004ED00E01EF0040F0CBFEFF30D
:103C30000880EFF30980816911F8021C0229FFD086
:103C400001B519F08BFE01BD42F8203C009B42F803
:103C50001C3C0A49019B42F8183C029B42F8143C68
:103C600021F001014FF0807342F8043C42F8081C37
:103C70000023203A02658367704700BF49B90100FD
:103C8000094A0346906870B113F1160F806E05D093
:103C9000A0F120029A4205D8834203D2814228BF74
:103CA0000020704700207047A028002008B5094B6D
:103CB00098600D46144600F0C5FA204685F3098841
:103CC000002163B681F31188BFF36F8F00220023B8
:103CD00017F03AFEA028002001B572B60B4A106A10
:103CE00000281EBF002111621CF03AFA62B6EFF301
:103CF0000580A0F110004FEAC0000549014409C940
:103D00009847BDE80140034908470000A02800206B
:103D10003C0C0200193D0000044B9968586A884227
:103D200003D003494FF080520A607047A02800205A
:103D300004ED00E02DE9F047354B364C364DE41AE2
:103D4000E408A40144F0010907468846334849467F
:103D5000164618F04EF9AB6ADB0603D530484946E3
:103D600018F047F9AB6A180704D52E4844F0010152
:103D700018F03FF9284DAB6A990723D46FF0150965
:103D8000254DAB6ADB0704D5274844F0010118F044
:103D900030F9AB6A980604D5244844F0010118F0C4
:103DA00028F91D4B9A6AD10624D49A6A920721D425
:103DB0000020194A936A43F0FF0393620023337093
:103DC000BDE8F08744F0010A1948514618F011F98E
:103DD000D5F83490AB6A1A06D0D5164852464946F3
:103DE00018F014F9B8F1000FCAD0AB6A23F08003C1
:103DF000AB62C5E75B681B05DAD539464846FFF775
:103E00003FFF0028D4D080F309880220D1E700BF0B
:103E1000000E0200380F020000ED00E0232D02002A
:103E2000392D02006C2D0200AD2D0200CC2D0200B8
:103E30007F2D0200972D020070B5234B234C244D9B
:103E40002448E41AE408A40144F00106314618F0BD
:103E5000D0F8AB6A9B0103D51F48314618F0C9F86A
:103E6000AB6ADD0104D51D4844F0010118F0C1F82A
:103E7000174DAB6A180304D5194844F0010118F036
:103E8000B8F8AB6A590304D5164844F0010118F09C
:103E9000B0F80F4DAB6A9A0304D5134844F0010102
:103EA00018F0A7F8AB6ADB0304D5104844F0010111
:103EB00018F09FF8064A936A6FEA03436FEA1343C8
:103EC0009362002070BD00BF000E0200380F020098
:103ED00000ED00E0FB2D0200132E0200262E020052
:103EE000402E02005E2E0200832E02009D2E020054
:103EF0002DE9F0412A4B2B4C2B4DE41AE408A40188
:103F000044F0010807460E462848414618F071F86B
:103F1000AB6AD90403D52648414618F06AF8AB6A63
:103F20001A0504D5234844F0010118F062F81E4D2B
:103F3000AB6A9B0512D544F001081F48414618F0B2
:103F400058F8A96BAB6A180408D51C48424618F00B
:103F50005DF81FB1AB6A23F40043AB62124DAB6A4C
:103F6000590504D5164844F0010118F042F8AB6A2F
:103F7000DA050DD5134844F0010118F03AF80A4A61
:103F8000936A002043F47F4393623070BDE8F08170
:103F9000AB6A9B04F3D50C4844F00101EDE700BF88
:103FA000000E0200380F020000ED00E0C82E0200F3
:103FB000DE2E02006C2D0200EF2E0200082F020000
:103FC0001D2F0200382F0200CC2D02002DE9F043F6
:103FD000654B5E688BB00D46C6F30804002787F377
:103FE0001188BFF36F8F02F07F43B3F17F4F0DD184
:103FF00002F00C03082B0BD15C495D4B5D48C91ADC
:10400000C908890141F0010117F0F3FF3D4603E0C3
:10401000120701D40546012700238DF80730E31E5F
:10402000092B00F28880DFE803F005757972868637
:104030008686867D4E4A4D4EDFF82C814E48B61A54
:10404000F608B60146F00106314617F0D2FFD8F85F
:104050002C404FF0000914F002048DF8079005D0B1
:104060004648314617F0C5FF002407E0D8F82C3049
:10407000002B1DDA4248314617F0BBFF9DF8073090
:104080009BB92022294602A819F0C0FC099B002FE9
:1040900065D0C3F3080222B96FEA53236FEA4323C2
:1040A000099302A92046FFF7C5FC0BB0BDE8F083D9
:1040B000D8F82C305B00E1D53248314617F099FF33
:1040C000AB6933F8022C4DF602739A420AD098F885
:1040D000283073B10DF1070201212846FFF72AFEAF
:1040E0000446CBE729682848324617F08FFF2C6832
:1040F000C4E798F829302BB10DF107010120FFF733
:10410000F7FEEDE7B8F82A309BB2002BB6D0FFF7E8
:1041100093FEE5E70DF107020021DEE70DF107014F
:104120000020ECE71149124B1848C91AC908890147
:1041300041F0010196E70E4A0C4B154815499B1AB0
:10414000DB0816F4F87F4FEA831318BF014643F0EB
:1041500001031148A4F1100217F06CFF84E723F467
:10416000FF7323F001039BE700ED00E0380F02002E
:10417000000E0200502F02007B2F0200922F02003F
:10418000B32F0200C12F0200E02F0200FC2F02001B
:1041900035300200203002004E300200024A5369DE
:1041A00043F010035361704700ED00E0EFF3088027
:1041B000EFF3098101B57246FFF708FF01BD00BFAB
:1041C000044800232021C2180133302B82F8001349
:1041D000F9D1704700E100E01CF09AFC202080F348
:1041E000118808484FF40261401880F30988EFF302
:1041F00014800221084380F31488BFF36F8FFFF708
:10420000ADFC000080440020064B9B68834207D130
:10421000EFF3058323B1044A536843F0805353609E
:1042200016F066BFA028002000ED00E0024B034A14
:104230000348012100F08CB8000004200000002099
:104240001C130200826E054B203A1A60044A20219A
:10425000C3E901121846012100F084B808150020B6
:1042600000000B15F8B52A4F0E460021B14214DAB2
:104270004468002C48D0C3B104F1FF3C14EA0C0F91
:104280000DD0244A244B2548D21AD208920142F07C
:10429000010217F0BBFE6FF015021046F8BD1F2C8F
:1042A000EFD905681CEA050FEBD1202CD5B2D0F868
:1042B00008C0026816D9B4F1004F15D8013CB4FA11
:1042C00084F4C4F11F046400072D4CEA04040DD9E2
:1042D000104A114B1248D21AD208920142F0010240
:1042E0002946D6E70824EFE73E24EDE722F01F0237
:1042F0002A4342F0100244F00104C7F89850C7F86E
:104300009C20C7F8A0406A1C01310C30AEE700BF0A
:1043100000ED00E0280F0200000E020065300200F0
:1043200088300200044B0522C3F89420BFF34F8F5E
:10433000BFF36F8F704700BF00ED00E0BFF35F8FEA
:10434000024B0022C3F89420704700BF00ED00E04C
:1043500010B5034C01232278FFF784FF207010BDB5
:104360003829002008B5094A00231278FFF77AFFA0
:1043700010F1160F03D0064B0022072800DD08BD00
:10438000C3F89800C3F8A0200130F6E738290020D0
:1043900000ED00E014490868082810B521D8FFF79F
:1043A000CDFF124C49680022904201F10C0105D169
:1043B0000F4B1870FFF7B6FF002010BDC4F898200F
:1043C00051F80C3C23F01F03134343F01003C4F8CF
:1043D0009C3051F8043C43F00103C4F8A030013292
:1043E000E2E74FF0FF30E8E72813020000ED00E0BD
:1043F00038290020014B1860704700BF00020020E0
:104400004FF02003EFF3118283F31288BFF36F8F15
:1044100006490123C1F840354FF08041C1F8783595
:1044200082F31188BFF36F8F0020704700E00140D6
:1044300020B1034B800143F001031847704700BFD0
:10444000C01002000E4B402970B528BF40210D4C12
:1044500046181D46B04203F1020304D1002305F8BB
:104460001130074870BD02781209A25C03F8022CD3
:1044700010F8012B02F00F02A25C03F8012CE9E70F
:10448000572900200631020030B503788BB004466E
:1044900007AD032B21D8DFE803F0021A1C1E1249D6
:1044A000284619F06AFA63780493A3780393E378B3
:1044B000029323790193637900930C4AA3790595BC
:1044C0001E210B4817F063F909480BB030BD0949AC
:1044D000E6E70949E4E70949E2E7094A0A212846EB
:1044E00017F055F9DFE700BFC1300200E3300200EA
:1044F00039290020C8300200CF300200D930020034
:104500005245020070B5214CBFF35B8F2368BFF3A7
:104510005B8FDA0706460D4601D50C2070BD0129D8
:1045200031D8BFF35B8F54E8003F43F0020244E808
:1045300000210029F7D1BFF35B8F9B07EDD414480E
:10454000314619F003FB134806F1200119F0FEFA79
:10455000BFF35B8F75B154E8003F43F0040344E8B8
:104560000032002AF7D1BFF35B8F0B4816F0ACF88E
:104570000020D3E754E8003F23F0040344E800326E
:10458000002AF0D0F6E71220C8E700BF141500207B
:10459000F8290020182A00203C0700202DE9F047C8
:1045A0006A4B6B4DDFF8AC81DFF8AC91ED1AED088A
:1045B00047464FF0FF324FF0FF33484616F0AAF857
:1045C000BFF35B8FD8F80040BFF35B8F14F001049A
:1045D0005AD0DFF888A1624C624E634852462146A9
:1045E00018F0C2F8E8BBA901604841F0010117F0DA
:1045F00000FD4FF01F0A4FF0FF324FF0FF33012054
:1046000000F080F900F108060221044630461BF054
:104610005CFB3E23037042234370012130461BF0B4
:1046200054FB08230370412130461BF04EFB064625
:1046300000F801ABBAF1000F1DD04022002119F0A3
:10464000F0F9BFF35B8F57E8003F23F0010347E821
:104650000032002AF7D1BFF35B8F204601F012FA37
:10466000A7E720223146204619F0BFF90028B4D030
:104670004FF0000ABFE73C4919F068FA203106F113
:10468000210019F063FADCE7BFF35B8FD8F8003044
:10469000BFF35B8F9B078CD53049334818F029FF57
:1046A000011E38DAAA01324842F0010217F0AEFCCE
:1046B0004FF0FF324FF0FF33012000F023F900F1FB
:1046C000080A0221064650461BF0FFFA3E230370FB
:1046D00022234370012150461BF0F7FA092303708F
:1046E000212150461BF0F1FA034601303CBB1F224A
:1046F0001A70FF21202219F094F9BFF35B8F57E85D
:10470000003F23F0020347E80032002AF7D1BFF34D
:104710005B8F3046A2E71249BFF35B8FD8F80030B9
:104720001048BFF35B8F13F0040F01F120020B4B15
:1047300018BF0146104618F066F80446B8E7002294
:1047400009491A7019F002FAD7E700BF000E0200FB
:10475000E80E0200141500203C0700204813020058
:10476000D82900207A310200F82900201E310200E9
:104770004731020070B5067D044676B983681D880E
:1047800042F22602954245D00FD842F201029542EC
:104790004FD042F225039D4213D02A4BD3F8243147
:1047A00020461B69BDE87040184742F25E039D42F7
:1047B000F3D1032108301BF0A7FAA06890F840104D
:1047C0002EE0032108301BF09FFA204614F094FBE2
:1047D000BFF35B8F1C4B1A68BFF35B8F920707D543
:1047E0000C26314642F2250019F08CF9002070BDEC
:1047F000BFF35B8F53E8002F42F0010143E8001044
:104800000028F7D1BFF35B8FD307E9D40F4815F029
:104810005BFFE6E7032108301BF076FAA06831461B
:10482000FFF770FE0646204614F066FB3146284628
:10483000DAE7DA7802F07F02DA701A7922F0010200
:104840001A71AAE700000020141500203C07002080
:1048500010B588B00C4C0D4900220023CDE9062389
:1048600000230A22CDE90323CDE9013300934FF45D
:104870008F62074B204615F09BFD0649204608B085
:10488000BDE810401BF065BCA0090020C03100202D
:104890009D4500006831020030B4034608461A788E
:1048A000012A13D0022A26D072B9154A02F1100447
:1048B00052F8045B41F8045BA242F9D15B8812789C
:1048C0000A7043731B0A837330BC70470C4A02F1B1
:1048D000100452F8045B41F8045BA242F9D15B6812
:1048E00012780A70C3F3072243731B0CC3731B0AAD
:1048F00082730374E8E730BC1122194619F086B8B8
:104900009A31020038B5054605481BF07CF904468B
:1049100020B1002108301BF095F92575204638BDDF
:104920006C08002070B502460B464FF02001EFF3F3
:10493000118581F31288BFF36F8F0C480021D0F8E6
:104940000841C0F8081185F31188BFF36F8F24B9AF
:10495000BDE870400120FFF7D5BF012304F1080036
:104960002375A1811BF06EF9204670BD0000002068
:1049700070B504460F2C0D461046194605D80D2C6F
:1049800012D9BDE87040FFF7CDBF132C0CD10B48F6
:104990001BF039F9044628B1002108301BF052F908
:1049A00001232375204670BD02460B460DB1044815
:1049B000EEE7BDE870400120FFF7A4BF9408002097
:1049C000F407002070B50B4D06460FCD8EB001AC3C
:1049D0000FC40FCD0FC40FCD0FC40C2E2B68236056
:1049E0009BBF0EAB03EB8606034856F8340C0EB0A3
:1049F00070BD00BF08100200A13202000549064A3E
:104A000083680648521AD2089201197842F00202CD
:104A100017F0FCBA000E0200E00E0200A9320200FC
:104A200038B583681A7872B9B3F80140204602F0AD
:104A3000DBFB054640B9084B1A8822B96FEA0450DF
:104A40006FEA1050188038BD012102F0D5FB2846CE
:104A5000BDE8384019F026BCE8280020F8B5866883
:104A60003578F5B9B6F80170384602F0BDFB04465A
:104A700060B90C4B0C4A0D48D21AD2089201394643
:104A800042F00102BDE8F84017F0C0BAF3780373B2
:104A9000294602F0B1FB25802046BDE8F84019F018
:104AA00001BCF8BD000E0200E00E0200D13202008F
:104AB00008B5012108301BF02FF9064B064A017892
:104AC0000648D21AD2089201BDE8084042F001021D
:104AD00017F09CBA000E0200E00E0200F73202004E
:104AE00010B50A4A0A4C81898068A41AFFF7AAFC0B
:104AF000FDF706FEE408A40144F002040146224644
:104B00000448BDE8104017F081BA00BF000E020053
:104B1000E00E0200193302002DE9F84383681D8876
:104B2000B3F80290DF88B3F804801E89284602F0AB
:104B30005BFB044660B90E4B0E4A0F48D21AD208EE
:104B40009201294642F00102BDE8F84317F05EBA2F
:104B5000A0F8BA90A0F8BC80A0F8BE70A0F8C06021
:104B600002F070FC2046BDE8F84319F09BBB00BF83
:104B7000000E0200E00E02003D33020013B50D4CA2
:104B80000146052294F8330002F038FD78B90A4B4B
:104B9000586B1A8F009093F83A30ADF8042094F8CF
:104BA00033008DF806300422694602F027FD02B07A
:104BB00010BD00BF000000200810020073B502EB1A
:104BC000C303054608461178A9421AD008329A4212
:104BD000F9D18689164B174C80683146E41AFFF7E5
:104BE00031FCFDF78DFDE408A40144F00204034606
:104BF000ADF8004010483246294617F034FA02B0AA
:104C000070BD818953788B420DD9094A094B0B48F5
:104C10009B1ADB089B0143F001032A4602B0BDE862
:104C2000704017F007BA536802B0BDE870401847EB
:104C3000000E0200E00E0200833302006133020026
:104C400010B50121044608301BF066F82146034ADE
:104C50000078BDE810400A23FFF7B0BF2814020017
:104C60002DE9F043074685B09079444E88461446B6
:104C700014F084F8864216D0414B424DA07900973B
:104C8000ED1AED08019014F079F8AD0145F0020538
:104C9000CDE902062B463C480422694617F0FFF98D
:104CA00005B0BDE8F083204614F070F8374D4FF0A2
:104CB0000C0909FB00504388BB4211D0304B314EE8
:104CC0002046F61A14F062F8F60809FB0050B60107
:104CD00046F0020642882E483346394617F0AAF9B4
:104CE000204614F053F80C2606FB00504368F3B13D
:104CF000B8F1000F1BD1204614F048F806FB005015
:104D000001224068D0E90031007A01F01F06B2406C
:104D1000490930B3BFF35B8F03EB810353E8001FF6
:104D2000114343E800100028F8D1BFF35B8F204601
:104D300014F02CF80C2606FB00508368002BAFD033
:104D4000204614F023F8704305F80080204614F044
:104D50001DF806FB0055A86805B0BDE8F04315F046
:104D6000B3BCD24303EB8103BFF35B8F53E8001F57
:104D7000114043E800100028D7D0F7E7440800208E
:104D8000000E0200E00E0200A533020018150020FC
:104D9000DA33020038B50421044608301AF0BCFFAB
:104DA0004578017840882246FFF75AFF25B103482D
:104DB000BDE8384015F088BC38BD00BFF0000020C9
:104DC00038B50321044608301AF0A6FFA368057819
:104DD0001978B0F801002246FFF742FF25B10348D9
:104DE000BDE8384015F070BC38BD00BFF0000020B1
:104DF0002DE9F84F514D524BDFF84891DFF848A1AB
:104E0000ED1AED08D9F80C3050486FF35233C9F859
:104E10000C3002F0B3F9471C4A484FF0FF324FF014
:104E2000FF33394616F096FB60B14949494840F6D0
:104E30007913524616F09EFC404080F311884FF0E3
:104E4000030002DF444EDFF8FC8006F1F00B17B9D7
:104E500016F096F8D6E7D8F80C10C1F345310129C1
:104E600059D9042963D198F80C30002B57D13B480D
:104E7000002200231AF0CCFE044660B938493548B8
:104E800040F61613524616F075FC404080F3118828
:104E90004FF0030002DF4FF0FF334FF0FF32584670
:104EA00015F038FCD6F8083163B1A9012D4841F05E
:104EB000010117F09EF8D6F8080114F01DF8002340
:104EC000C6F8083120461AF0CEFEC6F80801204682
:104ED000FFF750FC0146F0B1AA01234842F001025D
:104EE00017F094F8214815F0EFFB204613F04EFF21
:104EF0001F4B0C2202FB00301F2140882246FFF787
:104F0000AFFED6F8080113F0F7FF00232046C6F8DD
:104F1000083113F0F1FF08F11408013F97E7012B66
:104F2000F9D1D8F81000383802F06EFCF3E7AA0186
:104F3000104842F0020217F069F8ECE7E00E0200B8
:104F4000000E0200040200200D34020018020020AE
:104F5000413402004A340200000000200C0100200D
:104F6000AE3102006734020082340200F0000020FB
:104F700018150020A43402002DE9F84F394D3A4BA2
:104F8000D0F80880DFF8E4A0ED1A0026ED08B1465D
:104F900098F800309E4201DBBDE8F88F08EB8603ED
:104FA000B3F801B0B3F80370584602F01DF9044697
:104FB000D8B100F1280B002F33D04FF02003EFF3CE
:104FC000118283F31288BFF36F8FE369B3B1013BA2
:104FD000E36182F31188BFF36F8F204601F0ACFFCD
:104FE000013F15F071FBBFB2E5E7AA01204842F08E
:104FF0000102594617F00AF80136C9E763692BB177
:10500000A169186860618B4208BFA06182F31188B2
:10501000BFF36F8F4BB9A90141F00101504616F063
:10502000E8FF204619F03EF9E6E74FF02002EFF3E3
:10503000118182F31288BFF36F8FDA68E261626ACE
:10504000C3F80C90C3F800904AB9C4E9083381F35F
:105050001188BFF36F8F584615F0A2FCBDE71360AF
:105060006362F4E7E00E0200000E0200E134020089
:10507000C534020073B58568B5F80160304602F0AA
:10508000B3F8044668B9294B294A2A48D21AD208EB
:10509000920142F00102314602B0BDE8704016F0C4
:1050A000B5BF2B78CBB92A79EB7843EA0223A0F875
:1050B0009E30AA796B7943EA0223A0F8A430EB79F9
:1050C0002A7A43EA0223A0F8A63002F08BF92046A0
:1050D00002B0BDE8704019F0E5B81A2BF7D1C378DB
:1050E000012BF4D1BFF35B8F031D53E8002F42F473
:1050F000806143E80015002DF7D1BFF35B8F5305A6
:10510000E5D4B4F8A030ADF80030B4F8A230ADF872
:105110000230B4F8A830ADF804306946B4F8AA30CB
:10512000ADF8063002F064FDD1E700BF000E0200CA
:10513000E00E02003D33020010B5C1E900239DF8E6
:1051400008300B720C4613F021FE034B0C2202FBBD
:1051500000335C6010BD00BF181500202DE9F0473A
:105160004FF0FF324FF0FF3306461748174D0F46FA
:105170001AF049FD044600F1080A00214FF000082A
:1051800050461AF05FFD84F81480204613F0FEFDAF
:105190004FF00C0909FB00504680204613F0F6FD45
:1051A00009FB0050C0F80880204613F0EFFD09FB12
:1051B00000550321C5F8048050461AF086FD87701B
:1051C00006802046BDE8F08744080020181500201E
:1051D00038B505460C4619B9FFF7C0FF0446F0B1D3
:1051E00040F635439D4214D12046FFF7C3FA0546E9
:1051F00068B10C4B0C4AD21AD2089201014642F017
:1052000001020A4816F002FF204613F075FE2846F8
:1052100038BD074821461AF019FD0025F7E76FF061
:105220006805F4E7000E0200E00E0200823402007E
:105230000C010020F0B585682E88B7B287B03846DB
:1052400001F0D2FF044668B9274B284A2848D21AF1
:10525000D208920142F00102394607B0BDE8F040A1
:1052600016F0D4BE02AFD5F80220D5F8063001976B
:10527000698900911AF039FB28B3122142F21A0011
:10528000FFF76CFF054670B91849174B1948C91A42
:10529000C908890141F0010116F0ABFE204619F062
:1052A00001F807B0F0BD122108301AF00EFD3946A2
:1052B00020F8026B102218F0A9FB294642F21A00CE
:1052C000FFF786FFEAE7022142F21B00FFF746FFE5
:1052D00005460028D8D0022108301AF0F6FC2946ED
:1052E000068042F21B00EBE7000E0200E00E020017
:1052F0003D330200F834020070B506460D4642F216
:1053000021000321FFF72AFF044658B90C490D4B31
:105310000D48C91AC9088901BDE8704041F0010172
:1053200016F067BE032108301AF0CFFC85700680A6
:10533000214642F22100BDE87040FFF749BF00BF9F
:10534000E00E0200000E02000F350200F7B5836880
:10535000D9789A781F8842EA0122ADF8002059795D
:105360001A7942EA0122ADF802209A79D97942EA03
:105370000122ADF804201A7A5B7ABCB242EA032318
:105380002046ADF8063001F02FFF064680B9204BCD
:10539000204A2148D21AD2089201214642F0010245
:1053A00016F034FE02212046FFF7A6FF03B0F0BD41
:1053B000694602F06BF838B91E212046FFF79CFFC2
:1053C000304618F06FFFF1E70E2142F22000FFF7A0
:1053D000C5FE05460028F3D00E2108301AF075FCF2
:1053E0000E220446002118F01CFBBDF8003063803B
:1053F000BDF80230A380BDF80430E380BDF806306C
:1054000027802381294642F22000FFF7E1FED7E7FB
:10541000000E0200E00E02003D33020038B5437B6F
:10542000072B044621D1BFF35B8F4368BFF35B8F2B
:105430009A041AD4C37823B10C4B93F8A0301B07FD
:1054400013D5022142F21600FFF788FE054660B12F
:10545000022108301AF039FC23880380294642F2E1
:105460001600BDE83840FFF7B3BE38BD000000208D
:1054700070B58568B5F80160304601F0B5FE0446A8
:1054800060B9144A144B1548D21AD2089201314619
:1054900042F00102BDE8704016F0B8BD2B7823B988
:1054A0000822E91CAC3018F0B1FABFF35B8F231D62
:1054B00053E8002F42F4005243E800210029F7D1BD
:1054C000BFF35B8F2046FFF7A9FF2046BDE8704081
:1054D00018F0E8BEE00E0200000E02003D330200AC
:1054E0002DE9F041074686B015460C4621B9FFF775
:1054F00035FE0446002857D00122002168461AF0E4
:105500000BFF204613F042FCDFF8A4800C2303FBC2
:105510000080C0F808D020461AF0A5FB01462548B7
:105520001AF094FB4FF4A0220023684615F0F2F81D
:10553000064680B1204A2149214840F2311316F035
:1055400019F92048314616F015F9404080F31188CA
:105550004FF0030002DF204613F018FC0C235843E1
:1055600018F80060BEB1184A184B19489B1ADB089E
:105570009B0143F002033246394616F05BFD20469C
:1055800013F0BAFC092E0CBF6FF06E006FF0040030
:1055900006B0BDE8F08115B12C603046F8E7204632
:1055A00013F0AAFC2846F3E76FF06800F0E700BFAD
:1055B000181500200C0100200D34020041340200B7
:1055C0004A34020029350200000E0200E00E0200FB
:1055D000493502000138C0B202289ABF014B185C5D
:1055E000002070478838020070B58568B5F8016002
:1055F000304601F0F9FD044660B90F4A0F4B1048E0
:10560000D21AD2089201314642F00102BDE8704040
:1056100016F0FCBCE878FFF7DDFF84F8B8002879C5
:10562000FFF7D8FF84F8B900204601F01DFF20469F
:10563000BDE8704018F036BEE00E0200000E020019
:105640003D3302002DE9F043B0F80190854A6FEA3E
:10565000095311886FEA13539BB2994205464FF0E4
:10566000000808BFA2F8008085B008BF4FF001080D
:1056700000F070FC2C781FFA89F7002C3AD03C2CF3
:105680002AD101F0BFF8BFF35B8F103050E8003F24
:1056900023F0400340E80032002AF7D1BFF35B8FCC
:1056A0000020FFF76BFA054660B96F4B6F497048F1
:1056B000C91AC908890141F0010105B0BDE8F043EC
:1056C00016F097BC0473002101F096FD284605B042
:1056D000BDE8F04318F0E6BD634B644A6548D21A52
:1056E000D208920142F00202214605B0BDE8F04323
:1056F00016F08CBC2B79023B012B05F1040645D832
:105700000722314602A818F081F99DF808300622D8
:10571000023B05F111010DF101008DF8083018F080
:1057200075F901238DF80030EB78012B16D102A812
:10573000FFF724FAEB78012B04460ED101F062F852
:10574000BFF35B8F103050E8003F23F0400340E888
:105750000032002AF7D1BFF35B8F64BB424A434C4F
:105760003046A41AFEF790FEFCF7CAFFE408A40135
:1057700044F00104014622463F4816F047FC1F2131
:10578000384618F092FA05B0BDE8F083EB78012BAB
:1057900004BF3A4B93F833403146204618F0FCFBE7
:1057A0000722014602A818F031F90722314668465F
:1057B00018F02CF9B8E72046072220F8889B02A9A8
:1057C00018F024F92A7EEB7D43EA0223A4F89E30E8
:1057D000AA7E6B7E43EA0223A4F8A4302A7FEB7EE4
:1057E00043EA0223A4F8A6300022EB782273244A6D
:1057F000C4F8B8204732C4F8BC20012B4FF4A4727F
:10580000E370A4F8C02017D10722694604F18F0085
:1058100018F0FCF800F0F6FF217A184DC1EBC10139
:105820000722294404F1960018F0F0F8D5F8AC30BE
:105830005B0601D501F02AF90721204601F0DCFCC6
:10584000B8F1000F03D00121204601F0D5FC20461D
:1058500018F064FD2046FFF7E1FD204618F022FD18
:1058600091E700BFE8280020000E0200E00E0200D1
:1058700065350200813502009A35020000000020E3
:1058800001011B0029289ABF014B185C08207047B2
:105890008B38020070B58368B3F801601D7830461C
:1058A00001F0A2FC044660B91F4A204B2048D21ADE
:1058B000D2089201314642F00102BDE8704016F074
:1058C000A5BB65B12846FFF7DDFF29460246204605
:1058D00001F016FE2046BDE8704018F0E3BC837866
:1058E000012B07D105F0B6FD204618F0B6F90028C7
:1058F00008BF05252846FFF7C5FF29460246204672
:1059000001F0FEFD002DE5D0084B07490948C91AF2
:10591000C908890141F0010116F06BFB29462046B8
:1059200018F005FDD6E700BFE00E0200000E0200F1
:10593000D1320200B6350200F8B58668B6F80170BB
:105940003578384601F050FC044660B9204B214AB6
:105950002148D21AD2089201394642F00102BDE82C
:10596000F84016F053BB65B12846FFF78BFF294678
:105970000246204601F0C4FD2046BDE8F84018F07C
:1059800091BC8278F378C372012A08D10BB105F07B
:1059900061FD204618F061F9002808BF052528465A
:1059A000FFF770FF29460246204601F0A9FD002DB1
:1059B000E2D0074B07490948C91AC908890141F0D3
:1059C000010116F016FB2946204618F0B0FCD3E77B
:1059D000000E0200E00E0200D1320200B6350200D5
:1059E0002DE9F041044600F1080630461AF0A4F90A
:1059F000B4F80C80B8F1010F05460CD81C4A1D49BB
:105A00001D4840F6065315F0B5FE404080F311885E
:105A10004FF0030002DF304602211AF07DF90746FD
:105A2000007818F008F9C20706460CD4104A13494A
:105A3000114840F60A5315F09DFE404080F311884E
:105A40004FF0030002DF05230D4A38782146FFF7A7
:105A5000B5F8B30707D52069A4F80C8010FA85F5CE
:105A6000A560BDE8F0812046BDE8F04113F044BADE
:105A70000D340200DC3502004A340200F535020024
:105A8000D814020070B5017D012904464BD00329CA
:105A900078D18389032B0CD8424A4349434840F2CA
:105AA000771315F067FE404080F311884FF0030034
:105AB00002DF042104F108001AF02EF9A1894288BE
:105AC0000688FF23C6F30B008A42E08263750DD07F
:105AD0003748384B1B1ADB089B01374843F001035A
