:10000000603B002015350000919A01004535000045
:100010004535000045350000453500000000000072
:100020000000000000000000000000007D32000021
:10003000453500000000000029320000299601002B
:10004000D5340000E9300100D5340000D53400007B
:10005000D5340000D5340000D5340000D53400007C
:10006000D5340000D5340000D5340000D53400006C
:10007000D5340000D5340000D5340000D53400005C
:10008000D5340000D5340000D5340000D53400004C
:10009000D5340000D5340000D5340000D53400003C
:1000A000D5340000D5340000D5340000D53400002C
:1000B000D5340000D5340000D5340000D53400001C
:1000C000D5340000D5340000D5340000D53400000C
:1000D000D5340000D5340000D5340000D5340000FC
:1000E000D5340000D5340000D5340000D5340000EC
:1000F000D5340000D5340000D5340000D5340000DC
:1001000053B94AB9002908BF00281CBF4FF0FF317E
:100110004FF0FF3000F074B9ADF1080C6DE904CE7A
:1001200000F006F8DDF804E0DDE9022304B07047D2
:100130002DE9F047089E0D4604468846002B4DD118
:100140008A42944668D9B2FA82F252B101FA02F3B5
:10015000C2F1200120FA01F10CFA02FC41EA030885
:1001600094404FEA1C45210CB8FBF5FE1FFA8CF7B2
:1001700005FB1E8341EA03430EFB07F199420BD9AD
:100180001CEB03030EF1FF3080F01E81994240F218
:100190001B81AEF1020E63445B1AA4B2B3FBF5F00F
:1001A00005FB103344EA034400FB07F7A7420AD9D2
:1001B0001CEB040400F1FF3380F00881A74240F2F9
:1001C000058164440238E41B40EA0E4000211EB160
:1001D000D4400023C6E90043BDE8F0878B4208D92C
:1001E000002E00F0EE800021C6E900050846BDE8BB
:1001F000F087B3FA83F100294AD1AB4202D382429D
:1002000000F2F980841A65EB030301209846002E62
:10021000E2D0C6E90048DFE702B9FFDEB2FA82F2B7
:10022000002A40F09180A1EB0C054FEA1C471FFA11
:100230008CFE0121B5FBF7F307FB1350250C45EAB3
:1002400000450EFB03F0A84208D91CEB050503F19D
:10025000FF3802D2A84200F2CB8043462D1AA4B246
:10026000B5FBF7F007FB105544EA05440EFB00FE12
:10027000A64508D91CEB040400F1FF3502D2A645BF
:1002800000F2BB802846A4EB0E0440EA03409EE740
:10029000C1F120078B4022FA07FC4CEA030C20FA3C
:1002A00007F405FA01F31C43FD404FEA1C4900FA2C
:1002B00001F3B5FBF9F8200C1FFA8CFE09FB185569
:1002C00040EA054508FB0EF0A84202FA01F20BD9FC
:1002D0001CEB050508F1FF3A80F08880A84240F247
:1002E0008580A8F1020865442D1AA4B2B5FBF9F087
:1002F00009FB105544EA054500FB0EFEAE4508D942
:100300001CEB050500F1FF346CD2AE456AD902380A
:10031000654440EA0840A0FB0294A5EB0E05A54207
:10032000C846A64656D353D05EB1B3EB080265EB80
:100330000E0505FA07F722FA01F3CD401F43C6E97F
:1003400000750021BDE8F087C2F1200320FA03F117
:100350000CFA02FC25FA03F395400D434FEA1C47C3
:100360001FFA8CFEB3FBF7F107FB11302B0C43EAAD
:10037000004301FB0EF0984204FA02F408D91CEB8A
:10038000030301F1FF382FD298422DD9023963447B
:100390001B1AADB2B3FBF7F007FB103345EA034578
:1003A00000FB0EF3AB4208D91CEB050500F1FF384A
:1003B00016D2AB4214D902386544ED1A40EA014125
:1003C00038E73146304607E78646E5E61846FAE65E
:1003D0004B45A9D2B9EB020864EB0C0E0138A3E738
:1003E0004046EAE7204694E74146D1E7D0467BE71E
:1003F000023B654432E7084609E76444023842E7B5
:10040000704700BF000000002DE9F041D0E90B3536
:10041000866A5C193034A6428846174618D81C4DA7
:10042000A3FB050118A3D3E90023FFF769FEA41B72
:1004300020F07F40C8F8000013A3D3E90023A4FBF9
:100440000501FFF75DFE20F07F403860BDE8F081D8
:100450000F4C0DA3D3E90023A6FB0401FFF750FEC8
:1004600005F1300120F07F40C8F8000006A3D3E971
:100470000023A1FB0401FFF743FE20F07F4038601A
:10048000BDE8F081AFF300808D49FD1A0700000040
:1004900000CA9A3B000000002DE9F04F8FB0002801
:1004A00000F05C81BA4C94F84A6016F0010636D12F
:1004B00094F8292094F8353094F82500FF2104EBB6
:1004C000820204EB830384F8261000F00300D2F8C4
:1004D0002C80D3F8389012F023FA94F84A004107A0
:1004E00000F12181B8F1000F11D0A94841460CF06C
:1004F00077FE98F800305A0605D5062108F0B4F9C1
:10050000002800F0F581A24849460CF069FE98F8F1
:10051000003013F00E0F40F0DF80236A23B10C2669
:1005200030460FB0BDE8F08F0BF020FF8246002868
:1005300000F0ED810BF026FF8346002800F0EC81EF
:100540000DF06EFC0546002800F0E381406F4FF689
:10055000FF732B8505F11C03002800F0D48105F101
:10056000680205F164010B9308F08AF9B5F8602080
:10057000884B22F4EF6222F0070242F4887242F0C4
:100580000102A5F8602095F8392002F03F0262F0E0
:100590007F0285F8392095F87A2022F0070285F845
:1005A0007A2095F83C2022F0070285F83C2095F847
:1005B000D82022F0070285F8D8204FF01B12002720
:1005C000C5E916230622A5F8C020C5E912776F6792
:1005D000A5F87870EF852F6385F83B702F65A5F837
:1005E000C470A5F8C870A5F8D070A5F8CC70A5F8AF
:1005F000E47085F8E670C5F80871A5F80C71A5F8E7
:1006000020710AF0E3FF95F83A21A5F8387122F03D
:10061000030285F83A2195F87A20A5F8407122F076
:10062000180285F87A2095F8662185F8437122F042
:10063000070285F8662195F88621C5F844A167F37D
:10064000041285F8862195F8AE21A5F8647167F348
:10065000C302C5E94A0100210020C5E94C0185F823
:10066000AE2185F8D970A5F88471C5F8E070A5F8B9
:10067000AC71A5F8B8710DF015FFA5F8D2000DF01A
:1006800017FFD5F8BC11444AA5F8D4000A40C5F8B4
:10069000BC210DF013FF95F8C02160F3020285F82C
:1006A000C0210DF011FF0B9B236295F8C031C5F8F6
:1006B000C47160F3C503C4E910ABC5E97477C5E93B
:1006C0007277C5E905772F70ED6185F8C03113F0B9
:1006D00063F9002840F00E8194F824300121C3F31F
:1006E00042030DF133008DF8333008F043FA70B354
:1006F00098F8002002F00F02022A4FD0012A00F0E1
:10070000FD8099F801301033DB00002A00F0E5800D
:10071000062A00F006814FF4DA714FF41B7301389A
:1007200001FB003146E0C0F3C000324604F14B014A
:1007300012F060FAFF2884F826003FF4D3AE30466A
:1007400012F008F9B8F1000F7FF4CFAEDFE6236AAC
:10075000002B3FF4E4AE0CF0B9FAE0E60C4B93F852
:100760004A20D4077FF5DBAE1A6A5AB192F82010FE
:1007700041F0020182F820101B6A93F82030D8075C
:100780003FF5CDAE0FB0BDE8F04F0CF0E1BA00BFC1
:10079000941C0020480148010000FFF698F8013041
:1007A0001033DB0000FB03F303F5AA730138642167
:1007B00001FB00316248E46100253123A360C4E9F4
:1007C00005555DA3D3E90023A1FB000125706560F9
:1007D000E560FFF795FC2061B4F8487009F0E0FA95
:1007E000814647B998F8005005F00F05A5F10105BD
:1007F000B5FA85F56D0994F8240065F3000010F052
:10080000010584F824003ED023694E4ADFF8388180
:100810000493002002250DAF019305920321CDE939
:10082000020006944B4600900897CDF81C802A469B
:100830000D9509F0E9F939460BF028FE002886D11C
:10084000424A05924AF2D8320092CDE90300CDE93E
:100850000100CDF81C80089706944B460122032125
:100860000D9509F0D1F939460BF010FE00287FF400
:100870006EAF94F84A30304643F0010384F84A30B2
:100880000FB0BDE8F08F069402952369304A3148D5
:10089000049303F247131360A7FB0001912303FBAA
:1008A0000711294B0793274B05934FF6FF730992C6
:1008B0004FF0020803930DAF1FA3D3E90023CDF837
:1008C00034800897FFF71CFC4B46CDE900504246A8
:1008D0002846032109F042F9C5E798F801101031C4
:1008E00003EBC103C90003F54D7301F59A7116E7D7
:1008F000122615E60CF0EAF9032611E64FF4F27120
:100900004FF47F730BE705F16C00686727E6072655
:1009100006E658460BF03CFD50460BF02DFD072631
:10092000FEE598F80120103203EBC203D10003F575
:100930004D7301F59A71F2E68D49FD1A070000002A
:1009400000CA9A3B55CA00006DB6000039C90000C4
:10095000E81C0020002AE7842DE9F04FC24D2B68E7
:100960008BB004460F469046002B00F00C82E38DBE
:10097000668E1E4494F80E313E4413F00703B6B25F
:1009800040F08E81B4F8E890A6EB09021FFA82FBD2
:10099000120400F1538294F93920002AC0F22B810D
:1009A00094F8E43084F8E53094F8842194F88531A3
:1009B00094F80C1184F80D11934206D094F8863106
:1009C00003F00703052B00F044822B68A34204BF09
:1009D00000232B60D4F80851002D00F030812868E6
:1009E000002800F02C81628DB4F810314168C4F801
:1009F00008119342B4F8122100F00581B4F81411E3
:100A0000B4F828C0EB8316232B710023A5F806C089
:100A10002A8469842B7729460BF0C0FC0BF0C8FCB4
:100A2000A368002B0ADAE168626823F00043914270
:100A30002CBF88449044A360A8EB0308608DB4F8F1
:100A4000105110FB0BF080B2B0FBF5F115FB01F378
:100A50009BB298421FFA81FA80F083811B1A834966
:100A600040F2E24003FB00F0A0FB01017CA3D3E9CC
:100A70000023FFF745FB20F07F408044E18D94F98F
:100A80003930A9EB0609D1440F444F44E785002BC8
:100A900040F2E24707FB05F6C0F27781744A7549D8
:100AA000754840F6D52317F0DDFD404080F31188EE
:100AB0004FF0030002DF0027B346704AB4F8143148
:100AC0006F48B4F81211A1853244B2FBF6F2A4F8D3
:100AD000C62042F2107202FB03633044013BB0FBBC
:100AE000F6F0B3FBF6F6B4F81031638583B2881DD7
:100AF0008342A4F8C260A4F8CE3002DD5B1A063B44
:100B00009BB2A4F8CA3094F80E311B0744BF0023EF
:100B1000A4F8C4300221012014F0C2FE00220221F8
:100B20008146012007F0FCFE56494FF4F072204642
:100B300007F086FE00F1030A5FFA8AFA524B00942E
:100B400052460121002009F0E9F830F002030CD0F0
:100B5000474A4E49484840F6043317F083FD404069
:100B600080F311884FF0030002DF404EABFB066BB1
:100B70003BA3D3E9002330465946FFF7C1FA089456
:100B800020F07F450694424823690493A5FB0001A9
:100B9000072303FB05113F4B07933F4B0593301A87
:100BA0004FF6FE736BEB010103934FF47A7200234F
:100BB000FFF7A6FA4346CDE90150009752460121BE
:100BC000002009F021F830F002030CD0284A2F4908
:100BD000294840F61E3317F045FD404080F3118848
:100BE0004FF0030002DFB9F1000F40F02C8100202C
:100BF0000BB0BDE8F08F94F8D920002A3FF4D0AEB6
:100C000084F8D930D0E6A18D9142B4F814117FF464
:100C1000F7AE40F2E24C0CFB03FE42F2107C0CFB00
:100C200001EC0CF1FF3CBCFBFEFCB4F8C2E01FFA87
:100C30008CFCE6457FF4E4AE01232B71EBE60C4A15
:100C400016490D4840F6592317F00CFD404080F33B
:100C500011884FF0030002DF2868C4E6AFF300807C
:100C60008D49FD1A07000000081D002000CA9A3BAC
:100C700024CF010064CA0100CCC90100FF596202FF
:100C80007FC3C901180E0020D1D6000004D0010096
:100C90008D49FD1A79D60000011E0100F0CF010038
:100CA00001200BF08BFB0746002800F0D8807E481F
:100CB00007F090FD0546002800F0D1800BF09CFB6A
:100CC0002B793A68D4F80811516043F00303C4F853
:100CD000087100212B710C236B71E97194F81C31A0
:100CE0002B72A38DD4F818211E44704BA3FB023243
:100CF000B4F81031A5F80B30920AB4F81231A5F807
:100D00000920A5F80D3094F80E21B4F81431A5F897
:100D10000F300636D4F8C431B6B261F30202A4F83B
:100D2000E86084F80E21A5F81160002B78D094F8C3
:100D30006621900774D494F8BF21D10770D4D4F8F9
:100D4000D0219342D4F8C82100F09480002A6AD1BF
:100D50001A7902F00302032A00F09880C4F8C8311F
:100D600063E005FB110140F2E243514889B203FB05
:100D700001F1A1FB00014AA3D3E90023FFF7C0F969
:100D8000A8EB00087AE62860F1E5226CA36C02FB70
:100D90001B33A36412F052FE054694F8D800C0F34A
:100DA000C20012F04DFE054406FB05F5414B94F8D8
:100DB0001C2105F5742505F23F25A3FB0535AD0C77
:100DC00007FB02F2A36C226505FB0AF072080344DC
:100DD000963A934228BF13462564A6EB050B344D83
:100DE000C4E911230023C4F8E030A0FB05012CA3C3
:100DF000D3E90023FFF784F92C49A8EB0008D4F8C5
:100E00001801A1FB0030800A07FB00F024A3D3E9FE
:100E10000023A0FB0501FFF773F920F07F474CE6A4
:100E2000D4F8C82102B3D4F8CC311A682A601D6006
:100E30002B68C4F8CC510BB9C4F8D4516FF07600CC
:100E40000BB0BDE8F08F01220221104607F068FDCB
:100E5000CDE6002384F88521A4F8C830B5E56FF00D
:100E600068000BB0BDE8F08F2B60C4E97155C4F881
:100E7000CC51E0E71968C4F8D011002AD3D11A6820
:100E80002A601D602B68C4E97255D4E7DA79032A19
:100E9000F5D00A2A7FF462AFF1E700BFAFF300801C
:100EA0008D49FD1A070000009C1D00205917B7D17D
:100EB00000CA9A3B83DE1B432DE9F04F0B68D2F842
:100EC00000A01B6897B00C460B93037F00F11E0136
:100ED000C3F380130546174614A806228DF8473041
:100EE00018F026FE94F81290B9F1FF0F12AE59D007
:100EF00032460DF14701484611F0A6FA9DF84730F9
:100F000002338DF847302946032251F82E3B0A93CD
:100F100007F1080007F1040B18F00AFE07F11808A2
:100F2000042205F12A01584618F002FE052205F1B7
:100F30003A01404618F0FCFD4046052107F01AFE34
:100F40007B7F95F83F1000F03F0060F305037B774F
:100F5000C1F30403BB77B5F83480A7F80E800128ED
:100F60001FFA88F201F01F0305D91B3303F01F039A
:100F70000B2B00D8E2B997F820300A986FF30003E2
:100F8000012687F820302E71646829460BF006FA96
:100F90002068267121460BF001FA0BF009FA17B010
:100FA000BDE8F08F062214A9304618F0C1FDAAE76B
:100FB00023680020586095F8363095F8370043EAEA
:100FC00000233B829AF8D830490961F3C503698E42
:100FD0008AF8D83040F2E24303FB02F80D9112F098
:100FE0002DFD0C909AF8D800C0F3C20012F028FD35
:100FF0000C9AB749024408FB02F202F5742202F28D
:101000003F22A1FB0232920C7A6295F83120398A94
:1010100040F2E24302FB03F3BB634FEA5803963B03
:10102000BB622B8FAB4AADF83A3018464244AA4B0C
:10103000B2FBF8F2AAF8C62082B242F2107000FBAE
:1010400002824344013A881DB2FBF8F2B3FBF8F385
:10105000AAF8C2209AB28242AAF8CE2002DD521A21
:10106000063A92B2AAF8CA20594604220AF1DC00D4
:1010700018F05EFD4FF480722B7FAA830B9A92F8D2
:101080002600C3F340120F920C9211F045FF002886
:1010900000F0E580062205F1240105F12B0018F08F
:1010A00047FDB9F1FF0F00F0E18014A9062205F118
:1010B000250018F03DFD9DF84730AB7731460622FC
:1010C00005F11F0018F034FD9AF8D830FA896A86C5
:1010D0003A8AAA86C3F3C203BDF83A2085F83830AD
:1010E000EA8650460CF0A8FE2946B881E88065687B
:1010F0000A980BF053F9BB89EB8019232B710C9BD9
:101100002E68002B40F0C1809DF83C302B7729469B
:1011100030460BF043F90BF04BF997F845000121ED
:1011200000F0070012F09CFA81466C48002631233B
:1011300009F25241CAF80830A1FB000162A3D3E9C9
:101140000023CAF80460CAF80C60FEF7D9FF7B6A76
:101150000D9AE56820F07F40A8EB030840F2E243D7
:1011600003FB025502213246CAF81000012007F0A5
:10117000D7FB0B9F38460BF0B9FF821C584B0097EA
:10118000D2B23046012108F0C9FD05F2B24501286E
:10119000A5EB090500F084800B9B93F82430DB0756
:1011A0006BD450460CF048FEDFF83091A8FB09865E
:1011B00045A3D3E90023834631464046FEF7A0FF0E
:1011C000A368CDF818A00BF10304A3F13A0B454B2B
:1011D0000793454B05934FF4D5730893DAF8103015
:1011E000049320F07F4741480023A7FB00010393AD
:1011F0000723B8EB000003FB071166EB01014FF476
:101200007A720023FEF77CFF2FA3D3E90023CDE9F8
:101210000170A5FB0901FEF773FFE4B220F07F40E7
:1012200000905B4622460121002008F0EDFC30F0E2
:1012300002030CD02E4A2F492F4840F2AB1317F06F
:1012400011FA404080F311884FF0030002DF0122C1
:101250000221104607F064FB17B0BDE8F08F01468D
:10126000062205F12B0018F08EFC1AE70622002159
:1012700005F1250018F087FC1DE7002301220093EB
:101280001846114608F04AFD8BE77B7F43F0400388
:101290007B77584610F0D0FE0123F8832B7736E792
:1012A0000BF032F90B9B83423FF476AF104A13499F
:1012B000114840F2472317F0D5F9404080F31188D8
:1012C0004FF0030002DF67E78D49FD1A07000000B9
:1012D00083DE1B43FF5962027FC3C90100CA9A3BE8
:1012E000C51D0100951D0100011E01008D49FD1A5B
:1012F0004CD1010004D00100CCC90100A4D10100EF
:1013000070B51448144E15F0F5FD30601148134CBB
:1013100015F0F0FD20600F48114D15F0EBFD034670
:101320002860306810B9226802B983B10D2117F026
:1013300039F90E21206817F035F928680F2117F0C8
:1013400031F90028ACBF00206FF0010070BD4FF0F4
:10135000FF30FBE714D90100D8110020DC11002078
:10136000E0110020012909D002290CD081B9094BD4
:1013700080F001020D21186817F022B9064B80F0A9
:1013800001020E21F7E7054B80F001020F21F2E781
:10139000704700BFD8110020DC110020E0110020B0
:1013A00008B5064817F05EF900210846FFF7DAFF96
:1013B0000121BDE808400846FFF7D4BF1BD9010052
:1013C00008B561B1084817F04DF901210020FFF779
:1013D000C9FFBDE8084000210120FFF7C3BF034853
:1013E00017F040F9F1E700BF39D9010059D90100E0
:1013F00070B588B0FFF784FF002004F02DF8064692
:1014000050B101461E4817F02DF90221012008B005
:10141000BDE87040FFF7A6BF1A4D1B4817F022F930
:101420000FCD03AC0FC42B682360184900963346D8
:10143000022203A804F0EAFC0146C0B1144817F0E8
:1014400011F902210120FFF78DFF124804F042FE3E
:1014500000214FF4004016F093FD01F0F7FA013837
:1014600010F0FF0008BF642001F0F6FAF0E7012158
:101470000846FFF777FF084817F0F4F8E5E700BFE4
:1014800064D9010010C4010084D90100C8C401005E
:101490009BD9010030010020C1D901000B68013344
:1014A0000B60014B1B68184744010020014B18607A
:1014B000704700BF4401002007B50B4600210246DB
:1014C0000191034801A900F0F9F803B05DF804FBAD
:1014D0009D14000030B585B0CDE90101044600251A
:1014E00001A90548039500F0E9F8DDE902309842CA
:1014F000B8BF255405B030BD3F8601002DE9F84F37
:10150000B0F8189019F00808044693460DD0012948
:101510000CBF49F0100949F02009A0F818908BF38E
:101520001188BFF36F8FBDE8F88F09F00709022912
:1015300007D1204617F0B0F80028F0D00128238BFF
:101540004ED16769218B002F15DA256821F007013C
:10155000C4E9008841F0010121830026218B01F0BC
:10156000070ACA4502D0A368002B5AD10DB9002E34
:1015700071D0002356E001F007035A1F012A1ED83C
:1015800021F00701062B256889B2C4E900880AD139
:101590003DB1638B2A46126801339BB2002AFAD10F
:1015A000638341F002012183204617F075F8064657
:1015B0000028D3D0238B43F020032383CDE7042BD3
:1015C0000CD121F0070189B22183204617F064F87D
:1015D00005460028C1D041F0200121830025BCE749
:1015E000032809D1226923F00703166843F0060394
:1015F000238300252F46B1E7042806D1226923F072
:101600000703566843F00403F2E7052806D1226970
:1016100023F00703966843F00503E9E700252E460B
:10162000E8E7012341F0080121838BF31188BFF320
:101630006F8FFBB985BB16B11F492046B0474FF0ED
:101640002003EFF3118B83F31188BFF36F8F238B8C
:1016500023F008032383238BDA0625D523F0100318
:1016600023830121B4F8189009F0070900297FF4B9
:101670005EAF54E7A1680029DCD0D1F80090D1F822
:1016800004B03B4652462046D847B9F1000FD1D0AE
:101690004946D9F80090F2E729463B465246204693
:1016A0002D6817F015F8C5E713F020011EBF23F0D1
:1016B000200323830221D5E7FD8601002DE9F04FA9
:1016C00091B08B46029092461C4600259AF8000085
:1016D00008B928465FE325280AF1010707D0029BD5
:1016E000594698470028C0F25683013512E2182265
:1016F00000210AA818F047FA9AF80130252B78D073
:1017000000221046964694461646394617F8013B85
:101710002B2B00F09D8000F29480202B00F09B800A
:10172000232B00F09B802EB19DF8306046F004061C
:101730008DF83060BCF1000F05D09DF8306046F0A8
:1017400008068DF83060BEF1000F05D09DF83060BE
:1017500046F010068DF8306028B19DF8300040F05A
:1017600020008DF830002AB19DF8302042F0400270
:101770008DF830209DF8302002F04400442803D139
:101780006FF386128DF830209DF830202A2B42F01E
:1017900080028DF830207BD19DF8312042F001028B
:1017A0004B1C8DF831201A782E2A9DF831200CBF61
:1017B0000121002161F341028DF8312074D15A7862
:1017C0002A2A6AD0013300210A26184610F8012B74
:1017D000A2F13007092F40F28E809DF830200E9143
:1017E000C2F3400040EAD17161F341028DF830202C
:1017F0005AE00AF102078DF833309DF83130D907ED
:1018000040F1498154F8049BB9F1000F07DA9DF8C3
:10181000302042F004028DF83020C9F100095A0747
:1018200040F1428154F8048BB8F1000F80F24181FD
:101830009DF831306FF341038DF831304FF0FF38B0
:1018400037E12D2B0CD0302B7FF46DAF01225CE7FC
:101850004FF0010C59E74FF0010E56E7012054E715
:10186000012652E70CFB0202303A33461E4616F8B8
:10187000010BA0F13007092FF4D9994293D09DF8BC
:1018800030100D92D20F62F341018DF830108AE7CB
:101890000B4600224FF00A0CE8E79DF8312042F099
:1018A00004028DF8312002331F4617F8012B6C2AF1
:1018B00041D025D8682A2BD06A2A46D04C2A4CD051
:1018C0001F4617F8012B9DF831308DF83320782A08
:1018D00000F2D980572A4DD8412A03D0453A022A2E
:1018E00000F2D1809DF83230042262F302038DF8B9
:1018F000323001239EE006FB01213039034664E7C4
:10190000742A26D07A2ADBD19DF8313006220DE0E8
:101910005A78682A9DF8312006D1012161F3C60268
:101920008DF831209F1CCCE71346022262F3C603D8
:101930008DF83130C5E75A786C2A9DF8312001D1F5
:101940000421EBE713460322F0E79DF8313005222E
:10195000ECE79DF831300722E8E7BDF8303023F49A
:10196000F04323F0020343F4804343F00203ADF855
:101970003030A6E7A2F15801202900F2848001A0AE
:1019800050F821F0491A0000871A0000871A000059
:10199000871A0000871A0000871A0000871A0000C3
:1019A000871A0000871A0000E5180000871A000057
:1019B000491A0000091A0000E5180000E5180000A7
:1019C000E5180000871A0000091A0000871A0000B5
:1019D000871A0000871A0000871A0000511A0000B9
:1019E000491A00006D1A0000871A0000871A0000CB
:1019F0006D1A0000871A0000491A0000871A0000BB
:101A0000871A0000491A00009DF83210012003F0E7
:101A1000780360F30201402B8DF8321002BF9DF86D
:101A2000301041F001018DF83010632A31D1003BB4
:101A300018BF01239DF83020C2F340010B4363F32C
:101A400041028DF83020D8E69DF832100220DEE702
:101A50009DF8322003F07803A3F14000032161F3E5
:101A6000020243428DF832204341E3E79DF83220E1
:101A7000032113F0780F61F302028DF8322014BFB6
:101A800001230023D6E79DF8303043F001038DF8A1
:101A900030300023CEE79DF93020002AB4BFDDF8B6
:101AA00034904FF0FF39BAE69B077FF5C7AEDDF8FB
:101AB00038809DF831100023CDE90D339DF8323088
:101AC00003F00703012BC1F3C30138D1CB1E042B54
:101AD00022D8DFE803F003090921210054F8043B70
:101AE000DA17CDE90A3206E0073424F00704F4E8F7
:101AF0000223CDE90A239DF8303013F0030656D0B7
:101B000002983B465246594617F091F90028C0F218
:101B100042810544BA46D9E554F8043B01294FEA0D
:101B2000E372CDE90A3205D19DF828300A930023EB
:101B30000B93E0E70229DED1BDF92830D0E7022B74
:101B400023D1CB1E042B13D8DFE803F0030A0A12BB
:101B5000120022680A920023201D0B930446CAE754
:101B6000E01D20F00700F0E80223CDE90A23F5E7A5
:101B700054F8043B0A9301294FF000030B93D3D090
:101B80000229B8D1BDF82830D0E7042B09D1E31DD4
:101B900023F0070303F10804D3E90023CDE90A2366
:101BA000A9E7032B04BF54F8043B0A93A3E79DF86D
:101BB00033007828AED8622822D825283FF48FAD8C
:101BC0005828A7D10DF126030093DDE90A0104ABE3
:101BD0000CAA17F0E6F88246B8F1000F0DF12600C6
:101BE0000CDB9DF83020A0EB0A036FF386129845BA
:101BF0008DF8302002D9A8EB03030D9380463DE019
:101C00006338152886D801A252F820F08D1C0000F8
:101C1000F11C0000151B0000151B0000151B000027
:101C2000151B0000F11C0000151B0000151B000017
:101C3000151B0000151B00004B1D0000191D0000A6
:101C40001D1D0000151B0000151B0000651C000079
:101C5000151B0000191D0000151B0000151B0000BE
:101C6000191D0000B8F1000FDDF828A00ADB41467D
:101C7000504617F037FF0AEB00080026BAF1000FB4
:101C80000CD147E7504617F026FFF4E70A9B8DF882
:101C9000103000260DF1100A0DF11108A8EB0A030F
:101CA00006B101339DF83220D00668D502335206C2
:101CB0000D9948BF0E9A0B4448BF9B18B9F1000F0D
:101CC00076DD9DF83020A9EB0309C2F3800303936E
:101CD00053076DD4500661D546B1029B5946304634
:101CE0009847002857DB039B01351E46302356E0FA
:101CF0001E070FD413F0100618BF2026DDE90A23B3
:101D0000002BBFF65FAF524263EB4303CDE90A23DA
:101D10002D2657E72B26F1E7002653E70A9840B314
:101D20000DF1260300930CAA04AB002117F039F83B
:101D3000BDF8323003F0EF0343F4F04343F01003F7
:101D40008246ADF83230002646E70A9B07293FF667
:101D5000E1AEDFE801F00C04060C08080C0C1D7065
:101D6000D8E61D80D6E6EA17C3E90052D2E61D6028
:101D7000D0E6DFF8C8A006460AF105088EE711078D
:101D800048BF013393E7184603935946029B98478F
:101D90000028039B04DA11B0BDE8F08F20234D44E6
:101DA0004A46002AA5EB090109F1FF39EBDC0D4693
:101DB00036B1029B5946304698470028EBDB013587
:101DC0009DF83230D90601D41A0706D5029B594630
:101DD000302098470028DEDB01359DF83230DB06E5
:101DE00007D59DF83300029B594698470028D2DB5F
:101DF00001350D9E2E44731B002B16DC02984346C2
:101E00005246594617F013F80028C4DB0544A9448C
:101E1000A9EB0503002B7FF77DAE029B59462020DE
:101E200098470028B7DB0135F2E7029B594630207E
:101E300098470028AFDB0135DDE700BFE3D901009B
:101E400030B51049104889B0002219F064FF0F4DD9
:101E50000F4900220023CDE9062300240E23CDE9FB
:101E60000334CDE901440B4B00944FF440722846F3
:101E700015F022FA0849284619F0EEFB204609B071
:101E800030BD00BF9D1E000088080020C008002053
:101E9000A02B002021220000E9D90100014815F003
:101EA00097BB00BF3407002010B50B4B00221A70FF
:101EB0000A4B0B4A1A604FF4004000F0C1FC00F0DE
:101EC00073FA084816F0CAFFBDE8104006490748F3
:101ED0000823482219F076BBC126002048010020C3
:101EE0009B8E0100F0110020684A0020F8110020AC
:101EF00010B54FF02003EFF3118483F31188BFF383
:101F00006F8F044816F0BAFF84F31188BFF36F8F08
:101F100010BD00BFF0110020064BBFF35B8F53E8EC
:101F2000002F013243E800210029F8D1BFF35B8F75
:101F3000704700BFE81100200020064BBFF35B8F05
:101F4000024653E8000F43E800210029F9D1BFF30E
:101F50005B8F7047E8110020F8B5FFF7EDFF0A4CE2
:101F60000A4D2D1B07462D110026AE4200DBF8BDA1
:101F700063685B792BB123681B6913B1394620462E
:101F8000984701361034F0E7ACC30100CCC3010020
:101F9000044A054B9B1AB1EBD30F34BF52F8310002
:101FA0000020704764C20100ACC30100094A4368C5
:101FB000801A10B50011084C196001300122187107
:101FC0005A71237813B9054815F002FB01232370D9
:101FD00010BD00BFACC30100C026002034070020A4
:101FE00070B5124BBFF35B8F53E8005F6A1C43E888
:101FF00000210029F8D1BFF35B8F2DB90C4C0D4E99
:10200000361B3611B54200DB70BD237B53B123680C
:102010009B690BB1204698476368042219682046E3
:10202000FFF7C4FF01351034ECE700BFEC110020CE
:10203000ACC30100CCC30100164B984237B504462F
:1020400002D3154B984220D314480022002301A943
:1020500015F0D2F80546D8B90122019BBFF35B8F7A
:1020600053E8001F43E800200028F9D1BFF35B8F3D
:10207000019821464122043017F01BFD019C7E236C
:1020800084F8453084F846500434204603B030BD0F
:10209000034CFAE720C001006CF10100F8110020A8
:1020A000F1D9010050B1064B984206D303F51073E5
:1020B00098422CBF0020012070470020704700BFCD
:1020C000684A00202DE9F04F474B1B7885B0044645
:1020D00003B900B3FFF70CFF054678B1BFF35B8F80
:1020E000424B53E8002F013A43E800210029F8D180
:1020F000BFF35B8F9CB1284616F0D9FF2CB93C4B3F
:102100001B68002B01DDFFF727FF3A4816F0B4FEED
:10211000041E18BF0124204605B0BDE8F08F364BE1
:102120001B78E3B92B7ADB0719D416F0D3FF0746E7
:10213000284616F09AFF0146384616F0B2FEDFF840
:10214000BC802F4BDFF8BCB0A3EB0803DB08039384
:102150002D4BA3EB080306464FEAD30A36B92B4EA4
:102160002B4FBF1B3F114FF000083AE0B6FA86F143
:10217000C1F11F094946284616F07AFF254B9842BF
:10218000014602D3244A90421AD30846FFF78AFF39
:102190000246A8B9214B994212D06B890399C3F327
:1021A00089138B4238BF58F833204FEA8A1343F023
:1021B0000103ADF8003049463B46584616F0CBFEC9
:1021C000012303FA09F126EA0106C7E773685B7980
:1021D00023B1336829465B683046984708F1010807
:1021E0001036B845F2DB86E7C0260020E411002057
:1021F000E8110020F0110020C126002064C2010077
:10220000ACC301000BDA010074C30100ACC30100D0
:10221000CCC3010020C001006CF10100F1D9010024
:1022200010B5FFF7DDFE15F0C5FE0C4B186030B1A0
:102230000B4B1B68092B02DD0A4815F0C9F9094C44
:102240000020FFF73FFF0028FAD14FF0FF324FF098
:10225000FF33204615F0E2F9F2E700BF1412002028
:10226000E411002034070020294B37B51B68418159
:1022700004469847E0604FF02003EFF3118583F3A5
:102280001188BFF36F8F2348214616F0EBFD85F3CD
:102290001188BFF36F8FBFF35B8F1F4B53E8002F85
:1022A000013243E800210029F8D1BFF35B8F1B4ABC
:1022B000127882B14FF02003EFF3118483F3118879
:1022C000BFF36F8F0020FFF7FDFE84F31188BFF38B
:1022D0006F8F03B030BD124A1B681268002AF8D015
:1022E000012B0AD100220023CDE900230D484FF431
:1022F0000042002316F056F8EBE70A2BE9D1094813
:1023000019F015FD084803B0BDE8304015F060B97C
:1023100048010020F0110020E4110020C126002017
:10232000141200208808002034070020F8B50E4F52
:102330003D7875B90D4C0E4EFFF752FE361B361127
:10234000B54207DB0020FFF7BDFE0028FAD10123CC
:102350003B70F8BD63685B791BB1236820465B69FD
:10236000984701351034EBE7C1260020ACC30100CB
:10237000CCC3010007B504380190BFF35B8F50E870
:10238000003F5A1E40E800210029F8D1BFF35B8FBF
:10239000012B03D1034801A919F02FF903B05DF80F
:1023A00004FB00BFF81100202023024902481A460E
:1023B00019F008B9A84C00201812002037B50023E6
:1023C000094D01930120FFF77DFE0446FFF7A4FDB0
:1023D0000022002301A9284614F00EFF08B1002CAA
:1023E000F0D1019803B030BD1812002007B50023CA
:1023F000019307480022002301A914F0FDFE10B14B
:10240000FFF7DCFF0190019803B05DF804FB00BF0B
:1024100018120020F0B5037A85B0DC0701901ED4B5
:10242000457A2D091BD0002426460198314616F026
:102430001FFE0746FFF736FE70B134B9019B2946EF
:10244000186916F02EFD044648B124FA06F3D907A0
:1024500002D53846FFF78EFF0136AE42E5D3019B29
:102460001A7A920704D55B69084C0393039B2BB936
:10247000064801A919F0C1F805B0F0BD1D6803A90F
:10248000204619F0BAF80395F0E700BF18120020B3
:102490000EB403B503AB014653F8042B0448019373
:1024A000FFF70CF902B05DF804EB03B0704700BF12
:1024B0008D9401002DE9F0471D46089B1746DA066A
:1024C00004460E4605D499064CBF2A492A49FFF70F
:1024D000DFFFDFF8A8904FF00008A8452ADBDFF8FF
:1024E000A080DFF8A090DFF894A00025BD422FD295
:1024F000725D49462046FFF7CBFF0135102D20D1F4
:102500002149DFF87880DFF884902046FFF7C0FF8C
:102510000025AF4228D9725DA2F120035F2B28BFAE
:102520002E2249462046FFF7B3FF0135102D14D166
:10253000BDE8F08749462046FFF7AAFF08F10108E9
:10254000CBE76A07D2D151462046FFF7A1FFCDE77E
:1025500041462046FFF79CFFCFE76B07D9D14146A4
:102560002046FFF795FFD4E741462046FFF790FF4E
:10257000DBE700BF4FDA01004EDA010059DA010053
:1025800057DA010051DA01005BDA01005DDA01007F
:102590002DE9F04F87B011F0020605929DF84080BA
:1025A000BDF9489007461A4601F0010A01F00805F6
:1025B00006D011F0440F38D13349FFF769FF0646C2
:1025C000BAF1000F0AD0314B314953F82820314B72
:1025D0003846002A08BF1A46FFF75AFF3DB12E4B76
:1025E0002E4953F828203846FFF752FF0546B9F127
:1025F000000F16DB059B002B43D0012303FA08F8DC
:10260000274B284C18F0100F18BF1C4649469DF860
:102610004400FFF7BDFC214602463846FFF738FF6D
:102620000544A81907B0BDE8F08F1F4B196831B3F6
:102630001E4B4FF461661B68B2FBF3F34FF47A7BD9
:10264000B3FBF1F4B4FBF6F206FB124601FB1434C3
:102650000BFB04F44FF03C0CB4FBF1FEB6FBFCF3B7
:1026600001FB1E440CFB13660BFB04F40096B4FB49
:10267000F1F1CDE901E10E49FFF70AFF9FE70846B6
:102680009DE7084CC2E700BF6EDA0100D8C4010024
:1026900047E6010060DA0100ECC4010093DA0100B2
:1026A0006ADA010065DA01003412002038120020D5
:1026B00077DA010038B50C46E107054603D5084A2C
:1026C0000849FFF7E5FEE20608D4A30628464CBFFA
:1026D00005490649BDE83840FFF7DABE38BD00BFFE
:1026E00060DA010047E601004FDA01004EDA01002E
:1026F0002DE9F0478B7A13F007088AB005460E469D
:10270000174622D00A7A4989C3F3C203C1F389115B
:10271000D243CDE900830291F36802F00102394609
:10272000FFF736FF8146347AE44314F001040ED0FB
:102730002946304616F040FDB8F1000F2BD0424636
:1027400039462846FFF7B6FF25E0C146EBE7B8F16A
:10275000000F26D12746EB68069306AA3B46A968D8
:10276000304616F015FD069A6B681A603AB1AB68F0
:10277000134413F8014CA4F10A035C425C4128465F
:1027800016F077FE069B1F44002BE4D11CB11449C0
:102790002846FFF77DFE28460AB0BDE8F04716F050
:1027A00068BE304616F096FC0E4902462846FFF7F2
:1027B0006FFE4FF0100A05AA234606A93046CDF851
:1027C00014A016F0E5FC059A002AB8D04B460097F5
:1027D00006A92846FFF76EFE059B1C44EBE700BFE9
:1027E00099DA010047E6010073B542F20F738B429C
:1027F00028BF0B4605680F4A04460521684615F0B8
:102800003EFF63680C495B6806460B22284616F0BB
:10281000C6FC63683246694628465B6816F0BFFC12
:10282000636806495B681B22284616F0B8FC02B0B4
:1028300070BD00BF8EE20100D7DA0100BBDA0100F3
:10284000084A10B50123084C13600021A04204D8A7
:1028500001B11360054B186010BD40085B000121F9
:10286000F4E700BF3812002040420F00341200206D
:10287000F8B5074F0D4604464618B44201D1284624
:10288000F8BD386814F8011B83685B689847F4E763
:1028900050120020014816F0ECBD00BF1CC501001D
:1028A0000148FFF7A1BF00BF1CC5010008B50348E0
:1028B00014F020FB024B186008BD00BFE3DA0100F2
:1028C0005012002010B508460C4616F0C1FB054812
:1028D00021460F22FFF70CFF2046BDE8104016F0FE
:1028E000E6BB00BF1CC50100014B01221A707047F6
:1028F000D3260020024B034801221A7016F0B9BDFE
:10290000D426002048C501000148FFF76DBF00BF75
:1029100048C5010010B508460C4616F099FB05485D
:1029200021460F22FFF7E4FE2046BDE8104016F0D6
:10293000BEBB00BF48C50100054B1B781BB141F26F
:10294000883019F0B9B9A420002115F019BB00BFD7
:10295000D42600202DE9F047DFF88880DFF888A032
:1029600007460E46042498F8003033B94FF0FF3282
:102970004FF0FF33504614F03DFD324639460020FB
:1029800014F042FA98F80030814613B9504614F01A
:10299000A9FD164DB9F1000F18D001232B7098F83E
:1029A000003033B93046BDE8F0875CB92C704FF089
:1029B000FF34002014F074FA0028F3D02B78002B99
:1029C000F3D1EFE7013CFFF7B7FFF2E72B7813B144
:1029D000013C04D12C702B78002BC4D1E2E7FFF727
:1029E000ABFFF8E7D426002020070020D3260020E4
:1029F000074B084A0848D21AD208084B920101290D
:102A000014BF0146194642F00302054816F076BA93
:102A100064C2010064C2010034DB01002CDB010050
:102A20003DDB010010B5084C86B024788DF81740C6
:102A3000012402940DF117040194BDF82040009484
:102A400018F071FA06B010BD23060020014B18786B
:102A5000704700BF2306002000B589B064288DF8B8
:102A6000070019D80E4B18221870002102A817F081
:102A70008AF80C4B03930DF10703049302A9012379
:102A80000020ADF8143005F077FC10F1800F08BF7E
:102A9000002009B05DF804FB6FF01500F9E700BFF6
:102AA00023060020D0C50100F8B505464FF02003ED
:102AB000EFF3118683F31188BFF36F8F094B1C6806
:102AC0005CB1094FD4E90132002D08BF13460BB1A8
:102AD000387898472468002CF4D186F31188BFF326
:102AE0006F8FF8BD6812002070120020084B10B5DF
:102AF0001C685CB901221A60064B93E8070017F0C6
:102B00007DF82046BDE81040FFF7CEBF10BD00BFE6
:102B10007C01002070120020F0B585B06E460146A1
:102B20000546304616F0E9FC96E80700144C84E8A8
:102B300007002078274600B3124B002119606B1C58
:102B40000DD0114816464FF4004C104A0023E6FB06
:102B50000C01FDF7D5FA0121281A19F08DF814F0AF
:102B60009DFF0120FFF7A0FF97E8070017F033F85B
:102B7000FFF7BCFF15F04AF8207805B0F0BD00BFA4
:102B8000701200207C0100203F420F0040420F00E5
:102B900010B50748074C14F0ADF9074B18602046F4
:102BA00001F008F82046FEF781FC002010BD00BFB0
:102BB000E3DA0100BD2B00007C1200200A2838B5A2
:102BC000074D044604D1286883680D215B68984747
:102BD00028688368E1B25B689847204638BD00BF2B
:102BE0007C120020084B70B5C31A0D4607499B1094
:102BF000044659430648402216F0A0FC2B460146E5
:102C00002046BDE87040184794120020B76DDBB62F
:102C10002406002073B50C4C0C4A4023041B00937F
:102C20000D460B460A49A41061430646094816F0B2
:102C3000B2FC011E05DA30462B4602B0BDE87040FA
:102C4000184702B070BD00BF941200200596010025
:102C5000B76DDBB624060020002270B501210446C2
:102C6000104600F04DFB002000F018FB0F4813F059
:102C700089FF0F4B984215D118F0EDFB26690D49DD
:102C8000304615F058FD00280BDB24690949012561
:102C9000356404F11C0015F04EFD002801DBE564ED
:102CA000002070BD6FF00400FBE700BFED2C0000BA
:102CB0000000AD0B38C6010001460C2309484B4308
:102CC00070B5C418D4E90E5600224033A2631844EC
:102CD00016F021FC2DB132462B460348BDE870406A
:102CE000184770BD941200202406002010B101285E
:102CF00004D07047034B1B6C5B0701D1FFF7DCBFAF
:102D0000704700BF9412002008B54FF02003EFF386
:102D1000118183F31188BFF36F8F124A136843F058
:102D2000020013F0010310600CD04FF08042D2F883
:102D30000C34D2F80C2413F0010303D00A4816F027
:102D4000EAFB012381F31188BFF36F8F23B1BDE844
:102D500008400020FFF7B0BFBDE80840012018F090
:102D600084BB00BFE4120020D41200207FB50022F3
:102D70000123CDE9022304ABCDE90433094ACDF8A0
:102D800000D06B46CDF804D016F035FC002805DBEA
:102D90004FF480420023684614F040FC07B05DF811
:102DA00004FB00BF23960100094BBFF35B8F53E880
:102DB000002F22F0020143E800100028F7D1BFF3F2
:102DC0005B8FD30702D4012013F0ECBE704700BF25
:102DD000E4120020024AC3B21C2003FB002070470B
:102DE00094120020094BBFF35B8F53E8002F42F091
:102DF000010143E800100028F7D1BFF35B8F930770
:102E000002D4012018F031BB704700BFE41200204B
:102E1000094BBFF35B8F53E8002F22F0010143E819
:102E200000100028F7D1BFF35B8F930702D4012075
:102E300013F0B8BE704700BFE41200202DE9F04146
:102E40003949BFF35B8F0746012251E8003F41E853
:102E500000200028F9D1BFF35B8F33B933493448E0
:102E60004B60CB608A6015F079FC7B1E012B2FD85C
:102E7000012F07D14FF08043D3F81C3403F0030334
:102E8000012B25D018F0E2FB044618B9294B1B781A
:102E9000002B41D14FF02003EFF3118683F311880B
:102EA000BFF36F8F0124DFF890804FF08045D5F895
:102EB0001834D5F81824D2030CD503F00303012BE2
:102EC00001D0012F06D10CB386F31188BFF36F8FA9
:102ED000BDE8F081ACB1304600F094FAD5F8183571
:102EE000002BE4D1D5F80421002AE0D0C5F8043144
:102EF000D5F804310123C5F81835C8F88031AB6026
:102F0000D5E70021212015F03BF8E7E74FF080439B
:102F10000222C3F80423DBE74FF080430222C3F808
:102F200008230646BFE700BFE812002084120020F5
:102F3000B0120020922B002000E100E0044A136848
:102F4000C81A20F07F400344136015F08DB900BF0C
:102F5000FC1200202DE9F843860006F1804600F1BE
:102F6000500406F58836A400A4B204F180444FF45E
:102F70008037D6F84035DFF86C8021F07F4504F5C6
:102F800088348740D8F80495A3EB090323F07F43E6
:102F900029F07F42012BC6F8402502D1132018F0FA
:102FA0008BFE09F10202AB1A23F07F43B3F5000F49
:102FB00088BF1546002323602368C8F8447325F0B2
:102FC0007F43C6F84035D8F80435994506D0EB1A4A
:102FD000023B23F07F43B3F5000F01D8BDE8F8832F
:102FE0002B46CFE700100140F8B50025104C2F46C6
:102FF000104B1E6805B1F8BDD4F80423D203FAD5EE
:10300000D4F84021002AF6D0C4F84051D4F8402129
:103010004FF48032C4F84823D4F84015012526B176
:103020005A681F600020B047E2E71E60E3E700BF78
:1030300000100140F012002038B50F4C00254FF46D
:103040008033C4F80855C4F804330C4B4FF40032F5
:10305000C3F8802101212A46112000F051F91120E6
:1030600000F01CF90123064AA360022023601360CC
:10307000FFF7E4FE284638BD0010014000E100E003
:10308000F8120020134AB0F1FF3F14BF0346134665
:10309000013B002B1CDD9342A8BF13460E4AD2F819
:1030A00004050E4A1168401A10F4000F20F07F4208
:1030B00018BF002301321344094A0A481060002057
:1030C0005060044A934294BFC9188918FFF742BF61
:1030D0000023E3E7FFFF7F0000100140FC12002007
:1030E000F01200203D2F0000044BD3F80405044BE0
:1030F0001B68C01A20F07F40704700BF00100140DD
:10310000FC1200204FF02003EFF3118283F31188AB
:10311000BFF36F8F0649074B0868D3F8043582F375
:103120001188BFF36F8F1B1A23F07F431844704739
:10313000FC120020001001400449431E0F3013F818
:10314000012F8A5C1A708342F9D1704786DB010037
:10315000F0B5264E07460C460FCE8DB001AD0FC51B
:103160000FCE0FC596E8070085E807003846002F08
:1031700038D0002C38D0381F2146024610344B7806
:103180000D781B0443EA0563CD782B438D78043119
:1031900043EA05238C4242F8043FF0D1144C042149
:1031A0008A07036916D1C3F30742A55C1A0EA25C15
:1031B00042EA0562C3F30725DBB2655DE35C42EAE0
:1031C000054242EA03220CAD21F003032B4453F8DD
:1031D0002C3C534050F8042F013153402C290361FB
:1031E000DED101200DB0F0BD2046FBE724C4010074
:1031F00086DB0100094A0A4993680968D9670949C9
:1032000098674B6843F080534B60002383F3118829
:10321000BFF36F8F9368D86F704700BF60260020A0
:10322000FCD8010000ED00E012498A684FF0300040
:103230001044EFF3098C80E8F01F202080F3118800
:10324000BFF36F8F0C4F4FF000664A6A8A603E6092
:10325000906F0023936780F3118804B5104600F047
:10326000D1FBBDE8044002F1300090E8F01F8CF380
:10327000098870476026002004ED00E01EF0040F6E
:103280000CBFEFF30880EFF30980816911F8021C8D
:103290000229FFD001B516F0F7FB01BD43B2002BA8
:1032A00008DB012200F01F0002FA00F05B09024A6D
:1032B00042F82300704700BF00E100E043B2002B5A
:1032C0000DDB01225B0900F01F0002FA00F0203341
:1032D000034A42F82300BFF34F8FBFF36F8F70474D
:1032E00000E100E0054B420900F01F0053F82220E6
:1032F000012303FA00F01040704700BF00E100E036
:1033000043B2002BA8BF03F1604301F10101B8BF34
:10331000064B4FEA4111ACBF03F5614300F00F00CB
:10332000C9B2B4BF195483F80013704714ED00E01C
:1033300008B572B6044B186A18B100221A6218F068
:1033400092F962B608BD00BF6026002042F8203C1A
:10335000009B42F81C3C0A49019B42F8183C029B26
:1033600042F8143C21F001014FF0807342F8043C14
:1033700042F8081C0023203A02658367704700BFAB
:1033800039880100094A0346906870B113F1160F9D
:10339000806E05D0A0F120029A4205D8834203D264
:1033A000814228BF0020704700207047602600201F
:1033B00008B5094B98600D46144600F023FB2046E3
:1033C00085F30988002163B681F31188BFF36F8FFD
:1033D0000022002315F030FA602600200149102257
:1033E0000A60704710ED00E072B6404080F311882B
:1033F000BFF36F8FBFF34F8F30BF62B6BFF36F8FD6
:10340000704700BF72B6494081F3118820BF80F336
:10341000118862B6704700BF73B506460C4601B30B
:10342000134B144D1448ED1AED08AD0145F001059C
:10343000ADF80050D1E90123096815F08CFDADF815
:103440000050D4E90423E1680C4815F084FDE169DB
:103450000B482A4615F052FDA1690A482A4615F084
:103460004DFD2146304602B0BDE8704013F084BDEA
:1034700064C201008CC3010086DC0100B5DC0100E0
:10348000E4DC0100F3DC010030BFFFF7FDBF00BF4B
:103490000E4A08B50E4B22F07F029A60BFF34F8FA1
:1034A000BFF36F8FD3F8882022F47002C3F888200E
:1034B000EFF3148323F0040383F3148813F0BAFDAD
:1034C00014F0F2FD00F074FA13F0D8FD00000000D3
:1034D00000ED00E001B572B60B4A106A00281EBF6D
:1034E0000021116218F0BFF862B6EFF30580A0F179
:1034F00010004FEAC0000549014409C99847BDE8DA
:10350000014003490847000060260020A0C00100D8
:103510009539000016F05DFB202080F311880848E3
:103520004FF40261401880F30988EFF31480022100
:10353000084380F31488BFF36F8FFFF7A9FF0000E3
:10354000E03C0020EFF30880EFF3098101B57246FB
:1035500000F04EF901BD00BF2DE9F047354B364C68
:10356000364DE41AE408A40144F0010907468846F0
:1035700033484946164615F0B4FCAB6ADB0603D562
:103580003048494615F0ADFCAB6A180704D52E4803
:1035900044F0010115F0A5FC284DAB6A990723D42E
:1035A0006FF01509254DAB6ADB0704D5274844F0B9
:1035B000010115F096FCAB6A980604D5244844F046
:1035C000010115F08EFC1D4B9A6AD10624D49A6A2B
:1035D000920721D40020194A936A43F0FF039362B3
:1035E00000233370BDE8F08744F0010A19485146C2
:1035F00015F077FCD5F83490AB6A1A06D0D516488A
:103600005246494615F07AFCB8F1000FCAD0AB6AB1
:1036100023F08003AB62C5E75B681B05DAD539464A
:103620004846FFF7AFFE0028D4D080F30988022077
:10363000D1E700BF64C201008CC3010000ED00E0CF
:1036400021DD010037DD01006ADD0100ABDD010095
:10365000CADD01007DDD010095DD010070B5234B61
:10366000234C244D2448E41AE408A40144F0010644
:10367000314615F036FCAB6A9B0103D51F48314635
:1036800015F02FFCAB6ADD0104D51D4844F00101A3
:1036900015F027FC174DAB6A180304D5194844F000
:1036A000010115F01EFCAB6A590304D5164844F01D
:1036B000010115F016FC0F4DAB6A9A0304D51348AF
:1036C00044F0010115F00DFCAB6ADB0304D5104892
:1036D00044F0010115F005FC064A936A6FEA0343C2
:1036E0006FEA13439362002070BD00BF64C2010003
:1036F0008CC3010000ED00E0F9DD010011DE0100E6
:1037000024DE01003EDE01005CDE010081DE0100FE
:103710009BDE01002DE9F0412A4B2B4C2B4DE41A86
:10372000E408A40144F0010807460E462848414633
:1037300015F0D7FBAB6AD90403D52648414615F0EE
:10374000D0FBAB6A1A0504D5234844F0010115F0FB
:10375000C8FB1E4DAB6A9B0512D544F001081F48FB
:10376000414615F0BEFBA96BAB6A180408D51C488E
:10377000424615F0C3FB1FB1AB6A23F40043AB62B2
:10378000124DAB6A590504D5164844F0010115F0F5
:10379000A8FBAB6ADA050DD5134844F0010115F01A
:1037A000A0FB0A4A936A002043F47F43936230707F
:1037B000BDE8F081AB6A9B04F3D50C4844F00101ED
:1037C000EDE700BF64C201008CC3010000ED00E022
:1037D000C6DE0100DCDE01006ADD0100EDDE010075
:1037E00006DF01001BDF010036DF0100CADD01003A
:1037F0002DE9F043584B5E688BB00F46C6F30804C2
:10380000002585F31188BFF36F8F02F07F43B3F17A
:103810007F4F0DD102F00C03082B0BD14F49504BB9
:103820005048C91AC908890141F0010115F059FB36
:103830002F4603E0120701D40746012500238DF827
:103840000730E31E092B6ED8DFE803F0055C60400B
:103850006D6D6D6D6D64424B404EDFF8FC804248EB
:10386000F61AF608B60146F00106314615F039FBA6
:10387000D8F82C404FF0000914F002048DF807909E
:1038800005D03A48314615F02CFB002421E0D8F849
:103890002C305B001DD53648314615F022FB98F8D8
:1038A000283033B10DF1070201213846FFF754FEED
:1038B0000EE098F829302BB10DF107010120FFF738
:1038C00029FF05E0B8F82A309BB213B1FFF7C6FE16
:1038D00004469DF8073093B92022394602A816F015
:1038E00027F9099B9DB3C3F3080222B96FEA53235A
:1038F0006FEA4323099302A92046FFF78DFD0BB021
:10390000BDE8F0830DF107020021CEE70DF10701BC
:103910000020D4E71149124B1648C91AC908890179
:1039200041F00101AFE70E4A0C4B134813499B1AB3
:10393000DB0816F4F87F4FEA831318BF014643F003
:1039400001030F48A4F1100215F0ECFA9DE723F4EF
:10395000FF7323F00103CDE700ED00E08CC301000D
:1039600064C201004EDF010079DF010090DF010039
:10397000B1DF0100D0DF010009E00100F4DF010048
:1039800022E00100024A536943F01003536170477B
:1039900000ED00E0044B9968586A884203D003495F
:1039A0004FF080520A6070476026002004ED00E06E
:1039B000044800232021C2180133302B82F8001361
:1039C000F9D1704700E100E0064B9B68834207D1C4
:1039D000EFF3058323B1044A536843F080535360E7
:1039E00014F0FEBA6026002000ED00E0024B034A0E
:1039F0000348012100F08CB80000042000000020E2
:103A000044C60100826E054B203A1A60044A202108
:103A1000C3E901121846012100F084B80013002008
:103A200000000B15F8B52A4F0E460021B14214DAFA
:103A30004468002C48D0C3B104F1FF3C14EA0C0FD9
:103A40000DD0244A244B2548D21AD208920142F0C4
:103A5000010215F053FA6FF015021046F8BD1F2C45
:103A6000EFD905681CEA050FEBD1202CD5B2D0F8B0
:103A700008C0026816D9B4F1004F15D8013CB4FA59
:103A800084F4C4F11F046400072D4CEA04040DD92A
:103A9000104A114B1248D21AD208920142F0010288
:103AA0002946D6E70824EFE73E24EDE722F01F027F
:103AB0002A4342F0100244F00104C7F89850C7F8B6
:103AC0009C20C7F8A0406A1C01310C30AEE700BF53
:103AD00000ED00E07CC3010064C2010039E0010098
:103AE0005CE00100044B0522C3F89420BFF34F8F24
:103AF000BFF36F8F704700BF00ED00E0BFF35F8F33
:103B0000024B0022C3F89420704700BF00ED00E094
:103B100010B5034C01232278FFF784FF207010BDFD
:103B2000D526002008B5094A00231278FFF77AFF4E
:103B300010F1160F03D0064B0022072800DD08BD48
:103B4000C3F89800C3F8A0200130F6E7D52600207E
:103B500000ED00E014490868082810B521D8FFF7E7
:103B6000CDFF124C49680022904201F10C0105D1B1
:103B70000F4B1870FFF7B6FF002010BDC4F8982057
:103B800051F80C3C23F01F03134343F01003C4F817
:103B90009C3051F8043C43F00103C4F8A0300132DA
:103BA000E2E74FF0FF30E8E750C6010000ED00E02B
:103BB000D5260020014B1860704700BF800100200F
:103BC0004FF02003EFF3118283F31188BFF36F8F5F
:103BD00006490123C1F840354FF08041C1F87835DE
:103BE00082F31188BFF36F8F0020704700E001401F
:103BF00020B1034B800143F001031847704700BF19
:103C0000C0C401000E4B402970B528BF40210D4CA7
:103C100046181D46B04203F1020304D1002305F803
:103C20001130074870BD02781209A25C03F8022C1B
:103C300010F8012B02F00F02A25C03F8012CE9E757
:103C4000F4260020DAE0010030B503788BB004469A
:103C500007AD032B21D8DFE803F0021A1C1E12491E
:103C6000284615F01CFF63780493A3780393E37848
:103C7000029323790193637900930C4AA379059504
:103C80001E210B4814F0FBFC09480BB030BD09495C
:103C9000E6E70949E4E70949E2E7094A0A21284633
:103CA00014F0EDFCDFE700BF95E00100B7E0010094
:103CB000D62600209CE00100A3E00100ADE0010059
:103CC0002FEE010030B4034608461A78012A13D0BB
:103CD000022A26D072B9154A02F1100452F8045B88
:103CE00041F8045BA242F9D15B8812780A704373F1
:103CF0001B0A837330BC70470C4A02F1100452F85F
:103D0000045B41F8045BA242F9D15B6812780A7047
:103D1000C3F3072243731B0CC3731B0A8273037420
:103D2000E8E730BC1122194615F002BFF2E00100AD
:103D300038B50546054817F0E9F9044620B10021D9
:103D4000083017F002FA2575204638BD34080020E7
:103D500070B502460B464FF02001EFF3118581F359
:103D60001188BFF36F8F0C480021D0F80041C0F8D4
:103D7000001185F31188BFF36F8F24B9BDE870403F
:103D80000120FFF7D5BF012304F108002375A181AD
:103D900017F0DBF9204670BD0000002070B5044626
:103DA0000F2C0D461046194605D80D2C12D9BDE82A
:103DB0007040FFF7CDBF132C0CD10B4817F0A6F9BC
:103DC000044628B10021083017F0BFF901232375FC
:103DD000204670BD02460B460DB10448EEE7BDE833
:103DE00070400120FFF7A4BF5C080020BC07002042
:103DF00070B50B4D06460FCD8CB06C460FC40FCD81
:103E00000FC495E80F0084E80F000B2E9BBF0CAB8E
:103E100003EB8606034856F8300C0CB070BD00BFAB
:103E200050C40100F5E101000549064A83680648CF
:103E3000521AD2089201197842F0020215F05EB8C7
:103E400064C2010044C30100FDE1010038B583688C
:103E50001A7872B9B3F80140204602F093FA054689
:103E600040B9084B1A8822B96FEA04506FEA105023
:103E7000188038BD012102F08DFA2846BDE838408F
:103E800016F017BAA8260020F8B586683578F5B977
:103E9000B6F80170384602F075FA044660B90C4B6A
:103EA0000C4A0D48D21AD2089201394642F001025A
:103EB000BDE8F84015F022B8F3784372294602F0C5
:103EC00069FA25802046BDE8F84016F0F2B9F8BD41
:103ED00064C2010044C3010025E20100836810B5FB
:103EE0001C88204602F04EFA60B9084A084B09487F
:103EF000D21AD2089201214642F00102BDE81040D8
:103F000014F0FCBFBDE8104016F0D3B944C3010063
:103F100064C201004BE2010008B50121083017F02E
:103F20007EF9064B064A01780648D21AD208920159
:103F3000BDE8084042F0010214F0E0BF64C2010095
:103F400044C301006FE2010010B50A4A0A4C81899E
:103F50008068A41AFFF756FEFEF76EF8E408A40185
:103F600044F00204014622460448BDE8104014F023
:103F7000C5BF00BF64C2010044C3010091E201005B
:103F800073B58568B5F80160304602F0FBF9044668
:103F900068B9254B254A2648D21AD208920142F028
:103FA0000102314602B0BDE8704014F0A7BF2B7883
:103FB000CBB92A79EB7843EA0223A0F89E30AA799C
:103FC0006B7943EA0223A0F8A430EB792A7A43EA1A
:103FD0000223A0F8A63002F025F8204602B0BDE882
:103FE000704016F066B91A2BF7D1C378012BF4D1C3
:103FF0004FF48061043015F0A9FE4305EDD4B4F808
:10400000A030ADF80030B4F8A230ADF80230B4F80A
:10401000A830ADF804306946B4F8AA30ADF80630DF
:10402000204602F0F3FDD8E764C2010044C301005A
:104030004BE2010013B50D4C0146052294F8330004
:1040400002F0D0FA78B90A4B186B9A8E009093F868
:104050003630ADF8042094F833008DF80630042291
:10406000694602F0BFFA02B010BD00BF0000002098
:1040700050C4010073B502EBC3030546084611782E
:10408000A9421AD008329A42F9D18689164B174CA8
:1040900080683146E41AFFF7B5FDFDF7CDFFE4086F
:1040A000A40144F002040346ADF800401048324633
:1040B000294614F050FF02B070BD818953788B42BD
:1040C0000DD9094A094B0B489B1ADB089B0143F0A9
:1040D00001032A4602B0BDE8704014F023BF5368C4
:1040E00002B0BDE87040184764C2010044C301003B
:1040F000D7E20100B5E2010010B501210446083005
:1041000017F08DF82146034A0078BDE810400723D8
:10411000FFF7B0BFA0C601002DE9F043074685B008
:104120009079414E8846144611F0B2FD864216D071
:104130003E4B3F4DA0790097ED1AED08019011F02C
:10414000A7FDAD0145F00205CDE902062B46394831
:104150000422694614F01BFF05B0BDE8F083204639
:1041600011F09EFD344D4FF00C0909FB00504388BF
:10417000BB4211D02D4B2E4E2046F61A11F090FD69
:10418000F60809FB0050B60146F0020642882B48AB
:104190003346394614F0C6FE204611F081FD0C2648
:1041A00006FB00504368ABB1B8F1000F12D12046B6
:1041B00011F076FD06FB005001214268D2E9003083
:1041C000127A00F01F06B1404009EAB103EB80000B
:1041D00015F0BCFD204611F063FD0C2606FB0050D7
:1041E0008368002BB8D0204611F05AFD704305F8C3
:1041F0000080204611F054FD06FB0055A86805B06C
:10420000BDE8F04313F0E4B9C94303EB8003BFF307
:104210005B8F53E8002F0A4043E800200028F8D1C4
:10422000BFF35B8FD6E700BF0C08002064C201001B
:1042300044C30100F9E201000C1300202EE3010049
:1042400038B504210446083016F0E9FF45780178B6
:1042500040882246FFF760FF25B10348BDE838409B
:1042600013F0B6B938BD00BFE800002038B503210F
:104270000446083016F0D3FFA36805781978B0F823
:1042800001002246FFF748FF25B10348BDE838404A
:1042900013F09EB938BD00BFE80000202DE9F84FAB
:1042A000394D3A4BD0F80880DFF8E4A0ED1A00262B
:1042B000ED08B14698F800309E4201DBBDE8F88F6A
:1042C00008EB8603B3F801B0B3F80370584602F068
:1042D00059F80446D8B100F1280B002F33D04FF025
:1042E0002003EFF3118283F31188BFF36F8FE3692B
:1042F000B3B1013BE36182F31188BFF36F8F2046B6
:1043000001F08CFE013F13F063F9BFB2E5E7AA01AB
:10431000204842F00102594614F0F0FD0136C9E789
:1043200063692BB1A169186860618B4208BFA06105
:1043300082F31188BFF36F8F4BB9A90141F00101DE
:10434000504614F0CEFD204615F0B3FFE6E74FF0DF
:104350002002EFF3118182F31188BFF36F8FDA68C7
:10436000E261626AC3F80C90C3F800904AB9C4E9EC
:10437000083381F31188BFF36F8F584613F094FA16
:10438000BDE713606362F4E744C3010064C2010047
:104390007DE3010061E3010010B5C1E900239DF850
:1043A00008300B720C4611F07BFC034B0C2202FB15
:1043B00000335C6010BD00BF0C1300202DE9F047F6
:1043C0004FF0FF324FF0FF3306461748174D0F46A8
:1043D00016F09CFE044600F1080A00214FF0000888
:1043E000504616F0B2FE84F81480204611F058FCB6
:1043F0004FF00C0909FB00504680204611F050FC9C
:1044000009FB0050C0F80880204611F049FC09FB68
:1044100000550321C5F80480504616F0D9FE877078
:1044200006802046BDE8F0870C0800200C13002011
:104430002DE9F041074686B015460C4621B9FFF735
:10444000BDFF0446002857D001220021684617F01E
:10445000E6F9204611F024FCDFF8A4800C2303FBCE
:104460000080C0F808D0204616F080FE254821467E
:1044700016F06FFE4FF4A0220023684613F0CEF82A
:10448000064680B1204A214921484FF49C7314F01C
:10449000E9F82048314614F0E5F8404080F31188EF
:1044A0004FF0030002DF204611F0FAFB0C235843C3
:1044B00018F80060BEB1184A184B19489B1ADB085F
:1044C0009B0143F002033246394614F02BFD20468F
:1044D00011F09CFC092E0CBF6FF06E006FF0040011
:1044E00006B0BDE8F08115B12C603046F8E72046F3
:1044F00011F08CFC2846F3E76FF06800F0E700BF8E
:104500000C1300200401002094E30100C8E3010023
:10451000D1E30100EEE3010064C2010044C30100E5
:104520000EE4010073B506460D4601AA002142F2D1
:104530002F00FFF77DFF044660B10C490C4B0D487E
:10454000C91AC908890141F0010114F0CAFC2046CA
:1045500002B070BD01988368B3F801203280B3F8CF
:1045600003302B8011F052FCF1E700BF44C301007F
:1045700064C201002AE40100024BD3F81C311B691C
:10458000184700BF0000002038B505460C4619B991
:10459000FFF714FF0446F0B140F635439D4214D1B5
:1045A0002046FFF7E9FF054668B10C4B0C4AD21ACA
:1045B000D2089201014642F001020A4814F09EFC22
:1045C000204611F023FC284638BD0748214616F046
:1045D000C0FD0025F7E76FF06805F4E764C201004D
:1045E00044C301004AE40100040100207FB5837A3E
:1045F000072B04466ED1BFF35B8F4368BFF35B8F1D
:104600009B0400F104061BD4C37823B1324B93F80A
:10461000A0301D0714D5022142F21600FFF7CEFE8E
:10462000054668B10221083016F0D2FD23880380C8
:10463000294642F2160004B0BDE87040FFF7A4BF5F
:10464000BFF35B8F6368244DBFF35B8F13F4805F10
:10465000C3F300311CD195F8A130D80718D5022337
:1046600000911A46204615F0D9FB014630B9802149
:10467000304604B0BDE8704015F068BB174A184BCF
:104680001848D21AD208920142F0010214F036FC06
:1046900095F8A0309A061DD5D5F81C319B689B076C
:1046A00018D50DF10E0103A8FFF73CFF90B9BDF836
:1046B0000C10BDF80E20204615F093FB014648B1C2
:1046C000064A074B0848D21AD208920142F001026A
:1046D00014F014FC04B070BD0000002044C30100BD
:1046E00064C201006CE4010086E401002DE9F0439E
:1046F000B0F801907F4A047811886FEA09536FEA95
:1047000013539BB299424FF0000808BFA2F80080F3
:1047100085B005461FFA89F708BF4FF00108002C45
:104720003AD03C2C2AD101F03BFABFF35B8F10301A
:1047300050E8003F23F0400340E80032002AF7D160
:10474000BFF35B8F0020FFF775FC054660B96A4B2D
:104750006A496B48C91AC908890141F0010105B0CD
:10476000BDE8F04314F0BDBB4472002101F012FE1D
:10477000284605B0BDE8F04315F09BBD5E4B5F4A8F
:104780006048D21AD208920142F00202214605B0D6
:10479000BDE8F04314F0B2BB0379023B012B00F1FA
:1047A000040645D80722314602A815F0C1F99DF844
:1047B00008300622023B05F111010DF101008DF8D0
:1047C000083015F0B5F901238DF80030EB78012B96
:1047D00016D102A8FFF72EFCEB78012B04460ED170
:1047E00001F0DEF9BFF35B8F103050E8003F23F09B
:1047F000400340E80032002AF7D1BFF35B8F64BB6F
:104800003D4A3E4C3046A41AFFF71EFAFDF714FC51
:10481000E408A40144F00104014622463A4814F099
:104820006DFB1F21384615F0A0FA05B0BDE8F083F6
:10483000C378012B04BF354B93F8334031462046F3
:1048400015F087FB0722014602A815F071F907222F
:104850003146684615F06CF9B8E72046072220F883
:10486000889B02A915F064F92A7EEB7D43EA0223B6
:10487000A4F89E30AA7E6B7E43EA0223A4F8A430FB
:104880002A7FEB7E43EA0223A4F8A630EB78E3709C
:104890000022012B627217D10722694604F18F00B2
:1048A00015F046F901F07CF9217A184DC1EBC101F0
:1048B0000722294404F1960015F03AF9D5F8AC30F6
:1048C0005B0601D501F0B0FA0721204601F062FD38
:1048D000B8F1000F03D00121204601F05BFD204616
:1048E00015F0A3FC2046FFF781FE204615F0E1FC01
:1048F0009BE700BFA826002064C2010044C301005A
:10490000A2E40100BEE40100D7E4010000000020A1
:1049100038B58368B3F80150284601F033FD0446EA
:1049200060B9144B144A1548D21AD208920129468C
:1049300042F00102BDE8384014F0E0BA0430BFF3A1
:104940005B8F50E8003F23F0800240E800210029FF
:10495000F7D1BFF35B8F1B0606D54FF4805115F0DE
:10496000F5F92046FFF742FE2046BDE8384015F035
:10497000A0BC00BF64C2010044C301004BE20100BF
:1049800070B58568B5F80160304601F0FBFC04465F
:1049900060B9104A104B1148D21AD2089201314620
:1049A00042F00102BDE8704014F0A8BA2B7823B998
:1049B0000822E91CAC3015F0BBF84FF40051201D63
:1049C00015F0C4F92046FFF711FE2046BDE87040FF
:1049D00015F06FBC44C3010064C201004BE201004A
:1049E00070B506460D4642F221000321FFF7E6FCB2
:1049F000044658B90C490D4B0D48C91AC90889011C
:104A0000BDE8704041F0010114F06BBA0321083099
:104A100016F0DEFB85700680214642F22100BDE8DB
:104A20007040FFF7B1BD00BF44C3010064C2010084
:104A3000F3E40100F7B58368D9789A781F8842EAD1
:104A40000122ADF8002059791A7942EA0122ADF825
:104A500002209A79D97942EA0122ADF804201A7A23
:104A60005B7ABCB242EA03232046ADF8063001F07F
:104A700089FC064680B9204B204A2148D21AD20828
:104A80009201214642F0010214F038FA0221204638
:104A9000FFF7A6FF03B0F0BD694601F0FBFA38B995
:104AA0001E212046FFF79CFF304615F002FCF1E77F
:104AB0000E2142F22000FFF781FC05460028F3D0CA
:104AC0000E21083016F084FB0E220446002115F05A
:104AD0005AF8BDF800306380BDF80230A380BDF8FD
:104AE0000430E380BDF8063027802381294642F256
:104AF0002000FFF749FDD7E764C2010044C301006D
:104B00004BE201002DE9F84F514D524BDFF848912F
:104B1000DFF848A1ED1AED08D9F80C3050486FF3D2
:104B20005233C9F80C3001F0C7FB471C4A484FF01C
:104B3000FF324FF0FF33394613F084FC60B149492E
:104B4000494840F67413524613F08CFD404080F300
:104B500011884FF0030002DF444EDFF8FC8006F1BD
:104B6000E80B17B913F090F9D6E7D8F80C10C1F399
:104B70004531012959D9042963D198F80C30002B0B
:104B800057D13B480022002316F0C5FA044660B90D
:104B90003849354840F61113524613F063FD404042
:104BA00080F311884FF0030002DF4FF0FF334FF026
:104BB000FF32584612F032FDD6F8003163B1A90138
:104BC0002D4841F0010114F08CF9D6F8000111F0E4
:104BD0001DF90023C6F80031204616F0C7FAC6F8C2
:104BE00000012046FFF7C8FC0146F0B1AA012348A6
:104BF00042F0010214F082F9214812F0E9FC20464B
:104C000011F04EF81F4B0C2202FB00301F21408890
:104C10002246FFF781FAD6F8000111F0F7F80023D9
:104C20002046C6F8003111F0F1F808F11408013FF0
:104C300097E7012BF9D1D8F81000383801F0E0FDE2
:104C4000F3E7AA01104842F0020214F057F9ECE72A
:104C500044C3010064C201008401002094E3010008
:104C600098010020C8E30100D1E30100000000200A
:104C70000401002006E101000DE501004AE4010005
:104C8000E80000200C13002028E501002DE9F04188
:104C9000044600F10806304616F0D1FAB4F80C804C
:104CA000B8F1010F05460CD81C4A1D491D4840F6B5
:104CB000E14313F0D7FC404080F311884FF003002C
:104CC00002DF3046022116F0AAFA0746007815F0F6
:104CD0002BF8C20706460CD4104A1349114840F677
:104CE000E54313F0BFFC404080F311884FF0030010
:104CF00002DF05230D4A38782146FFF7BBF9B307D9
:104D000007D52069A4F80C8010FA85F5A560BDE8E8
:104D1000F0812046BDE8F04111F078B894E301003D
:104D200049E50100D1E3010062E5010028C7010067
:104D300070B5017D012904464BD0032978D18389C0
:104D4000032B0CD8424A434943484FF4BF7313F036
:104D500089FC404080F311884FF0030002DF0421FA
:104D600004F1080016F05BFAA18942880688FF2347
:104D7000C6F30B008A42E08263750DD03748384B8A
:104D80001B1ADB089B01374843F0010314F0CAF8F3
:104D9000204611F03BF81AE001F0F4FA054658B944
:104DA0002E4B2F4AE18A3048D21AD208920142F0A3
:104DB000010214F0A3F8EBE701F088FD320B6075F7
:104DC0002146284601F08EF9284615F072FA002097
:104DD00070BD8389012B0CD81D4A1E491E4840F620
:104DE000FE0313F03FFC404080F311884FF00300B6
:104DF00002DF022104F1080016F011FA05460078DE
:104E000014F092FF83070CD4114A1849124840F657
:104E1000021313F027FC404080F311884FF0030089
:104E200002DF134A287804232146FFF723F9AFE76E
:104E30000A4B0B4A0F48D21AD208920142F00102E3
:104E400014F05CF8204610F0E1FF6FF01500BFE7AA
:104E500094E3010049E50100D1E3010064C20100CF
:104E600044C301007BE501009FE50100C1E50100AD
:104E7000F8C60100EFE5010010B5037D012B0446E3
:104E80000CD0094A09490A4840F6285313F0EAFBB6
:104E9000404080F311884FF0030002DF2046FFF707
:104EA000F5FE002010BD00BF94E3010003E6010001
:104EB000D1E30100084A0346D2F81C0130B9D96891
:104EC00039B1196929B1C2F81C3170476FF0770008
:104ED00070476FF015007047000000202DE9F04387
:104EE0002B4D2C4C2C4EDFF8B49087B0022105F1ED
:104EF000980014F02BFF2A4B2A49E41AEB79284634
:104F0000012B88BF0E46FEF79FFEFDF795F8E408DB
:104F1000A40144F00308024631462348434614F0F6
:104F200001F82F460126EB799E4207F1070722DBA5
:104F300095F834603046FEF75BFFEB8E049344F047
:104F400003046B8F0593CDE90206234602A90422D0
:104F5000164814F01CF895F835603046FEF748FF07
:104F60002B8FADF8004001463246114813F0F3FF95
:104F700007B0BDE8F0833846FEF766FEFDF75CF843
:104F8000314602464346484613F0CCFF0136CAE795
:104F90000000002044C3010050DA010039E601009E
:104FA00064C2010026E601002AE601004AE601008B
:104FB00088E6010070B5424DD5F81C31996811F0B2
:104FC000010188B021D103AA40F60340FFF730FA6F
:104FD0000446002870D1039B9B681B7893B9BFF3EC
:104FE0005B8F2B4653F8982FBFF35B8F02F00502BF
:104FF000BFF35B8F53E8001F43E800200028F9D17E
:10500000BFF35B8F039810F001FF03AA002141F268
:105010000300FFF70DFA044600284DD1039B2948F1
:1050200099680822013114F083FD039810F0EEFE18
:10503000214603AA41F20100FFF7FAF904460028CD
:105040003AD1039883685A7885F83420D9789A78C9
:1050500042EA0122EA861A7985F83520197ADA7946
:1050600042EA01222A875A799B7942EA03236B8715
:1050700010F0CCFE214603AA41F20200FFF7D8F956
:105080000446C8B9039B104899684022013114F0C6
:105090004FFD039810F0BAFE95F840305E061BD421
:1050A0000A4B0B490B48C91AC908890141F0010193
:1050B00013F017FF6FF01204204608B070BD00BF58
:1050C000000000203C0000204400002064C20100D9
:1050D00044C30100AFE60100214603AA42F20300E7
:1050E000FFF7A6F904460028E6D1039BBE4899685D
:1050F0000822013114F01CFD039810F087FE2146B0
:1051000003AA42F20200FFF793F904460028D3D124
:10511000039B9B68B3F80120A5F8CC2091B221B184
:10512000DA78B248114616F07AFB039810F06EFE5A
:1051300095F8406016F0200600F0D88095F86030B1
:105140001C0712D503AA002142F21C00FFF770F9D8
:1051500004460028B0D103988368D3F80120D3F81F
:105160000530C5E92A2310F051FE95F8A0309806C5
:1051700024D502A90DF10600FFF7D4F90446002852
:105180009AD1042142F22400FFF718F906460028BC
:1051900000F0B3800421083016F01AF8BDF806308C
:1051A0000380BDF8083043802246314642F2240095
:1051B000FFF73EF9044600287FF47EAF082142F253
:1051C0000100FFF7FBF80446002800F09680082154
:1051D000084415F0FDFF95F8A02012F0020F14BF4F
:1051E0002F230F23910695F8A12048BF43F04003D9
:1051F00012F0090F18BF43F4006300220370C3F3D9
:10520000072343708270C270027142718271C27151
:10521000214642F20100FFF70BF9044600287FF413
:105220004BAF95F840309A061ED4B5F8CC10D9B9DA
:1052300003AA41F20500FFF7FBF8044600287FF4BB
:105240003BAFB5F8CC3063B9039B9B685A7899782B
:1052500042EA0122A5F8CC209A886448114616F04B
:10526000DEFA039810F0D2FD082140F60140FFF766
:10527000A5F80446002840D00821084415F0A8FFEE
:10528000102303708823437002230022C37020235D
:105290008270027142718271C371214640F60140F1
:1052A000FFF7C6F8044600287FF406AF014602AABD
:1052B0004FF60140FFF7BCF84D4C4E4BE41AE408A2
:1052C000A40178B34C4844F0020113F00AFE00F048
:1052D00039FB044600287FF4EFAE01F003FB0446DF
:1052E00000287FF4E9AEFFF7F9FDE5E6022140F67C
:1052F0006D40FFF763F8044610B96FF06804DBE611
:105300000221083015F064FF012303704670214626
:10531000324640F66D40FFF78BF8044600283FF414
:105320000DAFC9E6029B35489E68B6F80120032AF6
:1053300096BF3349334951F8221044F0030313F068
:10534000F1FDB6F80110B6F80320022944F003037A
:105350002ED1032A2CD82C4951F822102B4813F0B7
:10536000E1FD72792A48032A96BF2A49254951F856
:105370002210CDE90312B2790592B6F80720069201
:10538000D6F80920079244F00303052203A913F07D
:10539000FEFD029810F03AFD02AA00214FF60240ED
:1053A000FFF746F8064628B11B4844F002018CE797
:1053B0001449D3E7029B194899680222013114F07D
:1053C000B7FB029810F022FD95F885305B077FF55A
:1053D0007EAF02AA31464FF60340FFF729F808B323
:1053E0000F4844F0020170E7A0000020D000002028
:1053F00044C3010064C20100D3E60100F7E60100E6
:1054000018C70100F5E10100E8C6010010E701003E
:1054100028E7010050C7010055E701008500002082
:105420007EE70100029B054899680122114414F0AF
:105430007FFB029810F0EAFC49E700BF84000020DF
:1054400010B5FFF7B7FD034B1B6813B1BDE8104063
:10545000184710BD2413002070B52A4DD5F81C3113
:1054600088B0064673B9284B28492948C91AC90883
:10547000890141F0010113F034FD6FF01204204660
:1054800008B070BD012105F1980014F05FFC10EA2E
:10549000010334D11F4A1660002000216FF008027A
:1054A000CDE90601CDE90232CDE9003304931A4972
:1054B0001A4B1B484FF4207211F0FEFE1949184890
:1054C00016F0CAF8D5F81C31DB689847044658B185
:1054D0000D4B0E4AD21AD2089201014642F0010247
:1054E000114813F00BFDCAE726B908B0BDE87040BB
:1054F000FFF760BD05F1880012F0D6F9BFE76FF045
:105500007704BCE70000002064C2010044C301002E
:10551000A7E7010024130020C02E0020054B000047
:1055200040090020C0E70100C6E7010000487047BD
:10553000E2E70100F8B50B4F06460025FB79ECB217
:10554000A34202D86FF0010409E0C4EBC4010722B2
:105550003944304614F0DBFA01350028EED12046FC
:10556000F8BD00BF0000002038B5144906220546EA
:1055700014F0CDFA0446E0B1062142F20500FEF730
:105580001DFF0446B8B106222946083015F026FE54
:105590002146002242F20500FEF74AFF044640B9C8
:1055A00006220648294614F0C3FA054B012283F867
:1055B0002C20204638BD6FF06804FAE72D0000204B
:1055C0000000002030B5154CC0EBC00085B004448D
:1055D0000D4681B100230722694628460093CDF885
:1055E000033014F094FA30B107222946204614F013
:1055F0009FFA05B030BD02A814F088FB02A8FFF79F
:1056000099FF0028F7DA072202A9204614F090FA41
:10561000002DEED0072221462846E8E700000020B2
:1056200073B50C46054618B94CB36FF0150423E06A
:105630000023072269460093CDF8033014F067FA7F
:105640000028F1D02B78012B04D1AB7903F0C003F3
:10565000C02B0AD01B4B1C491C48C91AC908890118
:1056600041F0010113F03DFCDFE72846FFF762FF40
:105670000028D9DB6FF07704204602B070BD144ECD
:10568000F379012B1BD0BFF35B8FD6F89830BFF3B3
:105690005B8FDB070BD4002DC7D007226946284655
:1056A0000094CDF8034014F032FA0028BDD0F4790C
:1056B0002946631C2046F371FFF784FFDCE76FF097
:1056C0000B04D9E764C201004CC30100F5E70100F7
:1056D0000000002070B586B0064601AA002141F204
:1056E0000900FEF7A5FE044660B11E491E4B1F4887
:1056F000C91AC908890141F0020113F0F2FB002028
:1057000006B070BD019B02909D68ADF80C0001359C
:10571000062202A9284614F0FAF918B9019810F0E7
:1057200075FBECE7FF23062204A928468DF810300C
:105730008DF811308DF812308DF813308DF814304B
:105740008DF8153014F0E3F90028E7D00622294639
:10575000701C14F0EDF90198347010F057FB012023
:10576000CEE700BF4CC3010064C2010023E8010082
:1057700007B56846FFF7AEFF044BD87118B169460C
:105780000020FFF71FFF03B05DF804FB00000020BE
:105790002DE9F341254B93F8864014F001040746A8
:1057A0000E460AD12249234B2348C91AC908890148
:1057B00041F0020113F095FB12E001AA00214FF61F
:1057C0000940FEF735FE054670B11A4B18491B48D3
:1057D000C91AC908890141F0020113F082FB0024B3
:1057E000204602B0BDE8F081019B9B685C78B44222
:1057F00028BF34464FF016089E1CA5420DDB0198C9
:1058000010F004FB002CEBD109490A4B0C48C91AD3
:10581000C908890141F00201CCE708FB0570162296
:10582000314614F085F90135E7E700BF000000209C
:105830004CC3010064C2010041E801006DE80100B1
:105840008DE80100F0B5154DEC7989B0F4B901216E
:1058500002A8FFF79DFFE871C0B11627E6B202ABC0
:10586000062207FB06310DF1010014F061F9012356
:10587000694630468DF800300134FFF7A3FEEA791F
:10588000E3B29A42EAD8002009B0F0BD00210846F0
:1058900009B0BDE8F040FFF7C3BE00BF0000002024
:1058A0002DE9F84311F0010405780E4690461F4695
:1058B00026D0234C2AB1880603D594F8A030590687
:1058C0003AD5C5EBC5034FEAC509E35C012B08D007
:1058D000A9EB0505635DB8F1000F0CD13B7000200A
:1058E00007E0072010FB05302044FFF73DFE0028AD
:1058F000EED0BDE8F883B20648BF43F00203EDE7FF
:105900004B0715D5DFF83880C5EBC503EE0018F856
:105910000330012B0AD1072010FB05304044FFF76C
:1059200023FE751B18F805303B70E2E72046F8E7C8
:1059300014F011FB0123F7E76FF08500D9E700BFF2
:105940000000002038B5144DEB7913B10024204637
:1059500038BDFFF70DFFEB79002BF7D1FFF772FF92
:10596000044650B10D490E4B0E48C91AC9088901A9
:1059700041F0010113F0B5FAE9E7681CFFF7F4FD07
:1059800004460028E3D00549054B0748C91AC90851
:10599000890141F00101EDE7000000204CC3010046
:1059A00064C20100B6E80100D5E80100436837B5DC
:1059B0000446580502D5002003B030BD22690AB163
:1059C000D907F8D51A4D2078EB798342F3D9C0EB8B
:1059D000C00000230722694628440093CDF8033015
:1059E00014F095F80028E6D06068C20706D495F850
:1059F0003430082B02D8A3689F2BDCD910F0300F6D
:105A000002D02369002BD6D0C30601D4236943B941
:105A1000D4E902239A42CED81F2ACCD9B3F5804FBD
:105A2000C9D800F46030B0F5603018BF0120C3E77A
:105A3000000000202DE9F74F0C4620218246154634
:105A4000FEF7BCFC064600285CD02021083015F08B
:105A5000BFFB20220021814614F095F804EBC5031A
:105A600009F1010B00930025D4F80080002362683F
:105A700093420DD3009B08349C42F5D1002231465D
:105A8000504689F8005003B0BDE8F04FFEF7D0BC97
:105A900098F8012098F800C0A81C81181F291AD96D
:105AA000BCF1090FC5F11D0201D1002A11DC174B11
:105AB00017491848C91AC908890141F0010113F0B2
:105AC00010FA304610F0A2F96FF0150003B0BDE8EF
:105AD000F08F4FF0080CD7B2791C0BF80510691C39
